{
	"contracts/10.ArrayOfStruct.sol": {
		"assignment": {
			"abi": [
				{
					"inputs": [],
					"name": "Details",
					"outputs": [
						{
							"components": [
								{
									"internalType": "string",
									"name": "name",
									"type": "string"
								},
								{
									"internalType": "uint256",
									"name": "roll",
									"type": "uint256"
								},
								{
									"internalType": "uint256",
									"name": "age",
									"type": "uint256"
								}
							],
							"internalType": "struct assignment.student[10]",
							"name": "",
							"type": "tuple[10]"
						}
					],
					"stateMutability": "view",
					"type": "function"
				},
				{
					"inputs": [
						{
							"internalType": "uint256",
							"name": "index",
							"type": "uint256"
						},
						{
							"internalType": "string",
							"name": "_name",
							"type": "string"
						},
						{
							"internalType": "uint256",
							"name": "_roll",
							"type": "uint256"
						},
						{
							"internalType": "uint256",
							"name": "_age",
							"type": "uint256"
						}
					],
					"name": "insert",
					"outputs": [],
					"stateMutability": "nonpayable",
					"type": "function"
				},
				{
					"inputs": [
						{
							"internalType": "uint256",
							"name": "",
							"type": "uint256"
						}
					],
					"name": "s1",
					"outputs": [
						{
							"internalType": "string",
							"name": "name",
							"type": "string"
						},
						{
							"internalType": "uint256",
							"name": "roll",
							"type": "uint256"
						},
						{
							"internalType": "uint256",
							"name": "age",
							"type": "uint256"
						}
					],
					"stateMutability": "view",
					"type": "function"
				}
			],
			"devdoc": {
				"kind": "dev",
				"methods": {},
				"version": 1
			},
			"evm": {
				"assembly": "    /* \"contracts/10.ArrayOfStruct.sol\":72:520  contract assignment{... */\n  mstore(0x40, 0x80)\n  callvalue\n  dup1\n  iszero\n  tag_1\n  jumpi\n  0x00\n  dup1\n  revert\ntag_1:\n  pop\n  dataSize(sub_0)\n  dup1\n  dataOffset(sub_0)\n  0x00\n  codecopy\n  0x00\n  return\nstop\n\nsub_0: assembly {\n        /* \"contracts/10.ArrayOfStruct.sol\":72:520  contract assignment{... */\n      mstore(0x40, 0x80)\n      callvalue\n      dup1\n      iszero\n      tag_1\n      jumpi\n      0x00\n      dup1\n      revert\n    tag_1:\n      pop\n      jumpi(tag_2, lt(calldatasize, 0x04))\n      shr(0xe0, calldataload(0x00))\n      dup1\n      0x10523924\n      eq\n      tag_3\n      jumpi\n      dup1\n      0x448a8e1e\n      eq\n      tag_4\n      jumpi\n      dup1\n      0xb47d89ad\n      eq\n      tag_5\n      jumpi\n    tag_2:\n      0x00\n      dup1\n      revert\n        /* \"contracts/10.ArrayOfStruct.sol\":194:434  function insert( uint index,string memory _name, uint _roll, uint _age) public{... */\n    tag_3:\n      tag_6\n      0x04\n      dup1\n      calldatasize\n      sub\n      dup2\n      add\n      swap1\n      tag_7\n      swap2\n      swap1\n      tag_8\n      jump\t// in\n    tag_7:\n      tag_9\n      jump\t// in\n    tag_6:\n      stop\n        /* \"contracts/10.ArrayOfStruct.sol\":169:190  student[10] public s1 */\n    tag_4:\n      tag_10\n      0x04\n      dup1\n      calldatasize\n      sub\n      dup2\n      add\n      swap1\n      tag_11\n      swap2\n      swap1\n      tag_12\n      jump\t// in\n    tag_11:\n      tag_13\n      jump\t// in\n    tag_10:\n      mload(0x40)\n      tag_14\n      swap4\n      swap3\n      swap2\n      swap1\n      tag_15\n      jump\t// in\n    tag_14:\n      mload(0x40)\n      dup1\n      swap2\n      sub\n      swap1\n      return\n        /* \"contracts/10.ArrayOfStruct.sol\":437:517  function Details() public view returns(student[10] memory){... */\n    tag_5:\n      tag_16\n      tag_17\n      jump\t// in\n    tag_16:\n      mload(0x40)\n      tag_18\n      swap2\n      swap1\n      tag_19\n      jump\t// in\n    tag_18:\n      mload(0x40)\n      dup1\n      swap2\n      sub\n      swap1\n      return\n        /* \"contracts/10.ArrayOfStruct.sol\":194:434  function insert( uint index,string memory _name, uint _roll, uint _age) public{... */\n    tag_9:\n        /* \"contracts/10.ArrayOfStruct.sol\":360:365  _name */\n      dup3\n        /* \"contracts/10.ArrayOfStruct.sol\":343:345  s1 */\n      0x00\n        /* \"contracts/10.ArrayOfStruct.sol\":346:351  index */\n      dup6\n        /* \"contracts/10.ArrayOfStruct.sol\":343:352  s1[index] */\n      0x0a\n      dup2\n      lt\n      tag_21\n      jumpi\n      tag_22\n      tag_23\n      jump\t// in\n    tag_22:\n    tag_21:\n      0x03\n      mul\n      add\n        /* \"contracts/10.ArrayOfStruct.sol\":343:357  s1[index].name */\n      0x00\n      add\n        /* \"contracts/10.ArrayOfStruct.sol\":343:365  s1[index].name = _name */\n      swap1\n      dup2\n      tag_25\n      swap2\n      swap1\n      tag_26\n      jump\t// in\n    tag_25:\n      pop\n        /* \"contracts/10.ArrayOfStruct.sol\":393:398  _roll */\n      dup2\n        /* \"contracts/10.ArrayOfStruct.sol\":376:378  s1 */\n      0x00\n        /* \"contracts/10.ArrayOfStruct.sol\":379:384  index */\n      dup6\n        /* \"contracts/10.ArrayOfStruct.sol\":376:385  s1[index] */\n      0x0a\n      dup2\n      lt\n      tag_27\n      jumpi\n      tag_28\n      tag_23\n      jump\t// in\n    tag_28:\n    tag_27:\n      0x03\n      mul\n      add\n        /* \"contracts/10.ArrayOfStruct.sol\":376:390  s1[index].roll */\n      0x01\n      add\n        /* \"contracts/10.ArrayOfStruct.sol\":376:398  s1[index].roll = _roll */\n      dup2\n      swap1\n      sstore\n      pop\n        /* \"contracts/10.ArrayOfStruct.sol\":425:429  _age */\n      dup1\n        /* \"contracts/10.ArrayOfStruct.sol\":409:411  s1 */\n      0x00\n        /* \"contracts/10.ArrayOfStruct.sol\":412:417  index */\n      dup6\n        /* \"contracts/10.ArrayOfStruct.sol\":409:418  s1[index] */\n      0x0a\n      dup2\n      lt\n      tag_30\n      jumpi\n      tag_31\n      tag_23\n      jump\t// in\n    tag_31:\n    tag_30:\n      0x03\n      mul\n      add\n        /* \"contracts/10.ArrayOfStruct.sol\":409:422  s1[index].age */\n      0x02\n      add\n        /* \"contracts/10.ArrayOfStruct.sol\":409:429  s1[index].age = _age */\n      dup2\n      swap1\n      sstore\n      pop\n        /* \"contracts/10.ArrayOfStruct.sol\":194:434  function insert( uint index,string memory _name, uint _roll, uint _age) public{... */\n      pop\n      pop\n      pop\n      pop\n      jump\t// out\n        /* \"contracts/10.ArrayOfStruct.sol\":169:190  student[10] public s1 */\n    tag_13:\n      0x00\n      dup2\n      0x0a\n      dup2\n      lt\n      tag_33\n      jumpi\n      0x00\n      dup1\n      revert\n    tag_33:\n      0x03\n      mul\n      add\n      0x00\n      swap2\n      pop\n      swap1\n      pop\n      dup1\n      0x00\n      add\n      dup1\n      sload\n      tag_35\n      swap1\n      tag_36\n      jump\t// in\n    tag_35:\n      dup1\n      0x1f\n      add\n      0x20\n      dup1\n      swap2\n      div\n      mul\n      0x20\n      add\n      mload(0x40)\n      swap1\n      dup2\n      add\n      0x40\n      mstore\n      dup1\n      swap3\n      swap2\n      swap1\n      dup2\n      dup2\n      mstore\n      0x20\n      add\n      dup3\n      dup1\n      sload\n      tag_37\n      swap1\n      tag_36\n      jump\t// in\n    tag_37:\n      dup1\n      iszero\n      tag_38\n      jumpi\n      dup1\n      0x1f\n      lt\n      tag_39\n      jumpi\n      0x0100\n      dup1\n      dup4\n      sload\n      div\n      mul\n      dup4\n      mstore\n      swap2\n      0x20\n      add\n      swap2\n      jump(tag_38)\n    tag_39:\n      dup3\n      add\n      swap2\n      swap1\n      0x00\n      mstore\n      keccak256(0x00, 0x20)\n      swap1\n    tag_40:\n      dup2\n      sload\n      dup2\n      mstore\n      swap1\n      0x01\n      add\n      swap1\n      0x20\n      add\n      dup1\n      dup4\n      gt\n      tag_40\n      jumpi\n      dup3\n      swap1\n      sub\n      0x1f\n      and\n      dup3\n      add\n      swap2\n    tag_38:\n      pop\n      pop\n      pop\n      pop\n      pop\n      swap1\n      dup1\n      0x01\n      add\n      sload\n      swap1\n      dup1\n      0x02\n      add\n      sload\n      swap1\n      pop\n      dup4\n      jump\t// out\n        /* \"contracts/10.ArrayOfStruct.sol\":437:517  function Details() public view returns(student[10] memory){... */\n    tag_17:\n        /* \"contracts/10.ArrayOfStruct.sol\":476:494  student[10] memory */\n      tag_41\n      tag_42\n      jump\t// in\n    tag_41:\n        /* \"contracts/10.ArrayOfStruct.sol\":510:512  s1 */\n      0x00\n        /* \"contracts/10.ArrayOfStruct.sol\":503:512  return s1 */\n      0x0a\n      dup1\n      0x20\n      mul\n      mload(0x40)\n      swap1\n      dup2\n      add\n      0x40\n      mstore\n      dup1\n      swap3\n      swap2\n      swap1\n      0x00\n      swap1\n    tag_44:\n      dup3\n      dup3\n      lt\n      iszero\n      tag_45\n      jumpi\n      dup4\n      dup3\n      0x03\n      mul\n      add\n      mload(0x40)\n      dup1\n      0x60\n      add\n      0x40\n      mstore\n      swap1\n      dup2\n      0x00\n      dup3\n      add\n      dup1\n      sload\n      tag_47\n      swap1\n      tag_36\n      jump\t// in\n    tag_47:\n      dup1\n      0x1f\n      add\n      0x20\n      dup1\n      swap2\n      div\n      mul\n      0x20\n      add\n      mload(0x40)\n      swap1\n      dup2\n      add\n      0x40\n      mstore\n      dup1\n      swap3\n      swap2\n      swap1\n      dup2\n      dup2\n      mstore\n      0x20\n      add\n      dup3\n      dup1\n      sload\n      tag_48\n      swap1\n      tag_36\n      jump\t// in\n    tag_48:\n      dup1\n      iszero\n      tag_49\n      jumpi\n      dup1\n      0x1f\n      lt\n      tag_50\n      jumpi\n      0x0100\n      dup1\n      dup4\n      sload\n      div\n      mul\n      dup4\n      mstore\n      swap2\n      0x20\n      add\n      swap2\n      jump(tag_49)\n    tag_50:\n      dup3\n      add\n      swap2\n      swap1\n      0x00\n      mstore\n      keccak256(0x00, 0x20)\n      swap1\n    tag_51:\n      dup2\n      sload\n      dup2\n      mstore\n      swap1\n      0x01\n      add\n      swap1\n      0x20\n      add\n      dup1\n      dup4\n      gt\n      tag_51\n      jumpi\n      dup3\n      swap1\n      sub\n      0x1f\n      and\n      dup3\n      add\n      swap2\n    tag_49:\n      pop\n      pop\n      pop\n      pop\n      pop\n      dup2\n      mstore\n      0x20\n      add\n      0x01\n      dup3\n      add\n      sload\n      dup2\n      mstore\n      0x20\n      add\n      0x02\n      dup3\n      add\n      sload\n      dup2\n      mstore\n      pop\n      pop\n      dup2\n      mstore\n      0x20\n      add\n      swap1\n      0x01\n      add\n      swap1\n      jump(tag_44)\n    tag_45:\n      pop\n      pop\n      pop\n      pop\n      swap1\n      pop\n        /* \"contracts/10.ArrayOfStruct.sol\":437:517  function Details() public view returns(student[10] memory){... */\n      swap1\n      jump\t// out\n    tag_42:\n      mload(0x40)\n      dup1\n      0x0140\n      add\n      0x40\n      mstore\n      dup1\n      0x0a\n      swap1\n    tag_52:\n      tag_53\n      tag_54\n      jump\t// in\n    tag_53:\n      dup2\n      mstore\n      0x20\n      add\n      swap1\n      0x01\n      swap1\n      sub\n      swap1\n      dup2\n      tag_52\n      jumpi\n      swap1\n      pop\n      pop\n      swap1\n      jump\t// out\n    tag_54:\n      mload(0x40)\n      dup1\n      0x60\n      add\n      0x40\n      mstore\n      dup1\n      0x60\n      dup2\n      mstore\n      0x20\n      add\n      0x00\n      dup2\n      mstore\n      0x20\n      add\n      0x00\n      dup2\n      mstore\n      pop\n      swap1\n      jump\t// out\n        /* \"#utility.yul\":7:82   */\n    tag_55:\n        /* \"#utility.yul\":40:46   */\n      0x00\n        /* \"#utility.yul\":73:75   */\n      0x40\n        /* \"#utility.yul\":67:76   */\n      mload\n        /* \"#utility.yul\":57:76   */\n      swap1\n      pop\n        /* \"#utility.yul\":7:82   */\n      swap1\n      jump\t// out\n        /* \"#utility.yul\":88:205   */\n    tag_56:\n        /* \"#utility.yul\":197:198   */\n      0x00\n        /* \"#utility.yul\":194:195   */\n      dup1\n        /* \"#utility.yul\":187:199   */\n      revert\n        /* \"#utility.yul\":211:328   */\n    tag_57:\n        /* \"#utility.yul\":320:321   */\n      0x00\n        /* \"#utility.yul\":317:318   */\n      dup1\n        /* \"#utility.yul\":310:322   */\n      revert\n        /* \"#utility.yul\":334:411   */\n    tag_58:\n        /* \"#utility.yul\":371:378   */\n      0x00\n        /* \"#utility.yul\":400:405   */\n      dup2\n        /* \"#utility.yul\":389:405   */\n      swap1\n      pop\n        /* \"#utility.yul\":334:411   */\n      swap2\n      swap1\n      pop\n      jump\t// out\n        /* \"#utility.yul\":417:539   */\n    tag_59:\n        /* \"#utility.yul\":490:514   */\n      tag_108\n        /* \"#utility.yul\":508:513   */\n      dup2\n        /* \"#utility.yul\":490:514   */\n      tag_58\n      jump\t// in\n    tag_108:\n        /* \"#utility.yul\":483:488   */\n      dup2\n        /* \"#utility.yul\":480:515   */\n      eq\n        /* \"#utility.yul\":470:533   */\n      tag_109\n      jumpi\n        /* \"#utility.yul\":529:530   */\n      0x00\n        /* \"#utility.yul\":526:527   */\n      dup1\n        /* \"#utility.yul\":519:531   */\n      revert\n        /* \"#utility.yul\":470:533   */\n    tag_109:\n        /* \"#utility.yul\":417:539   */\n      pop\n      jump\t// out\n        /* \"#utility.yul\":545:684   */\n    tag_60:\n        /* \"#utility.yul\":591:596   */\n      0x00\n        /* \"#utility.yul\":629:635   */\n      dup2\n        /* \"#utility.yul\":616:636   */\n      calldataload\n        /* \"#utility.yul\":607:636   */\n      swap1\n      pop\n        /* \"#utility.yul\":645:678   */\n      tag_111\n        /* \"#utility.yul\":672:677   */\n      dup2\n        /* \"#utility.yul\":645:678   */\n      tag_59\n      jump\t// in\n    tag_111:\n        /* \"#utility.yul\":545:684   */\n      swap3\n      swap2\n      pop\n      pop\n      jump\t// out\n        /* \"#utility.yul\":690:807   */\n    tag_61:\n        /* \"#utility.yul\":799:800   */\n      0x00\n        /* \"#utility.yul\":796:797   */\n      dup1\n        /* \"#utility.yul\":789:801   */\n      revert\n        /* \"#utility.yul\":813:930   */\n    tag_62:\n        /* \"#utility.yul\":922:923   */\n      0x00\n        /* \"#utility.yul\":919:920   */\n      dup1\n        /* \"#utility.yul\":912:924   */\n      revert\n        /* \"#utility.yul\":936:1038   */\n    tag_63:\n        /* \"#utility.yul\":977:983   */\n      0x00\n        /* \"#utility.yul\":1028:1030   */\n      0x1f\n        /* \"#utility.yul\":1024:1031   */\n      not\n        /* \"#utility.yul\":1019:1021   */\n      0x1f\n        /* \"#utility.yul\":1012:1017   */\n      dup4\n        /* \"#utility.yul\":1008:1022   */\n      add\n        /* \"#utility.yul\":1004:1032   */\n      and\n        /* \"#utility.yul\":994:1032   */\n      swap1\n      pop\n        /* \"#utility.yul\":936:1038   */\n      swap2\n      swap1\n      pop\n      jump\t// out\n        /* \"#utility.yul\":1044:1224   */\n    tag_64:\n        /* \"#utility.yul\":1092:1169   */\n      0x4e487b7100000000000000000000000000000000000000000000000000000000\n        /* \"#utility.yul\":1089:1090   */\n      0x00\n        /* \"#utility.yul\":1082:1170   */\n      mstore\n        /* \"#utility.yul\":1189:1193   */\n      0x41\n        /* \"#utility.yul\":1186:1187   */\n      0x04\n        /* \"#utility.yul\":1179:1194   */\n      mstore\n        /* \"#utility.yul\":1213:1217   */\n      0x24\n        /* \"#utility.yul\":1210:1211   */\n      0x00\n        /* \"#utility.yul\":1203:1218   */\n      revert\n        /* \"#utility.yul\":1230:1511   */\n    tag_65:\n        /* \"#utility.yul\":1313:1340   */\n      tag_117\n        /* \"#utility.yul\":1335:1339   */\n      dup3\n        /* \"#utility.yul\":1313:1340   */\n      tag_63\n      jump\t// in\n    tag_117:\n        /* \"#utility.yul\":1305:1311   */\n      dup2\n        /* \"#utility.yul\":1301:1341   */\n      add\n        /* \"#utility.yul\":1443:1449   */\n      dup2\n        /* \"#utility.yul\":1431:1441   */\n      dup2\n        /* \"#utility.yul\":1428:1450   */\n      lt\n        /* \"#utility.yul\":1407:1425   */\n      0xffffffffffffffff\n        /* \"#utility.yul\":1395:1405   */\n      dup3\n        /* \"#utility.yul\":1392:1426   */\n      gt\n        /* \"#utility.yul\":1389:1451   */\n      or\n        /* \"#utility.yul\":1386:1474   */\n      iszero\n      tag_118\n      jumpi\n        /* \"#utility.yul\":1454:1472   */\n      tag_119\n      tag_64\n      jump\t// in\n    tag_119:\n        /* \"#utility.yul\":1386:1474   */\n    tag_118:\n        /* \"#utility.yul\":1494:1504   */\n      dup1\n        /* \"#utility.yul\":1490:1492   */\n      0x40\n        /* \"#utility.yul\":1483:1505   */\n      mstore\n        /* \"#utility.yul\":1273:1511   */\n      pop\n        /* \"#utility.yul\":1230:1511   */\n      pop\n      pop\n      jump\t// out\n        /* \"#utility.yul\":1517:1646   */\n    tag_66:\n        /* \"#utility.yul\":1551:1557   */\n      0x00\n        /* \"#utility.yul\":1578:1598   */\n      tag_121\n      tag_55\n      jump\t// in\n    tag_121:\n        /* \"#utility.yul\":1568:1598   */\n      swap1\n      pop\n        /* \"#utility.yul\":1607:1640   */\n      tag_122\n        /* \"#utility.yul\":1635:1639   */\n      dup3\n        /* \"#utility.yul\":1627:1633   */\n      dup3\n        /* \"#utility.yul\":1607:1640   */\n      tag_65\n      jump\t// in\n    tag_122:\n        /* \"#utility.yul\":1517:1646   */\n      swap2\n      swap1\n      pop\n      jump\t// out\n        /* \"#utility.yul\":1652:1960   */\n    tag_67:\n        /* \"#utility.yul\":1714:1718   */\n      0x00\n        /* \"#utility.yul\":1804:1822   */\n      0xffffffffffffffff\n        /* \"#utility.yul\":1796:1802   */\n      dup3\n        /* \"#utility.yul\":1793:1823   */\n      gt\n        /* \"#utility.yul\":1790:1846   */\n      iszero\n      tag_124\n      jumpi\n        /* \"#utility.yul\":1826:1844   */\n      tag_125\n      tag_64\n      jump\t// in\n    tag_125:\n        /* \"#utility.yul\":1790:1846   */\n    tag_124:\n        /* \"#utility.yul\":1864:1893   */\n      tag_126\n        /* \"#utility.yul\":1886:1892   */\n      dup3\n        /* \"#utility.yul\":1864:1893   */\n      tag_63\n      jump\t// in\n    tag_126:\n        /* \"#utility.yul\":1856:1893   */\n      swap1\n      pop\n        /* \"#utility.yul\":1948:1952   */\n      0x20\n        /* \"#utility.yul\":1942:1946   */\n      dup2\n        /* \"#utility.yul\":1938:1953   */\n      add\n        /* \"#utility.yul\":1930:1953   */\n      swap1\n      pop\n        /* \"#utility.yul\":1652:1960   */\n      swap2\n      swap1\n      pop\n      jump\t// out\n        /* \"#utility.yul\":1966:2112   */\n    tag_68:\n        /* \"#utility.yul\":2063:2069   */\n      dup3\n        /* \"#utility.yul\":2058:2061   */\n      dup2\n        /* \"#utility.yul\":2053:2056   */\n      dup4\n        /* \"#utility.yul\":2040:2070   */\n      calldatacopy\n        /* \"#utility.yul\":2104:2105   */\n      0x00\n        /* \"#utility.yul\":2095:2101   */\n      dup4\n        /* \"#utility.yul\":2090:2093   */\n      dup4\n        /* \"#utility.yul\":2086:2102   */\n      add\n        /* \"#utility.yul\":2079:2106   */\n      mstore\n        /* \"#utility.yul\":1966:2112   */\n      pop\n      pop\n      pop\n      jump\t// out\n        /* \"#utility.yul\":2118:2543   */\n    tag_69:\n        /* \"#utility.yul\":2196:2201   */\n      0x00\n        /* \"#utility.yul\":2221:2287   */\n      tag_129\n        /* \"#utility.yul\":2237:2286   */\n      tag_130\n        /* \"#utility.yul\":2279:2285   */\n      dup5\n        /* \"#utility.yul\":2237:2286   */\n      tag_67\n      jump\t// in\n    tag_130:\n        /* \"#utility.yul\":2221:2287   */\n      tag_66\n      jump\t// in\n    tag_129:\n        /* \"#utility.yul\":2212:2287   */\n      swap1\n      pop\n        /* \"#utility.yul\":2310:2316   */\n      dup3\n        /* \"#utility.yul\":2303:2308   */\n      dup2\n        /* \"#utility.yul\":2296:2317   */\n      mstore\n        /* \"#utility.yul\":2348:2352   */\n      0x20\n        /* \"#utility.yul\":2341:2346   */\n      dup2\n        /* \"#utility.yul\":2337:2353   */\n      add\n        /* \"#utility.yul\":2386:2389   */\n      dup5\n        /* \"#utility.yul\":2377:2383   */\n      dup5\n        /* \"#utility.yul\":2372:2375   */\n      dup5\n        /* \"#utility.yul\":2368:2384   */\n      add\n        /* \"#utility.yul\":2365:2390   */\n      gt\n        /* \"#utility.yul\":2362:2474   */\n      iszero\n      tag_131\n      jumpi\n        /* \"#utility.yul\":2393:2472   */\n      tag_132\n      tag_62\n      jump\t// in\n    tag_132:\n        /* \"#utility.yul\":2362:2474   */\n    tag_131:\n        /* \"#utility.yul\":2483:2537   */\n      tag_133\n        /* \"#utility.yul\":2530:2536   */\n      dup5\n        /* \"#utility.yul\":2525:2528   */\n      dup3\n        /* \"#utility.yul\":2520:2523   */\n      dup6\n        /* \"#utility.yul\":2483:2537   */\n      tag_68\n      jump\t// in\n    tag_133:\n        /* \"#utility.yul\":2202:2543   */\n      pop\n        /* \"#utility.yul\":2118:2543   */\n      swap4\n      swap3\n      pop\n      pop\n      pop\n      jump\t// out\n        /* \"#utility.yul\":2563:2903   */\n    tag_70:\n        /* \"#utility.yul\":2619:2624   */\n      0x00\n        /* \"#utility.yul\":2668:2671   */\n      dup3\n        /* \"#utility.yul\":2661:2665   */\n      0x1f\n        /* \"#utility.yul\":2653:2659   */\n      dup4\n        /* \"#utility.yul\":2649:2666   */\n      add\n        /* \"#utility.yul\":2645:2672   */\n      slt\n        /* \"#utility.yul\":2635:2757   */\n      tag_135\n      jumpi\n        /* \"#utility.yul\":2676:2755   */\n      tag_136\n      tag_61\n      jump\t// in\n    tag_136:\n        /* \"#utility.yul\":2635:2757   */\n    tag_135:\n        /* \"#utility.yul\":2793:2799   */\n      dup2\n        /* \"#utility.yul\":2780:2800   */\n      calldataload\n        /* \"#utility.yul\":2818:2897   */\n      tag_137\n        /* \"#utility.yul\":2893:2896   */\n      dup5\n        /* \"#utility.yul\":2885:2891   */\n      dup3\n        /* \"#utility.yul\":2878:2882   */\n      0x20\n        /* \"#utility.yul\":2870:2876   */\n      dup7\n        /* \"#utility.yul\":2866:2883   */\n      add\n        /* \"#utility.yul\":2818:2897   */\n      tag_69\n      jump\t// in\n    tag_137:\n        /* \"#utility.yul\":2809:2897   */\n      swap2\n      pop\n        /* \"#utility.yul\":2625:2903   */\n      pop\n        /* \"#utility.yul\":2563:2903   */\n      swap3\n      swap2\n      pop\n      pop\n      jump\t// out\n        /* \"#utility.yul\":2909:3854   */\n    tag_8:\n        /* \"#utility.yul\":3005:3011   */\n      0x00\n        /* \"#utility.yul\":3013:3019   */\n      dup1\n        /* \"#utility.yul\":3021:3027   */\n      0x00\n        /* \"#utility.yul\":3029:3035   */\n      dup1\n        /* \"#utility.yul\":3078:3081   */\n      0x80\n        /* \"#utility.yul\":3066:3075   */\n      dup6\n        /* \"#utility.yul\":3057:3064   */\n      dup8\n        /* \"#utility.yul\":3053:3076   */\n      sub\n        /* \"#utility.yul\":3049:3082   */\n      slt\n        /* \"#utility.yul\":3046:3166   */\n      iszero\n      tag_139\n      jumpi\n        /* \"#utility.yul\":3085:3164   */\n      tag_140\n      tag_56\n      jump\t// in\n    tag_140:\n        /* \"#utility.yul\":3046:3166   */\n    tag_139:\n        /* \"#utility.yul\":3205:3206   */\n      0x00\n        /* \"#utility.yul\":3230:3283   */\n      tag_141\n        /* \"#utility.yul\":3275:3282   */\n      dup8\n        /* \"#utility.yul\":3266:3272   */\n      dup3\n        /* \"#utility.yul\":3255:3264   */\n      dup9\n        /* \"#utility.yul\":3251:3273   */\n      add\n        /* \"#utility.yul\":3230:3283   */\n      tag_60\n      jump\t// in\n    tag_141:\n        /* \"#utility.yul\":3220:3283   */\n      swap5\n      pop\n        /* \"#utility.yul\":3176:3293   */\n      pop\n        /* \"#utility.yul\":3360:3362   */\n      0x20\n        /* \"#utility.yul\":3349:3358   */\n      dup6\n        /* \"#utility.yul\":3345:3363   */\n      add\n        /* \"#utility.yul\":3332:3364   */\n      calldataload\n        /* \"#utility.yul\":3391:3409   */\n      0xffffffffffffffff\n        /* \"#utility.yul\":3383:3389   */\n      dup2\n        /* \"#utility.yul\":3380:3410   */\n      gt\n        /* \"#utility.yul\":3377:3494   */\n      iszero\n      tag_142\n      jumpi\n        /* \"#utility.yul\":3413:3492   */\n      tag_143\n      tag_57\n      jump\t// in\n    tag_143:\n        /* \"#utility.yul\":3377:3494   */\n    tag_142:\n        /* \"#utility.yul\":3518:3581   */\n      tag_144\n        /* \"#utility.yul\":3573:3580   */\n      dup8\n        /* \"#utility.yul\":3564:3570   */\n      dup3\n        /* \"#utility.yul\":3553:3562   */\n      dup9\n        /* \"#utility.yul\":3549:3571   */\n      add\n        /* \"#utility.yul\":3518:3581   */\n      tag_70\n      jump\t// in\n    tag_144:\n        /* \"#utility.yul\":3508:3581   */\n      swap4\n      pop\n        /* \"#utility.yul\":3303:3591   */\n      pop\n        /* \"#utility.yul\":3630:3632   */\n      0x40\n        /* \"#utility.yul\":3656:3709   */\n      tag_145\n        /* \"#utility.yul\":3701:3708   */\n      dup8\n        /* \"#utility.yul\":3692:3698   */\n      dup3\n        /* \"#utility.yul\":3681:3690   */\n      dup9\n        /* \"#utility.yul\":3677:3699   */\n      add\n        /* \"#utility.yul\":3656:3709   */\n      tag_60\n      jump\t// in\n    tag_145:\n        /* \"#utility.yul\":3646:3709   */\n      swap3\n      pop\n        /* \"#utility.yul\":3601:3719   */\n      pop\n        /* \"#utility.yul\":3758:3760   */\n      0x60\n        /* \"#utility.yul\":3784:3837   */\n      tag_146\n        /* \"#utility.yul\":3829:3836   */\n      dup8\n        /* \"#utility.yul\":3820:3826   */\n      dup3\n        /* \"#utility.yul\":3809:3818   */\n      dup9\n        /* \"#utility.yul\":3805:3827   */\n      add\n        /* \"#utility.yul\":3784:3837   */\n      tag_60\n      jump\t// in\n    tag_146:\n        /* \"#utility.yul\":3774:3837   */\n      swap2\n      pop\n        /* \"#utility.yul\":3729:3847   */\n      pop\n        /* \"#utility.yul\":2909:3854   */\n      swap3\n      swap6\n      swap2\n      swap5\n      pop\n      swap3\n      pop\n      jump\t// out\n        /* \"#utility.yul\":3860:4189   */\n    tag_12:\n        /* \"#utility.yul\":3919:3925   */\n      0x00\n        /* \"#utility.yul\":3968:3970   */\n      0x20\n        /* \"#utility.yul\":3956:3965   */\n      dup3\n        /* \"#utility.yul\":3947:3954   */\n      dup5\n        /* \"#utility.yul\":3943:3966   */\n      sub\n        /* \"#utility.yul\":3939:3971   */\n      slt\n        /* \"#utility.yul\":3936:4055   */\n      iszero\n      tag_148\n      jumpi\n        /* \"#utility.yul\":3974:4053   */\n      tag_149\n      tag_56\n      jump\t// in\n    tag_149:\n        /* \"#utility.yul\":3936:4055   */\n    tag_148:\n        /* \"#utility.yul\":4094:4095   */\n      0x00\n        /* \"#utility.yul\":4119:4172   */\n      tag_150\n        /* \"#utility.yul\":4164:4171   */\n      dup5\n        /* \"#utility.yul\":4155:4161   */\n      dup3\n        /* \"#utility.yul\":4144:4153   */\n      dup6\n        /* \"#utility.yul\":4140:4162   */\n      add\n        /* \"#utility.yul\":4119:4172   */\n      tag_60\n      jump\t// in\n    tag_150:\n        /* \"#utility.yul\":4109:4172   */\n      swap2\n      pop\n        /* \"#utility.yul\":4065:4182   */\n      pop\n        /* \"#utility.yul\":3860:4189   */\n      swap3\n      swap2\n      pop\n      pop\n      jump\t// out\n        /* \"#utility.yul\":4195:4294   */\n    tag_71:\n        /* \"#utility.yul\":4247:4253   */\n      0x00\n        /* \"#utility.yul\":4281:4286   */\n      dup2\n        /* \"#utility.yul\":4275:4287   */\n      mload\n        /* \"#utility.yul\":4265:4287   */\n      swap1\n      pop\n        /* \"#utility.yul\":4195:4294   */\n      swap2\n      swap1\n      pop\n      jump\t// out\n        /* \"#utility.yul\":4300:4469   */\n    tag_72:\n        /* \"#utility.yul\":4384:4395   */\n      0x00\n        /* \"#utility.yul\":4418:4424   */\n      dup3\n        /* \"#utility.yul\":4413:4416   */\n      dup3\n        /* \"#utility.yul\":4406:4425   */\n      mstore\n        /* \"#utility.yul\":4458:4462   */\n      0x20\n        /* \"#utility.yul\":4453:4456   */\n      dup3\n        /* \"#utility.yul\":4449:4463   */\n      add\n        /* \"#utility.yul\":4434:4463   */\n      swap1\n      pop\n        /* \"#utility.yul\":4300:4469   */\n      swap3\n      swap2\n      pop\n      pop\n      jump\t// out\n        /* \"#utility.yul\":4475:4721   */\n    tag_73:\n        /* \"#utility.yul\":4556:4557   */\n      0x00\n        /* \"#utility.yul\":4566:4679   */\n    tag_154:\n        /* \"#utility.yul\":4580:4586   */\n      dup4\n        /* \"#utility.yul\":4577:4578   */\n      dup2\n        /* \"#utility.yul\":4574:4587   */\n      lt\n        /* \"#utility.yul\":4566:4679   */\n      iszero\n      tag_156\n      jumpi\n        /* \"#utility.yul\":4665:4666   */\n      dup1\n        /* \"#utility.yul\":4660:4663   */\n      dup3\n        /* \"#utility.yul\":4656:4667   */\n      add\n        /* \"#utility.yul\":4650:4668   */\n      mload\n        /* \"#utility.yul\":4646:4647   */\n      dup2\n        /* \"#utility.yul\":4641:4644   */\n      dup5\n        /* \"#utility.yul\":4637:4648   */\n      add\n        /* \"#utility.yul\":4630:4669   */\n      mstore\n        /* \"#utility.yul\":4602:4604   */\n      0x20\n        /* \"#utility.yul\":4599:4600   */\n      dup2\n        /* \"#utility.yul\":4595:4605   */\n      add\n        /* \"#utility.yul\":4590:4605   */\n      swap1\n      pop\n        /* \"#utility.yul\":4566:4679   */\n      jump(tag_154)\n    tag_156:\n        /* \"#utility.yul\":4713:4714   */\n      0x00\n        /* \"#utility.yul\":4704:4710   */\n      dup5\n        /* \"#utility.yul\":4699:4702   */\n      dup5\n        /* \"#utility.yul\":4695:4711   */\n      add\n        /* \"#utility.yul\":4688:4715   */\n      mstore\n        /* \"#utility.yul\":4537:4721   */\n      pop\n        /* \"#utility.yul\":4475:4721   */\n      pop\n      pop\n      pop\n      jump\t// out\n        /* \"#utility.yul\":4727:5104   */\n    tag_74:\n        /* \"#utility.yul\":4815:4818   */\n      0x00\n        /* \"#utility.yul\":4843:4882   */\n      tag_158\n        /* \"#utility.yul\":4876:4881   */\n      dup3\n        /* \"#utility.yul\":4843:4882   */\n      tag_71\n      jump\t// in\n    tag_158:\n        /* \"#utility.yul\":4898:4969   */\n      tag_159\n        /* \"#utility.yul\":4962:4968   */\n      dup2\n        /* \"#utility.yul\":4957:4960   */\n      dup6\n        /* \"#utility.yul\":4898:4969   */\n      tag_72\n      jump\t// in\n    tag_159:\n        /* \"#utility.yul\":4891:4969   */\n      swap4\n      pop\n        /* \"#utility.yul\":4978:5043   */\n      tag_160\n        /* \"#utility.yul\":5036:5042   */\n      dup2\n        /* \"#utility.yul\":5031:5034   */\n      dup6\n        /* \"#utility.yul\":5024:5028   */\n      0x20\n        /* \"#utility.yul\":5017:5022   */\n      dup7\n        /* \"#utility.yul\":5013:5029   */\n      add\n        /* \"#utility.yul\":4978:5043   */\n      tag_73\n      jump\t// in\n    tag_160:\n        /* \"#utility.yul\":5068:5097   */\n      tag_161\n        /* \"#utility.yul\":5090:5096   */\n      dup2\n        /* \"#utility.yul\":5068:5097   */\n      tag_63\n      jump\t// in\n    tag_161:\n        /* \"#utility.yul\":5063:5066   */\n      dup5\n        /* \"#utility.yul\":5059:5098   */\n      add\n        /* \"#utility.yul\":5052:5098   */\n      swap2\n      pop\n        /* \"#utility.yul\":4819:5104   */\n      pop\n        /* \"#utility.yul\":4727:5104   */\n      swap3\n      swap2\n      pop\n      pop\n      jump\t// out\n        /* \"#utility.yul\":5110:5228   */\n    tag_75:\n        /* \"#utility.yul\":5197:5221   */\n      tag_163\n        /* \"#utility.yul\":5215:5220   */\n      dup2\n        /* \"#utility.yul\":5197:5221   */\n      tag_58\n      jump\t// in\n    tag_163:\n        /* \"#utility.yul\":5192:5195   */\n      dup3\n        /* \"#utility.yul\":5185:5222   */\n      mstore\n        /* \"#utility.yul\":5110:5228   */\n      pop\n      pop\n      jump\t// out\n        /* \"#utility.yul\":5234:5767   */\n    tag_15:\n        /* \"#utility.yul\":5403:5407   */\n      0x00\n        /* \"#utility.yul\":5441:5443   */\n      0x60\n        /* \"#utility.yul\":5430:5439   */\n      dup3\n        /* \"#utility.yul\":5426:5444   */\n      add\n        /* \"#utility.yul\":5418:5444   */\n      swap1\n      pop\n        /* \"#utility.yul\":5490:5499   */\n      dup2\n        /* \"#utility.yul\":5484:5488   */\n      dup2\n        /* \"#utility.yul\":5480:5500   */\n      sub\n        /* \"#utility.yul\":5476:5477   */\n      0x00\n        /* \"#utility.yul\":5465:5474   */\n      dup4\n        /* \"#utility.yul\":5461:5478   */\n      add\n        /* \"#utility.yul\":5454:5501   */\n      mstore\n        /* \"#utility.yul\":5518:5596   */\n      tag_165\n        /* \"#utility.yul\":5591:5595   */\n      dup2\n        /* \"#utility.yul\":5582:5588   */\n      dup7\n        /* \"#utility.yul\":5518:5596   */\n      tag_74\n      jump\t// in\n    tag_165:\n        /* \"#utility.yul\":5510:5596   */\n      swap1\n      pop\n        /* \"#utility.yul\":5606:5678   */\n      tag_166\n        /* \"#utility.yul\":5674:5676   */\n      0x20\n        /* \"#utility.yul\":5663:5672   */\n      dup4\n        /* \"#utility.yul\":5659:5677   */\n      add\n        /* \"#utility.yul\":5650:5656   */\n      dup6\n        /* \"#utility.yul\":5606:5678   */\n      tag_75\n      jump\t// in\n    tag_166:\n        /* \"#utility.yul\":5688:5760   */\n      tag_167\n        /* \"#utility.yul\":5756:5758   */\n      0x40\n        /* \"#utility.yul\":5745:5754   */\n      dup4\n        /* \"#utility.yul\":5741:5759   */\n      add\n        /* \"#utility.yul\":5732:5738   */\n      dup5\n        /* \"#utility.yul\":5688:5760   */\n      tag_75\n      jump\t// in\n    tag_167:\n        /* \"#utility.yul\":5234:5767   */\n      swap5\n      swap4\n      pop\n      pop\n      pop\n      pop\n      jump\t// out\n        /* \"#utility.yul\":5773:5900   */\n    tag_76:\n        /* \"#utility.yul\":5861:5867   */\n      0x00\n        /* \"#utility.yul\":5889:5893   */\n      0x0a\n        /* \"#utility.yul\":5879:5893   */\n      swap1\n      pop\n        /* \"#utility.yul\":5773:5900   */\n      swap2\n      swap1\n      pop\n      jump\t// out\n        /* \"#utility.yul\":5906:6072   */\n    tag_77:\n        /* \"#utility.yul\":6026:6037   */\n      0x00\n        /* \"#utility.yul\":6063:6066   */\n      dup2\n        /* \"#utility.yul\":6048:6066   */\n      swap1\n      pop\n        /* \"#utility.yul\":5906:6072   */\n      swap3\n      swap2\n      pop\n      pop\n      jump\t// out\n        /* \"#utility.yul\":6078:6199   */\n    tag_78:\n        /* \"#utility.yul\":6166:6170   */\n      0x00\n        /* \"#utility.yul\":6189:6192   */\n      dup2\n        /* \"#utility.yul\":6181:6192   */\n      swap1\n      pop\n        /* \"#utility.yul\":6078:6199   */\n      swap2\n      swap1\n      pop\n      jump\t// out\n        /* \"#utility.yul\":6205:6364   */\n    tag_79:\n        /* \"#utility.yul\":6279:6290   */\n      0x00\n        /* \"#utility.yul\":6313:6319   */\n      dup3\n        /* \"#utility.yul\":6308:6311   */\n      dup3\n        /* \"#utility.yul\":6301:6320   */\n      mstore\n        /* \"#utility.yul\":6353:6357   */\n      0x20\n        /* \"#utility.yul\":6348:6351   */\n      dup3\n        /* \"#utility.yul\":6344:6358   */\n      add\n        /* \"#utility.yul\":6329:6358   */\n      swap1\n      pop\n        /* \"#utility.yul\":6205:6364   */\n      swap3\n      swap2\n      pop\n      pop\n      jump\t// out\n        /* \"#utility.yul\":6370:6727   */\n    tag_80:\n        /* \"#utility.yul\":6448:6451   */\n      0x00\n        /* \"#utility.yul\":6476:6515   */\n      tag_173\n        /* \"#utility.yul\":6509:6514   */\n      dup3\n        /* \"#utility.yul\":6476:6515   */\n      tag_71\n      jump\t// in\n    tag_173:\n        /* \"#utility.yul\":6531:6592   */\n      tag_174\n        /* \"#utility.yul\":6585:6591   */\n      dup2\n        /* \"#utility.yul\":6580:6583   */\n      dup6\n        /* \"#utility.yul\":6531:6592   */\n      tag_79\n      jump\t// in\n    tag_174:\n        /* \"#utility.yul\":6524:6592   */\n      swap4\n      pop\n        /* \"#utility.yul\":6601:6666   */\n      tag_175\n        /* \"#utility.yul\":6659:6665   */\n      dup2\n        /* \"#utility.yul\":6654:6657   */\n      dup6\n        /* \"#utility.yul\":6647:6651   */\n      0x20\n        /* \"#utility.yul\":6640:6645   */\n      dup7\n        /* \"#utility.yul\":6636:6652   */\n      add\n        /* \"#utility.yul\":6601:6666   */\n      tag_73\n      jump\t// in\n    tag_175:\n        /* \"#utility.yul\":6691:6720   */\n      tag_176\n        /* \"#utility.yul\":6713:6719   */\n      dup2\n        /* \"#utility.yul\":6691:6720   */\n      tag_63\n      jump\t// in\n    tag_176:\n        /* \"#utility.yul\":6686:6689   */\n      dup5\n        /* \"#utility.yul\":6682:6721   */\n      add\n        /* \"#utility.yul\":6675:6721   */\n      swap2\n      pop\n        /* \"#utility.yul\":6452:6727   */\n      pop\n        /* \"#utility.yul\":6370:6727   */\n      swap3\n      swap2\n      pop\n      pop\n      jump\t// out\n        /* \"#utility.yul\":6733:6841   */\n    tag_81:\n        /* \"#utility.yul\":6810:6834   */\n      tag_178\n        /* \"#utility.yul\":6828:6833   */\n      dup2\n        /* \"#utility.yul\":6810:6834   */\n      tag_58\n      jump\t// in\n    tag_178:\n        /* \"#utility.yul\":6805:6808   */\n      dup3\n        /* \"#utility.yul\":6798:6835   */\n      mstore\n        /* \"#utility.yul\":6733:6841   */\n      pop\n      pop\n      jump\t// out\n        /* \"#utility.yul\":6909:7672   */\n    tag_82:\n        /* \"#utility.yul\":7012:7015   */\n      0x00\n        /* \"#utility.yul\":7048:7052   */\n      0x60\n        /* \"#utility.yul\":7043:7046   */\n      dup4\n        /* \"#utility.yul\":7039:7053   */\n      add\n        /* \"#utility.yul\":7135:7139   */\n      0x00\n        /* \"#utility.yul\":7128:7133   */\n      dup4\n        /* \"#utility.yul\":7124:7140   */\n      add\n        /* \"#utility.yul\":7118:7141   */\n      mload\n        /* \"#utility.yul\":7188:7191   */\n      dup5\n        /* \"#utility.yul\":7182:7186   */\n      dup3\n        /* \"#utility.yul\":7178:7192   */\n      sub\n        /* \"#utility.yul\":7171:7175   */\n      0x00\n        /* \"#utility.yul\":7166:7169   */\n      dup7\n        /* \"#utility.yul\":7162:7176   */\n      add\n        /* \"#utility.yul\":7155:7193   */\n      mstore\n        /* \"#utility.yul\":7214:7287   */\n      tag_180\n        /* \"#utility.yul\":7282:7286   */\n      dup3\n        /* \"#utility.yul\":7268:7280   */\n      dup3\n        /* \"#utility.yul\":7214:7287   */\n      tag_80\n      jump\t// in\n    tag_180:\n        /* \"#utility.yul\":7206:7287   */\n      swap2\n      pop\n        /* \"#utility.yul\":7063:7298   */\n      pop\n        /* \"#utility.yul\":7380:7384   */\n      0x20\n        /* \"#utility.yul\":7373:7378   */\n      dup4\n        /* \"#utility.yul\":7369:7385   */\n      add\n        /* \"#utility.yul\":7363:7386   */\n      mload\n        /* \"#utility.yul\":7399:7462   */\n      tag_181\n        /* \"#utility.yul\":7456:7460   */\n      0x20\n        /* \"#utility.yul\":7451:7454   */\n      dup7\n        /* \"#utility.yul\":7447:7461   */\n      add\n        /* \"#utility.yul\":7433:7445   */\n      dup3\n        /* \"#utility.yul\":7399:7462   */\n      tag_81\n      jump\t// in\n    tag_181:\n        /* \"#utility.yul\":7308:7472   */\n      pop\n        /* \"#utility.yul\":7553:7557   */\n      0x40\n        /* \"#utility.yul\":7546:7551   */\n      dup4\n        /* \"#utility.yul\":7542:7558   */\n      add\n        /* \"#utility.yul\":7536:7559   */\n      mload\n        /* \"#utility.yul\":7572:7635   */\n      tag_182\n        /* \"#utility.yul\":7629:7633   */\n      0x40\n        /* \"#utility.yul\":7624:7627   */\n      dup7\n        /* \"#utility.yul\":7620:7634   */\n      add\n        /* \"#utility.yul\":7606:7618   */\n      dup3\n        /* \"#utility.yul\":7572:7635   */\n      tag_81\n      jump\t// in\n    tag_182:\n        /* \"#utility.yul\":7482:7645   */\n      pop\n        /* \"#utility.yul\":7662:7666   */\n      dup1\n        /* \"#utility.yul\":7655:7666   */\n      swap2\n      pop\n        /* \"#utility.yul\":7017:7672   */\n      pop\n        /* \"#utility.yul\":6909:7672   */\n      swap3\n      swap2\n      pop\n      pop\n      jump\t// out\n        /* \"#utility.yul\":7678:7922   */\n    tag_83:\n        /* \"#utility.yul\":7791:7801   */\n      0x00\n        /* \"#utility.yul\":7826:7916   */\n      tag_184\n        /* \"#utility.yul\":7912:7915   */\n      dup4\n        /* \"#utility.yul\":7904:7910   */\n      dup4\n        /* \"#utility.yul\":7826:7916   */\n      tag_82\n      jump\t// in\n    tag_184:\n        /* \"#utility.yul\":7812:7916   */\n      swap1\n      pop\n        /* \"#utility.yul\":7678:7922   */\n      swap3\n      swap2\n      pop\n      pop\n      jump\t// out\n        /* \"#utility.yul\":7928:8062   */\n    tag_84:\n        /* \"#utility.yul\":8019:8023   */\n      0x00\n        /* \"#utility.yul\":8051:8055   */\n      0x20\n        /* \"#utility.yul\":8046:8049   */\n      dup3\n        /* \"#utility.yul\":8042:8056   */\n      add\n        /* \"#utility.yul\":8034:8056   */\n      swap1\n      pop\n        /* \"#utility.yul\":7928:8062   */\n      swap2\n      swap1\n      pop\n      jump\t// out\n        /* \"#utility.yul\":8138:9219   */\n    tag_85:\n        /* \"#utility.yul\":8299:8302   */\n      0x00\n        /* \"#utility.yul\":8328:8403   */\n      tag_187\n        /* \"#utility.yul\":8397:8402   */\n      dup3\n        /* \"#utility.yul\":8328:8403   */\n      tag_76\n      jump\t// in\n    tag_187:\n        /* \"#utility.yul\":8419:8526   */\n      tag_188\n        /* \"#utility.yul\":8519:8525   */\n      dup2\n        /* \"#utility.yul\":8514:8517   */\n      dup6\n        /* \"#utility.yul\":8419:8526   */\n      tag_77\n      jump\t// in\n    tag_188:\n        /* \"#utility.yul\":8412:8526   */\n      swap4\n      pop\n        /* \"#utility.yul\":8552:8555   */\n      dup4\n        /* \"#utility.yul\":8597:8601   */\n      0x20\n        /* \"#utility.yul\":8589:8595   */\n      dup3\n        /* \"#utility.yul\":8585:8602   */\n      mul\n        /* \"#utility.yul\":8580:8583   */\n      dup6\n        /* \"#utility.yul\":8576:8603   */\n      add\n        /* \"#utility.yul\":8627:8704   */\n      tag_189\n        /* \"#utility.yul\":8698:8703   */\n      dup6\n        /* \"#utility.yul\":8627:8704   */\n      tag_78\n      jump\t// in\n    tag_189:\n        /* \"#utility.yul\":8727:8734   */\n      dup1\n        /* \"#utility.yul\":8758:8759   */\n      0x00\n        /* \"#utility.yul\":8743:9174   */\n    tag_190:\n        /* \"#utility.yul\":8768:8774   */\n      dup6\n        /* \"#utility.yul\":8765:8766   */\n      dup2\n        /* \"#utility.yul\":8762:8775   */\n      lt\n        /* \"#utility.yul\":8743:9174   */\n      iszero\n      tag_192\n      jumpi\n        /* \"#utility.yul\":8839:8848   */\n      dup5\n        /* \"#utility.yul\":8833:8837   */\n      dup5\n        /* \"#utility.yul\":8829:8849   */\n      sub\n        /* \"#utility.yul\":8824:8827   */\n      dup10\n        /* \"#utility.yul\":8817:8850   */\n      mstore\n        /* \"#utility.yul\":8890:8896   */\n      dup2\n        /* \"#utility.yul\":8884:8897   */\n      mload\n        /* \"#utility.yul\":8918:9026   */\n      tag_193\n        /* \"#utility.yul\":9021:9025   */\n      dup6\n        /* \"#utility.yul\":9006:9019   */\n      dup3\n        /* \"#utility.yul\":8918:9026   */\n      tag_83\n      jump\t// in\n    tag_193:\n        /* \"#utility.yul\":8910:9026   */\n      swap5\n      pop\n        /* \"#utility.yul\":9049:9130   */\n      tag_194\n        /* \"#utility.yul\":9123:9129   */\n      dup4\n        /* \"#utility.yul\":9049:9130   */\n      tag_84\n      jump\t// in\n    tag_194:\n        /* \"#utility.yul\":9039:9130   */\n      swap3\n      pop\n        /* \"#utility.yul\":9159:9163   */\n      0x20\n        /* \"#utility.yul\":9154:9157   */\n      dup11\n        /* \"#utility.yul\":9150:9164   */\n      add\n        /* \"#utility.yul\":9143:9164   */\n      swap10\n      pop\n        /* \"#utility.yul\":8803:9174   */\n      pop\n        /* \"#utility.yul\":8790:8791   */\n      0x01\n        /* \"#utility.yul\":8787:8788   */\n      dup2\n        /* \"#utility.yul\":8783:8792   */\n      add\n        /* \"#utility.yul\":8778:8792   */\n      swap1\n      pop\n        /* \"#utility.yul\":8743:9174   */\n      jump(tag_190)\n    tag_192:\n        /* \"#utility.yul\":8747:8761   */\n      pop\n        /* \"#utility.yul\":9190:9194   */\n      dup3\n        /* \"#utility.yul\":9183:9194   */\n      swap8\n      pop\n        /* \"#utility.yul\":9210:9213   */\n      dup8\n        /* \"#utility.yul\":9203:9213   */\n      swap6\n      pop\n        /* \"#utility.yul\":8304:9219   */\n      pop\n      pop\n      pop\n      pop\n      pop\n        /* \"#utility.yul\":8138:9219   */\n      swap3\n      swap2\n      pop\n      pop\n      jump\t// out\n        /* \"#utility.yul\":9225:9682   */\n    tag_19:\n        /* \"#utility.yul\":9410:9414   */\n      0x00\n        /* \"#utility.yul\":9448:9450   */\n      0x20\n        /* \"#utility.yul\":9437:9446   */\n      dup3\n        /* \"#utility.yul\":9433:9451   */\n      add\n        /* \"#utility.yul\":9425:9451   */\n      swap1\n      pop\n        /* \"#utility.yul\":9497:9506   */\n      dup2\n        /* \"#utility.yul\":9491:9495   */\n      dup2\n        /* \"#utility.yul\":9487:9507   */\n      sub\n        /* \"#utility.yul\":9483:9484   */\n      0x00\n        /* \"#utility.yul\":9472:9481   */\n      dup4\n        /* \"#utility.yul\":9468:9485   */\n      add\n        /* \"#utility.yul\":9461:9508   */\n      mstore\n        /* \"#utility.yul\":9525:9675   */\n      tag_196\n        /* \"#utility.yul\":9670:9674   */\n      dup2\n        /* \"#utility.yul\":9661:9667   */\n      dup5\n        /* \"#utility.yul\":9525:9675   */\n      tag_85\n      jump\t// in\n    tag_196:\n        /* \"#utility.yul\":9517:9675   */\n      swap1\n      pop\n        /* \"#utility.yul\":9225:9682   */\n      swap3\n      swap2\n      pop\n      pop\n      jump\t// out\n        /* \"#utility.yul\":9688:9868   */\n    tag_23:\n        /* \"#utility.yul\":9736:9813   */\n      0x4e487b7100000000000000000000000000000000000000000000000000000000\n        /* \"#utility.yul\":9733:9734   */\n      0x00\n        /* \"#utility.yul\":9726:9814   */\n      mstore\n        /* \"#utility.yul\":9833:9837   */\n      0x32\n        /* \"#utility.yul\":9830:9831   */\n      0x04\n        /* \"#utility.yul\":9823:9838   */\n      mstore\n        /* \"#utility.yul\":9857:9861   */\n      0x24\n        /* \"#utility.yul\":9854:9855   */\n      0x00\n        /* \"#utility.yul\":9847:9862   */\n      revert\n        /* \"#utility.yul\":9874:10054   */\n    tag_86:\n        /* \"#utility.yul\":9922:9999   */\n      0x4e487b7100000000000000000000000000000000000000000000000000000000\n        /* \"#utility.yul\":9919:9920   */\n      0x00\n        /* \"#utility.yul\":9912:10000   */\n      mstore\n        /* \"#utility.yul\":10019:10023   */\n      0x22\n        /* \"#utility.yul\":10016:10017   */\n      0x04\n        /* \"#utility.yul\":10009:10024   */\n      mstore\n        /* \"#utility.yul\":10043:10047   */\n      0x24\n        /* \"#utility.yul\":10040:10041   */\n      0x00\n        /* \"#utility.yul\":10033:10048   */\n      revert\n        /* \"#utility.yul\":10060:10380   */\n    tag_36:\n        /* \"#utility.yul\":10104:10110   */\n      0x00\n        /* \"#utility.yul\":10141:10142   */\n      0x02\n        /* \"#utility.yul\":10135:10139   */\n      dup3\n        /* \"#utility.yul\":10131:10143   */\n      div\n        /* \"#utility.yul\":10121:10143   */\n      swap1\n      pop\n        /* \"#utility.yul\":10188:10189   */\n      0x01\n        /* \"#utility.yul\":10182:10186   */\n      dup3\n        /* \"#utility.yul\":10178:10190   */\n      and\n        /* \"#utility.yul\":10209:10227   */\n      dup1\n        /* \"#utility.yul\":10199:10280   */\n      tag_200\n      jumpi\n        /* \"#utility.yul\":10265:10269   */\n      0x7f\n        /* \"#utility.yul\":10257:10263   */\n      dup3\n        /* \"#utility.yul\":10253:10270   */\n      and\n        /* \"#utility.yul\":10243:10270   */\n      swap2\n      pop\n        /* \"#utility.yul\":10199:10280   */\n    tag_200:\n        /* \"#utility.yul\":10327:10329   */\n      0x20\n        /* \"#utility.yul\":10319:10325   */\n      dup3\n        /* \"#utility.yul\":10316:10330   */\n      lt\n        /* \"#utility.yul\":10296:10314   */\n      dup2\n        /* \"#utility.yul\":10293:10331   */\n      sub\n        /* \"#utility.yul\":10290:10374   */\n      tag_201\n      jumpi\n        /* \"#utility.yul\":10346:10364   */\n      tag_202\n      tag_86\n      jump\t// in\n    tag_202:\n        /* \"#utility.yul\":10290:10374   */\n    tag_201:\n        /* \"#utility.yul\":10111:10380   */\n      pop\n        /* \"#utility.yul\":10060:10380   */\n      swap2\n      swap1\n      pop\n      jump\t// out\n        /* \"#utility.yul\":10386:10527   */\n    tag_87:\n        /* \"#utility.yul\":10435:10439   */\n      0x00\n        /* \"#utility.yul\":10458:10461   */\n      dup2\n        /* \"#utility.yul\":10450:10461   */\n      swap1\n      pop\n        /* \"#utility.yul\":10481:10484   */\n      dup2\n        /* \"#utility.yul\":10478:10479   */\n      0x00\n        /* \"#utility.yul\":10471:10485   */\n      mstore\n        /* \"#utility.yul\":10515:10519   */\n      0x20\n        /* \"#utility.yul\":10512:10513   */\n      0x00\n        /* \"#utility.yul\":10502:10520   */\n      keccak256\n        /* \"#utility.yul\":10494:10520   */\n      swap1\n      pop\n        /* \"#utility.yul\":10386:10527   */\n      swap2\n      swap1\n      pop\n      jump\t// out\n        /* \"#utility.yul\":10533:10626   */\n    tag_88:\n        /* \"#utility.yul\":10570:10576   */\n      0x00\n        /* \"#utility.yul\":10617:10619   */\n      0x20\n        /* \"#utility.yul\":10612:10614   */\n      0x1f\n        /* \"#utility.yul\":10605:10610   */\n      dup4\n        /* \"#utility.yul\":10601:10615   */\n      add\n        /* \"#utility.yul\":10597:10620   */\n      div\n        /* \"#utility.yul\":10587:10620   */\n      swap1\n      pop\n        /* \"#utility.yul\":10533:10626   */\n      swap2\n      swap1\n      pop\n      jump\t// out\n        /* \"#utility.yul\":10632:10739   */\n    tag_89:\n        /* \"#utility.yul\":10676:10684   */\n      0x00\n        /* \"#utility.yul\":10726:10731   */\n      dup3\n        /* \"#utility.yul\":10720:10724   */\n      dup3\n        /* \"#utility.yul\":10716:10732   */\n      shl\n        /* \"#utility.yul\":10695:10732   */\n      swap1\n      pop\n        /* \"#utility.yul\":10632:10739   */\n      swap3\n      swap2\n      pop\n      pop\n      jump\t// out\n        /* \"#utility.yul\":10745:11138   */\n    tag_90:\n        /* \"#utility.yul\":10814:10820   */\n      0x00\n        /* \"#utility.yul\":10864:10865   */\n      0x08\n        /* \"#utility.yul\":10852:10862   */\n      dup4\n        /* \"#utility.yul\":10848:10866   */\n      mul\n        /* \"#utility.yul\":10887:10984   */\n      tag_207\n        /* \"#utility.yul\":10917:10983   */\n      0xffffffffffffffffffffffffffffffffffffffffffffffffffffffffffffffff\n        /* \"#utility.yul\":10906:10915   */\n      dup3\n        /* \"#utility.yul\":10887:10984   */\n      tag_89\n      jump\t// in\n    tag_207:\n        /* \"#utility.yul\":11005:11044   */\n      tag_208\n        /* \"#utility.yul\":11035:11043   */\n      dup7\n        /* \"#utility.yul\":11024:11033   */\n      dup4\n        /* \"#utility.yul\":11005:11044   */\n      tag_89\n      jump\t// in\n    tag_208:\n        /* \"#utility.yul\":10993:11044   */\n      swap6\n      pop\n        /* \"#utility.yul\":11077:11081   */\n      dup1\n        /* \"#utility.yul\":11073:11082   */\n      not\n        /* \"#utility.yul\":11066:11071   */\n      dup5\n        /* \"#utility.yul\":11062:11083   */\n      and\n        /* \"#utility.yul\":11053:11083   */\n      swap4\n      pop\n        /* \"#utility.yul\":11126:11130   */\n      dup1\n        /* \"#utility.yul\":11116:11124   */\n      dup7\n        /* \"#utility.yul\":11112:11131   */\n      and\n        /* \"#utility.yul\":11105:11110   */\n      dup5\n        /* \"#utility.yul\":11102:11132   */\n      or\n        /* \"#utility.yul\":11092:11132   */\n      swap3\n      pop\n        /* \"#utility.yul\":10821:11138   */\n      pop\n      pop\n        /* \"#utility.yul\":10745:11138   */\n      swap4\n      swap3\n      pop\n      pop\n      pop\n      jump\t// out\n        /* \"#utility.yul\":11144:11204   */\n    tag_91:\n        /* \"#utility.yul\":11172:11175   */\n      0x00\n        /* \"#utility.yul\":11193:11198   */\n      dup2\n        /* \"#utility.yul\":11186:11198   */\n      swap1\n      pop\n        /* \"#utility.yul\":11144:11204   */\n      swap2\n      swap1\n      pop\n      jump\t// out\n        /* \"#utility.yul\":11210:11352   */\n    tag_92:\n        /* \"#utility.yul\":11260:11269   */\n      0x00\n        /* \"#utility.yul\":11293:11346   */\n      tag_211\n        /* \"#utility.yul\":11311:11345   */\n      tag_212\n        /* \"#utility.yul\":11320:11344   */\n      tag_213\n        /* \"#utility.yul\":11338:11343   */\n      dup5\n        /* \"#utility.yul\":11320:11344   */\n      tag_58\n      jump\t// in\n    tag_213:\n        /* \"#utility.yul\":11311:11345   */\n      tag_91\n      jump\t// in\n    tag_212:\n        /* \"#utility.yul\":11293:11346   */\n      tag_58\n      jump\t// in\n    tag_211:\n        /* \"#utility.yul\":11280:11346   */\n      swap1\n      pop\n        /* \"#utility.yul\":11210:11352   */\n      swap2\n      swap1\n      pop\n      jump\t// out\n        /* \"#utility.yul\":11358:11433   */\n    tag_93:\n        /* \"#utility.yul\":11401:11404   */\n      0x00\n        /* \"#utility.yul\":11422:11427   */\n      dup2\n        /* \"#utility.yul\":11415:11427   */\n      swap1\n      pop\n        /* \"#utility.yul\":11358:11433   */\n      swap2\n      swap1\n      pop\n      jump\t// out\n        /* \"#utility.yul\":11439:11708   */\n    tag_94:\n        /* \"#utility.yul\":11549:11588   */\n      tag_216\n        /* \"#utility.yul\":11580:11587   */\n      dup4\n        /* \"#utility.yul\":11549:11588   */\n      tag_92\n      jump\t// in\n    tag_216:\n        /* \"#utility.yul\":11610:11701   */\n      tag_217\n        /* \"#utility.yul\":11659:11700   */\n      tag_218\n        /* \"#utility.yul\":11683:11699   */\n      dup3\n        /* \"#utility.yul\":11659:11700   */\n      tag_93\n      jump\t// in\n    tag_218:\n        /* \"#utility.yul\":11651:11657   */\n      dup5\n        /* \"#utility.yul\":11644:11648   */\n      dup5\n        /* \"#utility.yul\":11638:11649   */\n      sload\n        /* \"#utility.yul\":11610:11701   */\n      tag_90\n      jump\t// in\n    tag_217:\n        /* \"#utility.yul\":11604:11608   */\n      dup3\n        /* \"#utility.yul\":11597:11702   */\n      sstore\n        /* \"#utility.yul\":11515:11708   */\n      pop\n        /* \"#utility.yul\":11439:11708   */\n      pop\n      pop\n      pop\n      jump\t// out\n        /* \"#utility.yul\":11714:11787   */\n    tag_95:\n        /* \"#utility.yul\":11759:11762   */\n      0x00\n        /* \"#utility.yul\":11714:11787   */\n      swap1\n      jump\t// out\n        /* \"#utility.yul\":11793:11982   */\n    tag_96:\n        /* \"#utility.yul\":11870:11902   */\n      tag_221\n      tag_95\n      jump\t// in\n    tag_221:\n        /* \"#utility.yul\":11911:11976   */\n      tag_222\n        /* \"#utility.yul\":11969:11975   */\n      dup2\n        /* \"#utility.yul\":11961:11967   */\n      dup5\n        /* \"#utility.yul\":11955:11959   */\n      dup5\n        /* \"#utility.yul\":11911:11976   */\n      tag_94\n      jump\t// in\n    tag_222:\n        /* \"#utility.yul\":11846:11982   */\n      pop\n        /* \"#utility.yul\":11793:11982   */\n      pop\n      pop\n      jump\t// out\n        /* \"#utility.yul\":11988:12174   */\n    tag_97:\n        /* \"#utility.yul\":12048:12168   */\n    tag_224:\n        /* \"#utility.yul\":12065:12068   */\n      dup2\n        /* \"#utility.yul\":12058:12063   */\n      dup2\n        /* \"#utility.yul\":12055:12069   */\n      lt\n        /* \"#utility.yul\":12048:12168   */\n      iszero\n      tag_226\n      jumpi\n        /* \"#utility.yul\":12119:12158   */\n      tag_227\n        /* \"#utility.yul\":12156:12157   */\n      0x00\n        /* \"#utility.yul\":12149:12154   */\n      dup3\n        /* \"#utility.yul\":12119:12158   */\n      tag_96\n      jump\t// in\n    tag_227:\n        /* \"#utility.yul\":12092:12093   */\n      0x01\n        /* \"#utility.yul\":12085:12090   */\n      dup2\n        /* \"#utility.yul\":12081:12094   */\n      add\n        /* \"#utility.yul\":12072:12094   */\n      swap1\n      pop\n        /* \"#utility.yul\":12048:12168   */\n      jump(tag_224)\n    tag_226:\n        /* \"#utility.yul\":11988:12174   */\n      pop\n      pop\n      jump\t// out\n        /* \"#utility.yul\":12180:12723   */\n    tag_98:\n        /* \"#utility.yul\":12281:12283   */\n      0x1f\n        /* \"#utility.yul\":12276:12279   */\n      dup3\n        /* \"#utility.yul\":12273:12284   */\n      gt\n        /* \"#utility.yul\":12270:12716   */\n      iszero\n      tag_229\n      jumpi\n        /* \"#utility.yul\":12315:12353   */\n      tag_230\n        /* \"#utility.yul\":12347:12352   */\n      dup2\n        /* \"#utility.yul\":12315:12353   */\n      tag_87\n      jump\t// in\n    tag_230:\n        /* \"#utility.yul\":12399:12428   */\n      tag_231\n        /* \"#utility.yul\":12417:12427   */\n      dup5\n        /* \"#utility.yul\":12399:12428   */\n      tag_88\n      jump\t// in\n    tag_231:\n        /* \"#utility.yul\":12389:12397   */\n      dup2\n        /* \"#utility.yul\":12385:12429   */\n      add\n        /* \"#utility.yul\":12582:12584   */\n      0x20\n        /* \"#utility.yul\":12570:12580   */\n      dup6\n        /* \"#utility.yul\":12567:12585   */\n      lt\n        /* \"#utility.yul\":12564:12613   */\n      iszero\n      tag_232\n      jumpi\n        /* \"#utility.yul\":12603:12611   */\n      dup2\n        /* \"#utility.yul\":12588:12611   */\n      swap1\n      pop\n        /* \"#utility.yul\":12564:12613   */\n    tag_232:\n        /* \"#utility.yul\":12626:12706   */\n      tag_233\n        /* \"#utility.yul\":12682:12704   */\n      tag_234\n        /* \"#utility.yul\":12700:12703   */\n      dup6\n        /* \"#utility.yul\":12682:12704   */\n      tag_88\n      jump\t// in\n    tag_234:\n        /* \"#utility.yul\":12672:12680   */\n      dup4\n        /* \"#utility.yul\":12668:12705   */\n      add\n        /* \"#utility.yul\":12655:12666   */\n      dup3\n        /* \"#utility.yul\":12626:12706   */\n      tag_97\n      jump\t// in\n    tag_233:\n        /* \"#utility.yul\":12285:12716   */\n      pop\n      pop\n        /* \"#utility.yul\":12270:12716   */\n    tag_229:\n        /* \"#utility.yul\":12180:12723   */\n      pop\n      pop\n      pop\n      jump\t// out\n        /* \"#utility.yul\":12729:12846   */\n    tag_99:\n        /* \"#utility.yul\":12783:12791   */\n      0x00\n        /* \"#utility.yul\":12833:12838   */\n      dup3\n        /* \"#utility.yul\":12827:12831   */\n      dup3\n        /* \"#utility.yul\":12823:12839   */\n      shr\n        /* \"#utility.yul\":12802:12839   */\n      swap1\n      pop\n        /* \"#utility.yul\":12729:12846   */\n      swap3\n      swap2\n      pop\n      pop\n      jump\t// out\n        /* \"#utility.yul\":12852:13021   */\n    tag_100:\n        /* \"#utility.yul\":12896:12902   */\n      0x00\n        /* \"#utility.yul\":12929:12980   */\n      tag_237\n        /* \"#utility.yul\":12977:12978   */\n      0x00\n        /* \"#utility.yul\":12973:12979   */\n      not\n        /* \"#utility.yul\":12965:12970   */\n      dup5\n        /* \"#utility.yul\":12962:12963   */\n      0x08\n        /* \"#utility.yul\":12958:12971   */\n      mul\n        /* \"#utility.yul\":12929:12980   */\n      tag_99\n      jump\t// in\n    tag_237:\n        /* \"#utility.yul\":12925:12981   */\n      not\n        /* \"#utility.yul\":13010:13014   */\n      dup1\n        /* \"#utility.yul\":13004:13008   */\n      dup4\n        /* \"#utility.yul\":13000:13015   */\n      and\n        /* \"#utility.yul\":12990:13015   */\n      swap2\n      pop\n        /* \"#utility.yul\":12903:13021   */\n      pop\n        /* \"#utility.yul\":12852:13021   */\n      swap3\n      swap2\n      pop\n      pop\n      jump\t// out\n        /* \"#utility.yul\":13026:13321   */\n    tag_101:\n        /* \"#utility.yul\":13102:13106   */\n      0x00\n        /* \"#utility.yul\":13248:13277   */\n      tag_239\n        /* \"#utility.yul\":13273:13276   */\n      dup4\n        /* \"#utility.yul\":13267:13271   */\n      dup4\n        /* \"#utility.yul\":13248:13277   */\n      tag_100\n      jump\t// in\n    tag_239:\n        /* \"#utility.yul\":13240:13277   */\n      swap2\n      pop\n        /* \"#utility.yul\":13310:13313   */\n      dup3\n        /* \"#utility.yul\":13307:13308   */\n      0x02\n        /* \"#utility.yul\":13303:13314   */\n      mul\n        /* \"#utility.yul\":13297:13301   */\n      dup3\n        /* \"#utility.yul\":13294:13315   */\n      or\n        /* \"#utility.yul\":13286:13315   */\n      swap1\n      pop\n        /* \"#utility.yul\":13026:13321   */\n      swap3\n      swap2\n      pop\n      pop\n      jump\t// out\n        /* \"#utility.yul\":13326:14721   */\n    tag_26:\n        /* \"#utility.yul\":13443:13480   */\n      tag_241\n        /* \"#utility.yul\":13476:13479   */\n      dup3\n        /* \"#utility.yul\":13443:13480   */\n      tag_71\n      jump\t// in\n    tag_241:\n        /* \"#utility.yul\":13545:13563   */\n      0xffffffffffffffff\n        /* \"#utility.yul\":13537:13543   */\n      dup2\n        /* \"#utility.yul\":13534:13564   */\n      gt\n        /* \"#utility.yul\":13531:13587   */\n      iszero\n      tag_242\n      jumpi\n        /* \"#utility.yul\":13567:13585   */\n      tag_243\n      tag_64\n      jump\t// in\n    tag_243:\n        /* \"#utility.yul\":13531:13587   */\n    tag_242:\n        /* \"#utility.yul\":13611:13649   */\n      tag_244\n        /* \"#utility.yul\":13643:13647   */\n      dup3\n        /* \"#utility.yul\":13637:13648   */\n      sload\n        /* \"#utility.yul\":13611:13649   */\n      tag_36\n      jump\t// in\n    tag_244:\n        /* \"#utility.yul\":13696:13763   */\n      tag_245\n        /* \"#utility.yul\":13756:13762   */\n      dup3\n        /* \"#utility.yul\":13748:13754   */\n      dup3\n        /* \"#utility.yul\":13742:13746   */\n      dup6\n        /* \"#utility.yul\":13696:13763   */\n      tag_98\n      jump\t// in\n    tag_245:\n        /* \"#utility.yul\":13790:13791   */\n      0x00\n        /* \"#utility.yul\":13814:13818   */\n      0x20\n        /* \"#utility.yul\":13801:13818   */\n      swap1\n      pop\n        /* \"#utility.yul\":13846:13848   */\n      0x1f\n        /* \"#utility.yul\":13838:13844   */\n      dup4\n        /* \"#utility.yul\":13835:13849   */\n      gt\n        /* \"#utility.yul\":13863:13864   */\n      0x01\n        /* \"#utility.yul\":13858:14476   */\n      dup2\n      eq\n      tag_247\n      jumpi\n        /* \"#utility.yul\":14520:14521   */\n      0x00\n        /* \"#utility.yul\":14537:14543   */\n      dup5\n        /* \"#utility.yul\":14534:14611   */\n      iszero\n      tag_248\n      jumpi\n        /* \"#utility.yul\":14586:14595   */\n      dup3\n        /* \"#utility.yul\":14581:14584   */\n      dup8\n        /* \"#utility.yul\":14577:14596   */\n      add\n        /* \"#utility.yul\":14571:14597   */\n      mload\n        /* \"#utility.yul\":14562:14597   */\n      swap1\n      pop\n        /* \"#utility.yul\":14534:14611   */\n    tag_248:\n        /* \"#utility.yul\":14637:14704   */\n      tag_249\n        /* \"#utility.yul\":14697:14703   */\n      dup6\n        /* \"#utility.yul\":14690:14695   */\n      dup3\n        /* \"#utility.yul\":14637:14704   */\n      tag_101\n      jump\t// in\n    tag_249:\n        /* \"#utility.yul\":14631:14635   */\n      dup7\n        /* \"#utility.yul\":14624:14705   */\n      sstore\n        /* \"#utility.yul\":14493:14715   */\n      pop\n        /* \"#utility.yul\":13828:14715   */\n      jump(tag_246)\n        /* \"#utility.yul\":13858:14476   */\n    tag_247:\n        /* \"#utility.yul\":13910:13914   */\n      0x1f\n        /* \"#utility.yul\":13906:13915   */\n      not\n        /* \"#utility.yul\":13898:13904   */\n      dup5\n        /* \"#utility.yul\":13894:13916   */\n      and\n        /* \"#utility.yul\":13944:13981   */\n      tag_250\n        /* \"#utility.yul\":13976:13980   */\n      dup7\n        /* \"#utility.yul\":13944:13981   */\n      tag_87\n      jump\t// in\n    tag_250:\n        /* \"#utility.yul\":14003:14004   */\n      0x00\n        /* \"#utility.yul\":14017:14225   */\n    tag_251:\n        /* \"#utility.yul\":14031:14038   */\n      dup3\n        /* \"#utility.yul\":14028:14029   */\n      dup2\n        /* \"#utility.yul\":14025:14039   */\n      lt\n        /* \"#utility.yul\":14017:14225   */\n      iszero\n      tag_253\n      jumpi\n        /* \"#utility.yul\":14110:14119   */\n      dup5\n        /* \"#utility.yul\":14105:14108   */\n      dup10\n        /* \"#utility.yul\":14101:14120   */\n      add\n        /* \"#utility.yul\":14095:14121   */\n      mload\n        /* \"#utility.yul\":14087:14093   */\n      dup3\n        /* \"#utility.yul\":14080:14122   */\n      sstore\n        /* \"#utility.yul\":14161:14162   */\n      0x01\n        /* \"#utility.yul\":14153:14159   */\n      dup3\n        /* \"#utility.yul\":14149:14163   */\n      add\n        /* \"#utility.yul\":14139:14163   */\n      swap2\n      pop\n        /* \"#utility.yul\":14208:14210   */\n      0x20\n        /* \"#utility.yul\":14197:14206   */\n      dup6\n        /* \"#utility.yul\":14193:14211   */\n      add\n        /* \"#utility.yul\":14180:14211   */\n      swap5\n      pop\n        /* \"#utility.yul\":14054:14058   */\n      0x20\n        /* \"#utility.yul\":14051:14052   */\n      dup2\n        /* \"#utility.yul\":14047:14059   */\n      add\n        /* \"#utility.yul\":14042:14059   */\n      swap1\n      pop\n        /* \"#utility.yul\":14017:14225   */\n      jump(tag_251)\n    tag_253:\n        /* \"#utility.yul\":14253:14259   */\n      dup7\n        /* \"#utility.yul\":14244:14251   */\n      dup4\n        /* \"#utility.yul\":14241:14260   */\n      lt\n        /* \"#utility.yul\":14238:14417   */\n      iszero\n      tag_254\n      jumpi\n        /* \"#utility.yul\":14311:14320   */\n      dup5\n        /* \"#utility.yul\":14306:14309   */\n      dup10\n        /* \"#utility.yul\":14302:14321   */\n      add\n        /* \"#utility.yul\":14296:14322   */\n      mload\n        /* \"#utility.yul\":14354:14402   */\n      tag_255\n        /* \"#utility.yul\":14396:14400   */\n      0x1f\n        /* \"#utility.yul\":14388:14394   */\n      dup10\n        /* \"#utility.yul\":14384:14401   */\n      and\n        /* \"#utility.yul\":14373:14382   */\n      dup3\n        /* \"#utility.yul\":14354:14402   */\n      tag_100\n      jump\t// in\n    tag_255:\n        /* \"#utility.yul\":14346:14352   */\n      dup4\n        /* \"#utility.yul\":14339:14403   */\n      sstore\n        /* \"#utility.yul\":14261:14417   */\n      pop\n        /* \"#utility.yul\":14238:14417   */\n    tag_254:\n        /* \"#utility.yul\":14463:14464   */\n      0x01\n        /* \"#utility.yul\":14459:14460   */\n      0x02\n        /* \"#utility.yul\":14451:14457   */\n      dup9\n        /* \"#utility.yul\":14447:14461   */\n      mul\n        /* \"#utility.yul\":14443:14465   */\n      add\n        /* \"#utility.yul\":14437:14441   */\n      dup9\n        /* \"#utility.yul\":14430:14466   */\n      sstore\n        /* \"#utility.yul\":13865:14476   */\n      pop\n      pop\n      pop\n        /* \"#utility.yul\":13828:14715   */\n    tag_246:\n      pop\n        /* \"#utility.yul\":13418:14721   */\n      pop\n      pop\n      pop\n        /* \"#utility.yul\":13326:14721   */\n      pop\n      pop\n      jump\t// out\n\n    auxdata: 0xa264697066735822122015a28e0018703949988dbcdd9521cffa8785f8129bce1d4838e142002a1a06ff64736f6c63430008120033\n}\n",
				"bytecode": {
					"linkReferences": {},
					"object": "608060405234801561001057600080fd5b50610af0806100206000396000f3fe608060405234801561001057600080fd5b50600436106100415760003560e01c80631052392414610046578063448a8e1e14610062578063b47d89ad14610094575b600080fd5b610060600480360381019061005b91906104b0565b6100b2565b005b61007c60048036038101906100779190610533565b610121565b60405161008b939291906105ee565b60405180910390f35b61009c6101d9565b6040516100a9919061078b565b60405180910390f35b82600085600a81106100c7576100c66107ad565b5b6003020160000190816100da91906109e8565b5081600085600a81106100f0576100ef6107ad565b5b600302016001018190555080600085600a81106101105761010f6107ad565b5b600302016002018190555050505050565b600081600a811061013157600080fd5b6003020160009150905080600001805461014a9061080b565b80601f01602080910402602001604051908101604052809291908181526020018280546101769061080b565b80156101c35780601f10610198576101008083540402835291602001916101c3565b820191906000526020600020905b8154815290600101906020018083116101a657829003601f168201915b5050505050908060010154908060020154905083565b6101e16102d1565b6000600a80602002604051908101604052809291906000905b828210156102c8578382600302016040518060600160405290816000820180546102239061080b565b80601f016020809104026020016040519081016040528092919081815260200182805461024f9061080b565b801561029c5780601f106102715761010080835404028352916020019161029c565b820191906000526020600020905b81548152906001019060200180831161027f57829003601f168201915b5050505050815260200160018201548152602001600282015481525050815260200190600101906101fa565b50505050905090565b604051806101400160405280600a905b6102e96102ff565b8152602001906001900390816102e15790505090565b60405180606001604052806060815260200160008152602001600081525090565b6000604051905090565b600080fd5b600080fd5b6000819050919050565b61034781610334565b811461035257600080fd5b50565b6000813590506103648161033e565b92915050565b600080fd5b600080fd5b6000601f19601f8301169050919050565b7f4e487b7100000000000000000000000000000000000000000000000000000000600052604160045260246000fd5b6103bd82610374565b810181811067ffffffffffffffff821117156103dc576103db610385565b5b80604052505050565b60006103ef610320565b90506103fb82826103b4565b919050565b600067ffffffffffffffff82111561041b5761041a610385565b5b61042482610374565b9050602081019050919050565b82818337600083830152505050565b600061045361044e84610400565b6103e5565b90508281526020810184848401111561046f5761046e61036f565b5b61047a848285610431565b509392505050565b600082601f8301126104975761049661036a565b5b81356104a7848260208601610440565b91505092915050565b600080600080608085870312156104ca576104c961032a565b5b60006104d887828801610355565b945050602085013567ffffffffffffffff8111156104f9576104f861032f565b5b61050587828801610482565b935050604061051687828801610355565b925050606061052787828801610355565b91505092959194509250565b6000602082840312156105495761054861032a565b5b600061055784828501610355565b91505092915050565b600081519050919050565b600082825260208201905092915050565b60005b8381101561059a57808201518184015260208101905061057f565b60008484015250505050565b60006105b182610560565b6105bb818561056b565b93506105cb81856020860161057c565b6105d481610374565b840191505092915050565b6105e881610334565b82525050565b6000606082019050818103600083015261060881866105a6565b905061061760208301856105df565b61062460408301846105df565b949350505050565b6000600a9050919050565b600081905092915050565b6000819050919050565b600082825260208201905092915050565b600061066882610560565b610672818561064c565b935061068281856020860161057c565b61068b81610374565b840191505092915050565b61069f81610334565b82525050565b600060608301600083015184820360008601526106c2828261065d565b91505060208301516106d76020860182610696565b5060408301516106ea6040860182610696565b508091505092915050565b600061070183836106a5565b905092915050565b6000602082019050919050565b60006107218261062c565b61072b8185610637565b93508360208202850161073d85610642565b8060005b85811015610779578484038952815161075a85826106f5565b945061076583610709565b925060208a01995050600181019050610741565b50829750879550505050505092915050565b600060208201905081810360008301526107a58184610716565b905092915050565b7f4e487b7100000000000000000000000000000000000000000000000000000000600052603260045260246000fd5b7f4e487b7100000000000000000000000000000000000000000000000000000000600052602260045260246000fd5b6000600282049050600182168061082357607f821691505b602082108103610836576108356107dc565b5b50919050565b60008190508160005260206000209050919050565b60006020601f8301049050919050565b600082821b905092915050565b60006008830261089e7fffffffffffffffffffffffffffffffffffffffffffffffffffffffffffffffff82610861565b6108a88683610861565b95508019841693508086168417925050509392505050565b6000819050919050565b60006108e56108e06108db84610334565b6108c0565b610334565b9050919050565b6000819050919050565b6108ff836108ca565b61091361090b826108ec565b84845461086e565b825550505050565b600090565b61092861091b565b6109338184846108f6565b505050565b5b818110156109575761094c600082610920565b600181019050610939565b5050565b601f82111561099c5761096d8161083c565b61097684610851565b81016020851015610985578190505b61099961099185610851565b830182610938565b50505b505050565b600082821c905092915050565b60006109bf600019846008026109a1565b1980831691505092915050565b60006109d883836109ae565b9150826002028217905092915050565b6109f182610560565b67ffffffffffffffff811115610a0a57610a09610385565b5b610a14825461080b565b610a1f82828561095b565b600060209050601f831160018114610a525760008415610a40578287015190505b610a4a85826109cc565b865550610ab2565b601f198416610a608661083c565b60005b82811015610a8857848901518255600182019150602085019450602081019050610a63565b86831015610aa55784890151610aa1601f8916826109ae565b8355505b6001600288020188555050505b50505050505056fea264697066735822122015a28e0018703949988dbcdd9521cffa8785f8129bce1d4838e142002a1a06ff64736f6c63430008120033",
					"opcodes": "PUSH1 0x80 PUSH1 0x40 MSTORE CALLVALUE DUP1 ISZERO PUSH2 0x10 JUMPI PUSH1 0x0 DUP1 REVERT JUMPDEST POP PUSH2 0xAF0 DUP1 PUSH2 0x20 PUSH1 0x0 CODECOPY PUSH1 0x0 RETURN INVALID PUSH1 0x80 PUSH1 0x40 MSTORE CALLVALUE DUP1 ISZERO PUSH2 0x10 JUMPI PUSH1 0x0 DUP1 REVERT JUMPDEST POP PUSH1 0x4 CALLDATASIZE LT PUSH2 0x41 JUMPI PUSH1 0x0 CALLDATALOAD PUSH1 0xE0 SHR DUP1 PUSH4 0x10523924 EQ PUSH2 0x46 JUMPI DUP1 PUSH4 0x448A8E1E EQ PUSH2 0x62 JUMPI DUP1 PUSH4 0xB47D89AD EQ PUSH2 0x94 JUMPI JUMPDEST PUSH1 0x0 DUP1 REVERT JUMPDEST PUSH2 0x60 PUSH1 0x4 DUP1 CALLDATASIZE SUB DUP2 ADD SWAP1 PUSH2 0x5B SWAP2 SWAP1 PUSH2 0x4B0 JUMP JUMPDEST PUSH2 0xB2 JUMP JUMPDEST STOP JUMPDEST PUSH2 0x7C PUSH1 0x4 DUP1 CALLDATASIZE SUB DUP2 ADD SWAP1 PUSH2 0x77 SWAP2 SWAP1 PUSH2 0x533 JUMP JUMPDEST PUSH2 0x121 JUMP JUMPDEST PUSH1 0x40 MLOAD PUSH2 0x8B SWAP4 SWAP3 SWAP2 SWAP1 PUSH2 0x5EE JUMP JUMPDEST PUSH1 0x40 MLOAD DUP1 SWAP2 SUB SWAP1 RETURN JUMPDEST PUSH2 0x9C PUSH2 0x1D9 JUMP JUMPDEST PUSH1 0x40 MLOAD PUSH2 0xA9 SWAP2 SWAP1 PUSH2 0x78B JUMP JUMPDEST PUSH1 0x40 MLOAD DUP1 SWAP2 SUB SWAP1 RETURN JUMPDEST DUP3 PUSH1 0x0 DUP6 PUSH1 0xA DUP2 LT PUSH2 0xC7 JUMPI PUSH2 0xC6 PUSH2 0x7AD JUMP JUMPDEST JUMPDEST PUSH1 0x3 MUL ADD PUSH1 0x0 ADD SWAP1 DUP2 PUSH2 0xDA SWAP2 SWAP1 PUSH2 0x9E8 JUMP JUMPDEST POP DUP2 PUSH1 0x0 DUP6 PUSH1 0xA DUP2 LT PUSH2 0xF0 JUMPI PUSH2 0xEF PUSH2 0x7AD JUMP JUMPDEST JUMPDEST PUSH1 0x3 MUL ADD PUSH1 0x1 ADD DUP2 SWAP1 SSTORE POP DUP1 PUSH1 0x0 DUP6 PUSH1 0xA DUP2 LT PUSH2 0x110 JUMPI PUSH2 0x10F PUSH2 0x7AD JUMP JUMPDEST JUMPDEST PUSH1 0x3 MUL ADD PUSH1 0x2 ADD DUP2 SWAP1 SSTORE POP POP POP POP POP JUMP JUMPDEST PUSH1 0x0 DUP2 PUSH1 0xA DUP2 LT PUSH2 0x131 JUMPI PUSH1 0x0 DUP1 REVERT JUMPDEST PUSH1 0x3 MUL ADD PUSH1 0x0 SWAP2 POP SWAP1 POP DUP1 PUSH1 0x0 ADD DUP1 SLOAD PUSH2 0x14A SWAP1 PUSH2 0x80B JUMP JUMPDEST DUP1 PUSH1 0x1F ADD PUSH1 0x20 DUP1 SWAP2 DIV MUL PUSH1 0x20 ADD PUSH1 0x40 MLOAD SWAP1 DUP2 ADD PUSH1 0x40 MSTORE DUP1 SWAP3 SWAP2 SWAP1 DUP2 DUP2 MSTORE PUSH1 0x20 ADD DUP3 DUP1 SLOAD PUSH2 0x176 SWAP1 PUSH2 0x80B JUMP JUMPDEST DUP1 ISZERO PUSH2 0x1C3 JUMPI DUP1 PUSH1 0x1F LT PUSH2 0x198 JUMPI PUSH2 0x100 DUP1 DUP4 SLOAD DIV MUL DUP4 MSTORE SWAP2 PUSH1 0x20 ADD SWAP2 PUSH2 0x1C3 JUMP JUMPDEST DUP3 ADD SWAP2 SWAP1 PUSH1 0x0 MSTORE PUSH1 0x20 PUSH1 0x0 KECCAK256 SWAP1 JUMPDEST DUP2 SLOAD DUP2 MSTORE SWAP1 PUSH1 0x1 ADD SWAP1 PUSH1 0x20 ADD DUP1 DUP4 GT PUSH2 0x1A6 JUMPI DUP3 SWAP1 SUB PUSH1 0x1F AND DUP3 ADD SWAP2 JUMPDEST POP POP POP POP POP SWAP1 DUP1 PUSH1 0x1 ADD SLOAD SWAP1 DUP1 PUSH1 0x2 ADD SLOAD SWAP1 POP DUP4 JUMP JUMPDEST PUSH2 0x1E1 PUSH2 0x2D1 JUMP JUMPDEST PUSH1 0x0 PUSH1 0xA DUP1 PUSH1 0x20 MUL PUSH1 0x40 MLOAD SWAP1 DUP2 ADD PUSH1 0x40 MSTORE DUP1 SWAP3 SWAP2 SWAP1 PUSH1 0x0 SWAP1 JUMPDEST DUP3 DUP3 LT ISZERO PUSH2 0x2C8 JUMPI DUP4 DUP3 PUSH1 0x3 MUL ADD PUSH1 0x40 MLOAD DUP1 PUSH1 0x60 ADD PUSH1 0x40 MSTORE SWAP1 DUP2 PUSH1 0x0 DUP3 ADD DUP1 SLOAD PUSH2 0x223 SWAP1 PUSH2 0x80B JUMP JUMPDEST DUP1 PUSH1 0x1F ADD PUSH1 0x20 DUP1 SWAP2 DIV MUL PUSH1 0x20 ADD PUSH1 0x40 MLOAD SWAP1 DUP2 ADD PUSH1 0x40 MSTORE DUP1 SWAP3 SWAP2 SWAP1 DUP2 DUP2 MSTORE PUSH1 0x20 ADD DUP3 DUP1 SLOAD PUSH2 0x24F SWAP1 PUSH2 0x80B JUMP JUMPDEST DUP1 ISZERO PUSH2 0x29C JUMPI DUP1 PUSH1 0x1F LT PUSH2 0x271 JUMPI PUSH2 0x100 DUP1 DUP4 SLOAD DIV MUL DUP4 MSTORE SWAP2 PUSH1 0x20 ADD SWAP2 PUSH2 0x29C JUMP JUMPDEST DUP3 ADD SWAP2 SWAP1 PUSH1 0x0 MSTORE PUSH1 0x20 PUSH1 0x0 KECCAK256 SWAP1 JUMPDEST DUP2 SLOAD DUP2 MSTORE SWAP1 PUSH1 0x1 ADD SWAP1 PUSH1 0x20 ADD DUP1 DUP4 GT PUSH2 0x27F JUMPI DUP3 SWAP1 SUB PUSH1 0x1F AND DUP3 ADD SWAP2 JUMPDEST POP POP POP POP POP DUP2 MSTORE PUSH1 0x20 ADD PUSH1 0x1 DUP3 ADD SLOAD DUP2 MSTORE PUSH1 0x20 ADD PUSH1 0x2 DUP3 ADD SLOAD DUP2 MSTORE POP POP DUP2 MSTORE PUSH1 0x20 ADD SWAP1 PUSH1 0x1 ADD SWAP1 PUSH2 0x1FA JUMP JUMPDEST POP POP POP POP SWAP1 POP SWAP1 JUMP JUMPDEST PUSH1 0x40 MLOAD DUP1 PUSH2 0x140 ADD PUSH1 0x40 MSTORE DUP1 PUSH1 0xA SWAP1 JUMPDEST PUSH2 0x2E9 PUSH2 0x2FF JUMP JUMPDEST DUP2 MSTORE PUSH1 0x20 ADD SWAP1 PUSH1 0x1 SWAP1 SUB SWAP1 DUP2 PUSH2 0x2E1 JUMPI SWAP1 POP POP SWAP1 JUMP JUMPDEST PUSH1 0x40 MLOAD DUP1 PUSH1 0x60 ADD PUSH1 0x40 MSTORE DUP1 PUSH1 0x60 DUP2 MSTORE PUSH1 0x20 ADD PUSH1 0x0 DUP2 MSTORE PUSH1 0x20 ADD PUSH1 0x0 DUP2 MSTORE POP SWAP1 JUMP JUMPDEST PUSH1 0x0 PUSH1 0x40 MLOAD SWAP1 POP SWAP1 JUMP JUMPDEST PUSH1 0x0 DUP1 REVERT JUMPDEST PUSH1 0x0 DUP1 REVERT JUMPDEST PUSH1 0x0 DUP2 SWAP1 POP SWAP2 SWAP1 POP JUMP JUMPDEST PUSH2 0x347 DUP2 PUSH2 0x334 JUMP JUMPDEST DUP2 EQ PUSH2 0x352 JUMPI PUSH1 0x0 DUP1 REVERT JUMPDEST POP JUMP JUMPDEST PUSH1 0x0 DUP2 CALLDATALOAD SWAP1 POP PUSH2 0x364 DUP2 PUSH2 0x33E JUMP JUMPDEST SWAP3 SWAP2 POP POP JUMP JUMPDEST PUSH1 0x0 DUP1 REVERT JUMPDEST PUSH1 0x0 DUP1 REVERT JUMPDEST PUSH1 0x0 PUSH1 0x1F NOT PUSH1 0x1F DUP4 ADD AND SWAP1 POP SWAP2 SWAP1 POP JUMP JUMPDEST PUSH32 0x4E487B7100000000000000000000000000000000000000000000000000000000 PUSH1 0x0 MSTORE PUSH1 0x41 PUSH1 0x4 MSTORE PUSH1 0x24 PUSH1 0x0 REVERT JUMPDEST PUSH2 0x3BD DUP3 PUSH2 0x374 JUMP JUMPDEST DUP2 ADD DUP2 DUP2 LT PUSH8 0xFFFFFFFFFFFFFFFF DUP3 GT OR ISZERO PUSH2 0x3DC JUMPI PUSH2 0x3DB PUSH2 0x385 JUMP JUMPDEST JUMPDEST DUP1 PUSH1 0x40 MSTORE POP POP POP JUMP JUMPDEST PUSH1 0x0 PUSH2 0x3EF PUSH2 0x320 JUMP JUMPDEST SWAP1 POP PUSH2 0x3FB DUP3 DUP3 PUSH2 0x3B4 JUMP JUMPDEST SWAP2 SWAP1 POP JUMP JUMPDEST PUSH1 0x0 PUSH8 0xFFFFFFFFFFFFFFFF DUP3 GT ISZERO PUSH2 0x41B JUMPI PUSH2 0x41A PUSH2 0x385 JUMP JUMPDEST JUMPDEST PUSH2 0x424 DUP3 PUSH2 0x374 JUMP JUMPDEST SWAP1 POP PUSH1 0x20 DUP2 ADD SWAP1 POP SWAP2 SWAP1 POP JUMP JUMPDEST DUP3 DUP2 DUP4 CALLDATACOPY PUSH1 0x0 DUP4 DUP4 ADD MSTORE POP POP POP JUMP JUMPDEST PUSH1 0x0 PUSH2 0x453 PUSH2 0x44E DUP5 PUSH2 0x400 JUMP JUMPDEST PUSH2 0x3E5 JUMP JUMPDEST SWAP1 POP DUP3 DUP2 MSTORE PUSH1 0x20 DUP2 ADD DUP5 DUP5 DUP5 ADD GT ISZERO PUSH2 0x46F JUMPI PUSH2 0x46E PUSH2 0x36F JUMP JUMPDEST JUMPDEST PUSH2 0x47A DUP5 DUP3 DUP6 PUSH2 0x431 JUMP JUMPDEST POP SWAP4 SWAP3 POP POP POP JUMP JUMPDEST PUSH1 0x0 DUP3 PUSH1 0x1F DUP4 ADD SLT PUSH2 0x497 JUMPI PUSH2 0x496 PUSH2 0x36A JUMP JUMPDEST JUMPDEST DUP2 CALLDATALOAD PUSH2 0x4A7 DUP5 DUP3 PUSH1 0x20 DUP7 ADD PUSH2 0x440 JUMP JUMPDEST SWAP2 POP POP SWAP3 SWAP2 POP POP JUMP JUMPDEST PUSH1 0x0 DUP1 PUSH1 0x0 DUP1 PUSH1 0x80 DUP6 DUP8 SUB SLT ISZERO PUSH2 0x4CA JUMPI PUSH2 0x4C9 PUSH2 0x32A JUMP JUMPDEST JUMPDEST PUSH1 0x0 PUSH2 0x4D8 DUP8 DUP3 DUP9 ADD PUSH2 0x355 JUMP JUMPDEST SWAP5 POP POP PUSH1 0x20 DUP6 ADD CALLDATALOAD PUSH8 0xFFFFFFFFFFFFFFFF DUP2 GT ISZERO PUSH2 0x4F9 JUMPI PUSH2 0x4F8 PUSH2 0x32F JUMP JUMPDEST JUMPDEST PUSH2 0x505 DUP8 DUP3 DUP9 ADD PUSH2 0x482 JUMP JUMPDEST SWAP4 POP POP PUSH1 0x40 PUSH2 0x516 DUP8 DUP3 DUP9 ADD PUSH2 0x355 JUMP JUMPDEST SWAP3 POP POP PUSH1 0x60 PUSH2 0x527 DUP8 DUP3 DUP9 ADD PUSH2 0x355 JUMP JUMPDEST SWAP2 POP POP SWAP3 SWAP6 SWAP2 SWAP5 POP SWAP3 POP JUMP JUMPDEST PUSH1 0x0 PUSH1 0x20 DUP3 DUP5 SUB SLT ISZERO PUSH2 0x549 JUMPI PUSH2 0x548 PUSH2 0x32A JUMP JUMPDEST JUMPDEST PUSH1 0x0 PUSH2 0x557 DUP5 DUP3 DUP6 ADD PUSH2 0x355 JUMP JUMPDEST SWAP2 POP POP SWAP3 SWAP2 POP POP JUMP JUMPDEST PUSH1 0x0 DUP2 MLOAD SWAP1 POP SWAP2 SWAP1 POP JUMP JUMPDEST PUSH1 0x0 DUP3 DUP3 MSTORE PUSH1 0x20 DUP3 ADD SWAP1 POP SWAP3 SWAP2 POP POP JUMP JUMPDEST PUSH1 0x0 JUMPDEST DUP4 DUP2 LT ISZERO PUSH2 0x59A JUMPI DUP1 DUP3 ADD MLOAD DUP2 DUP5 ADD MSTORE PUSH1 0x20 DUP2 ADD SWAP1 POP PUSH2 0x57F JUMP JUMPDEST PUSH1 0x0 DUP5 DUP5 ADD MSTORE POP POP POP POP JUMP JUMPDEST PUSH1 0x0 PUSH2 0x5B1 DUP3 PUSH2 0x560 JUMP JUMPDEST PUSH2 0x5BB DUP2 DUP6 PUSH2 0x56B JUMP JUMPDEST SWAP4 POP PUSH2 0x5CB DUP2 DUP6 PUSH1 0x20 DUP7 ADD PUSH2 0x57C JUMP JUMPDEST PUSH2 0x5D4 DUP2 PUSH2 0x374 JUMP JUMPDEST DUP5 ADD SWAP2 POP POP SWAP3 SWAP2 POP POP JUMP JUMPDEST PUSH2 0x5E8 DUP2 PUSH2 0x334 JUMP JUMPDEST DUP3 MSTORE POP POP JUMP JUMPDEST PUSH1 0x0 PUSH1 0x60 DUP3 ADD SWAP1 POP DUP2 DUP2 SUB PUSH1 0x0 DUP4 ADD MSTORE PUSH2 0x608 DUP2 DUP7 PUSH2 0x5A6 JUMP JUMPDEST SWAP1 POP PUSH2 0x617 PUSH1 0x20 DUP4 ADD DUP6 PUSH2 0x5DF JUMP JUMPDEST PUSH2 0x624 PUSH1 0x40 DUP4 ADD DUP5 PUSH2 0x5DF JUMP JUMPDEST SWAP5 SWAP4 POP POP POP POP JUMP JUMPDEST PUSH1 0x0 PUSH1 0xA SWAP1 POP SWAP2 SWAP1 POP JUMP JUMPDEST PUSH1 0x0 DUP2 SWAP1 POP SWAP3 SWAP2 POP POP JUMP JUMPDEST PUSH1 0x0 DUP2 SWAP1 POP SWAP2 SWAP1 POP JUMP JUMPDEST PUSH1 0x0 DUP3 DUP3 MSTORE PUSH1 0x20 DUP3 ADD SWAP1 POP SWAP3 SWAP2 POP POP JUMP JUMPDEST PUSH1 0x0 PUSH2 0x668 DUP3 PUSH2 0x560 JUMP JUMPDEST PUSH2 0x672 DUP2 DUP6 PUSH2 0x64C JUMP JUMPDEST SWAP4 POP PUSH2 0x682 DUP2 DUP6 PUSH1 0x20 DUP7 ADD PUSH2 0x57C JUMP JUMPDEST PUSH2 0x68B DUP2 PUSH2 0x374 JUMP JUMPDEST DUP5 ADD SWAP2 POP POP SWAP3 SWAP2 POP POP JUMP JUMPDEST PUSH2 0x69F DUP2 PUSH2 0x334 JUMP JUMPDEST DUP3 MSTORE POP POP JUMP JUMPDEST PUSH1 0x0 PUSH1 0x60 DUP4 ADD PUSH1 0x0 DUP4 ADD MLOAD DUP5 DUP3 SUB PUSH1 0x0 DUP7 ADD MSTORE PUSH2 0x6C2 DUP3 DUP3 PUSH2 0x65D JUMP JUMPDEST SWAP2 POP POP PUSH1 0x20 DUP4 ADD MLOAD PUSH2 0x6D7 PUSH1 0x20 DUP7 ADD DUP3 PUSH2 0x696 JUMP JUMPDEST POP PUSH1 0x40 DUP4 ADD MLOAD PUSH2 0x6EA PUSH1 0x40 DUP7 ADD DUP3 PUSH2 0x696 JUMP JUMPDEST POP DUP1 SWAP2 POP POP SWAP3 SWAP2 POP POP JUMP JUMPDEST PUSH1 0x0 PUSH2 0x701 DUP4 DUP4 PUSH2 0x6A5 JUMP JUMPDEST SWAP1 POP SWAP3 SWAP2 POP POP JUMP JUMPDEST PUSH1 0x0 PUSH1 0x20 DUP3 ADD SWAP1 POP SWAP2 SWAP1 POP JUMP JUMPDEST PUSH1 0x0 PUSH2 0x721 DUP3 PUSH2 0x62C JUMP JUMPDEST PUSH2 0x72B DUP2 DUP6 PUSH2 0x637 JUMP JUMPDEST SWAP4 POP DUP4 PUSH1 0x20 DUP3 MUL DUP6 ADD PUSH2 0x73D DUP6 PUSH2 0x642 JUMP JUMPDEST DUP1 PUSH1 0x0 JUMPDEST DUP6 DUP2 LT ISZERO PUSH2 0x779 JUMPI DUP5 DUP5 SUB DUP10 MSTORE DUP2 MLOAD PUSH2 0x75A DUP6 DUP3 PUSH2 0x6F5 JUMP JUMPDEST SWAP5 POP PUSH2 0x765 DUP4 PUSH2 0x709 JUMP JUMPDEST SWAP3 POP PUSH1 0x20 DUP11 ADD SWAP10 POP POP PUSH1 0x1 DUP2 ADD SWAP1 POP PUSH2 0x741 JUMP JUMPDEST POP DUP3 SWAP8 POP DUP8 SWAP6 POP POP POP POP POP POP SWAP3 SWAP2 POP POP JUMP JUMPDEST PUSH1 0x0 PUSH1 0x20 DUP3 ADD SWAP1 POP DUP2 DUP2 SUB PUSH1 0x0 DUP4 ADD MSTORE PUSH2 0x7A5 DUP2 DUP5 PUSH2 0x716 JUMP JUMPDEST SWAP1 POP SWAP3 SWAP2 POP POP JUMP JUMPDEST PUSH32 0x4E487B7100000000000000000000000000000000000000000000000000000000 PUSH1 0x0 MSTORE PUSH1 0x32 PUSH1 0x4 MSTORE PUSH1 0x24 PUSH1 0x0 REVERT JUMPDEST PUSH32 0x4E487B7100000000000000000000000000000000000000000000000000000000 PUSH1 0x0 MSTORE PUSH1 0x22 PUSH1 0x4 MSTORE PUSH1 0x24 PUSH1 0x0 REVERT JUMPDEST PUSH1 0x0 PUSH1 0x2 DUP3 DIV SWAP1 POP PUSH1 0x1 DUP3 AND DUP1 PUSH2 0x823 JUMPI PUSH1 0x7F DUP3 AND SWAP2 POP JUMPDEST PUSH1 0x20 DUP3 LT DUP2 SUB PUSH2 0x836 JUMPI PUSH2 0x835 PUSH2 0x7DC JUMP JUMPDEST JUMPDEST POP SWAP2 SWAP1 POP JUMP JUMPDEST PUSH1 0x0 DUP2 SWAP1 POP DUP2 PUSH1 0x0 MSTORE PUSH1 0x20 PUSH1 0x0 KECCAK256 SWAP1 POP SWAP2 SWAP1 POP JUMP JUMPDEST PUSH1 0x0 PUSH1 0x20 PUSH1 0x1F DUP4 ADD DIV SWAP1 POP SWAP2 SWAP1 POP JUMP JUMPDEST PUSH1 0x0 DUP3 DUP3 SHL SWAP1 POP SWAP3 SWAP2 POP POP JUMP JUMPDEST PUSH1 0x0 PUSH1 0x8 DUP4 MUL PUSH2 0x89E PUSH32 0xFFFFFFFFFFFFFFFFFFFFFFFFFFFFFFFFFFFFFFFFFFFFFFFFFFFFFFFFFFFFFFFF DUP3 PUSH2 0x861 JUMP JUMPDEST PUSH2 0x8A8 DUP7 DUP4 PUSH2 0x861 JUMP JUMPDEST SWAP6 POP DUP1 NOT DUP5 AND SWAP4 POP DUP1 DUP7 AND DUP5 OR SWAP3 POP POP POP SWAP4 SWAP3 POP POP POP JUMP JUMPDEST PUSH1 0x0 DUP2 SWAP1 POP SWAP2 SWAP1 POP JUMP JUMPDEST PUSH1 0x0 PUSH2 0x8E5 PUSH2 0x8E0 PUSH2 0x8DB DUP5 PUSH2 0x334 JUMP JUMPDEST PUSH2 0x8C0 JUMP JUMPDEST PUSH2 0x334 JUMP JUMPDEST SWAP1 POP SWAP2 SWAP1 POP JUMP JUMPDEST PUSH1 0x0 DUP2 SWAP1 POP SWAP2 SWAP1 POP JUMP JUMPDEST PUSH2 0x8FF DUP4 PUSH2 0x8CA JUMP JUMPDEST PUSH2 0x913 PUSH2 0x90B DUP3 PUSH2 0x8EC JUMP JUMPDEST DUP5 DUP5 SLOAD PUSH2 0x86E JUMP JUMPDEST DUP3 SSTORE POP POP POP POP JUMP JUMPDEST PUSH1 0x0 SWAP1 JUMP JUMPDEST PUSH2 0x928 PUSH2 0x91B JUMP JUMPDEST PUSH2 0x933 DUP2 DUP5 DUP5 PUSH2 0x8F6 JUMP JUMPDEST POP POP POP JUMP JUMPDEST JUMPDEST DUP2 DUP2 LT ISZERO PUSH2 0x957 JUMPI PUSH2 0x94C PUSH1 0x0 DUP3 PUSH2 0x920 JUMP JUMPDEST PUSH1 0x1 DUP2 ADD SWAP1 POP PUSH2 0x939 JUMP JUMPDEST POP POP JUMP JUMPDEST PUSH1 0x1F DUP3 GT ISZERO PUSH2 0x99C JUMPI PUSH2 0x96D DUP2 PUSH2 0x83C JUMP JUMPDEST PUSH2 0x976 DUP5 PUSH2 0x851 JUMP JUMPDEST DUP2 ADD PUSH1 0x20 DUP6 LT ISZERO PUSH2 0x985 JUMPI DUP2 SWAP1 POP JUMPDEST PUSH2 0x999 PUSH2 0x991 DUP6 PUSH2 0x851 JUMP JUMPDEST DUP4 ADD DUP3 PUSH2 0x938 JUMP JUMPDEST POP POP JUMPDEST POP POP POP JUMP JUMPDEST PUSH1 0x0 DUP3 DUP3 SHR SWAP1 POP SWAP3 SWAP2 POP POP JUMP JUMPDEST PUSH1 0x0 PUSH2 0x9BF PUSH1 0x0 NOT DUP5 PUSH1 0x8 MUL PUSH2 0x9A1 JUMP JUMPDEST NOT DUP1 DUP4 AND SWAP2 POP POP SWAP3 SWAP2 POP POP JUMP JUMPDEST PUSH1 0x0 PUSH2 0x9D8 DUP4 DUP4 PUSH2 0x9AE JUMP JUMPDEST SWAP2 POP DUP3 PUSH1 0x2 MUL DUP3 OR SWAP1 POP SWAP3 SWAP2 POP POP JUMP JUMPDEST PUSH2 0x9F1 DUP3 PUSH2 0x560 JUMP JUMPDEST PUSH8 0xFFFFFFFFFFFFFFFF DUP2 GT ISZERO PUSH2 0xA0A JUMPI PUSH2 0xA09 PUSH2 0x385 JUMP JUMPDEST JUMPDEST PUSH2 0xA14 DUP3 SLOAD PUSH2 0x80B JUMP JUMPDEST PUSH2 0xA1F DUP3 DUP3 DUP6 PUSH2 0x95B JUMP JUMPDEST PUSH1 0x0 PUSH1 0x20 SWAP1 POP PUSH1 0x1F DUP4 GT PUSH1 0x1 DUP2 EQ PUSH2 0xA52 JUMPI PUSH1 0x0 DUP5 ISZERO PUSH2 0xA40 JUMPI DUP3 DUP8 ADD MLOAD SWAP1 POP JUMPDEST PUSH2 0xA4A DUP6 DUP3 PUSH2 0x9CC JUMP JUMPDEST DUP7 SSTORE POP PUSH2 0xAB2 JUMP JUMPDEST PUSH1 0x1F NOT DUP5 AND PUSH2 0xA60 DUP7 PUSH2 0x83C JUMP JUMPDEST PUSH1 0x0 JUMPDEST DUP3 DUP2 LT ISZERO PUSH2 0xA88 JUMPI DUP5 DUP10 ADD MLOAD DUP3 SSTORE PUSH1 0x1 DUP3 ADD SWAP2 POP PUSH1 0x20 DUP6 ADD SWAP5 POP PUSH1 0x20 DUP2 ADD SWAP1 POP PUSH2 0xA63 JUMP JUMPDEST DUP7 DUP4 LT ISZERO PUSH2 0xAA5 JUMPI DUP5 DUP10 ADD MLOAD PUSH2 0xAA1 PUSH1 0x1F DUP10 AND DUP3 PUSH2 0x9AE JUMP JUMPDEST DUP4 SSTORE POP JUMPDEST PUSH1 0x1 PUSH1 0x2 DUP9 MUL ADD DUP9 SSTORE POP POP POP JUMPDEST POP POP POP POP POP POP JUMP INVALID LOG2 PUSH5 0x6970667358 0x22 SLT KECCAK256 ISZERO LOG2 DUP15 STOP XOR PUSH17 0x3949988DBCDD9521CFFA8785F8129BCE1D BASEFEE CODESIZE 0xE1 TIMESTAMP STOP 0x2A BYTE MOD SELFDESTRUCT PUSH5 0x736F6C6343 STOP ADDMOD SLT STOP CALLER "
				},
				"gasEstimates": {
					"creation": {
						"codeDepositCost": "560000",
						"executionCost": "594",
						"totalCost": "560594"
					},
					"external": {
						"Details()": "infinite",
						"insert(uint256,string,uint256,uint256)": "infinite",
						"s1(uint256)": "infinite"
					}
				},
				"methodIdentifiers": {
					"Details()": "b47d89ad",
					"insert(uint256,string,uint256,uint256)": "10523924",
					"s1(uint256)": "448a8e1e"
				}
			},
			"storageLayout": {
				"storage": [
					{
						"astId": 13,
						"contract": "contracts/10.ArrayOfStruct.sol:assignment",
						"label": "s1",
						"offset": 0,
						"slot": "0",
						"type": "t_array(t_struct(student)8_storage)10_storage"
					}
				],
				"types": {
					"t_array(t_struct(student)8_storage)10_storage": {
						"base": "t_struct(student)8_storage",
						"encoding": "inplace",
						"label": "struct assignment.student[10]",
						"numberOfBytes": "960"
					},
					"t_string_storage": {
						"encoding": "bytes",
						"label": "string",
						"numberOfBytes": "32"
					},
					"t_struct(student)8_storage": {
						"encoding": "inplace",
						"label": "struct assignment.student",
						"members": [
							{
								"astId": 3,
								"contract": "contracts/10.ArrayOfStruct.sol:assignment",
								"label": "name",
								"offset": 0,
								"slot": "0",
								"type": "t_string_storage"
							},
							{
								"astId": 5,
								"contract": "contracts/10.ArrayOfStruct.sol:assignment",
								"label": "roll",
								"offset": 0,
								"slot": "1",
								"type": "t_uint256"
							},
							{
								"astId": 7,
								"contract": "contracts/10.ArrayOfStruct.sol:assignment",
								"label": "age",
								"offset": 0,
								"slot": "2",
								"type": "t_uint256"
							}
						],
						"numberOfBytes": "96"
					},
					"t_uint256": {
						"encoding": "inplace",
						"label": "uint256",
						"numberOfBytes": "32"
					}
				}
			},
			"userdoc": {
				"kind": "user",
				"methods": {},
				"version": 1
			}
		}
	}
}