{
	"contracts/5sorting.sol": {
		"ArraySorting": {
			"abi": [
				{
					"inputs": [
						{
							"internalType": "uint256",
							"name": "",
							"type": "uint256"
						}
					],
					"name": "arr",
					"outputs": [
						{
							"internalType": "uint256",
							"name": "",
							"type": "uint256"
						}
					],
					"stateMutability": "view",
					"type": "function"
				},
				{
					"inputs": [
						{
							"internalType": "uint256[5]",
							"name": "brr",
							"type": "uint256[5]"
						}
					],
					"name": "sortingArray",
					"outputs": [
						{
							"internalType": "uint256[5]",
							"name": "",
							"type": "uint256[5]"
						}
					],
					"stateMutability": "pure",
					"type": "function"
				}
			],
			"devdoc": {
				"kind": "dev",
				"methods": {},
				"version": 1
			},
			"evm": {
				"assembly": "    /* \"contracts/5sorting.sol\":72:592  contract ArraySorting {... */\n  mstore(0x40, 0x80)\n    /* \"contracts/5sorting.sol\":101:138  uint[5] public arr = [1, 2, 3, 45, 5] */\n  mload(0x40)\n  dup1\n  0xa0\n  add\n  0x40\n  mstore\n  dup1\n    /* \"contracts/5sorting.sol\":123:124  1 */\n  0x01\n    /* \"contracts/5sorting.sol\":101:138  uint[5] public arr = [1, 2, 3, 45, 5] */\n  0xff\n  and\n  dup2\n  mstore\n  0x20\n  add\n    /* \"contracts/5sorting.sol\":126:127  2 */\n  0x02\n    /* \"contracts/5sorting.sol\":101:138  uint[5] public arr = [1, 2, 3, 45, 5] */\n  0xff\n  and\n  dup2\n  mstore\n  0x20\n  add\n    /* \"contracts/5sorting.sol\":129:130  3 */\n  0x03\n    /* \"contracts/5sorting.sol\":101:138  uint[5] public arr = [1, 2, 3, 45, 5] */\n  0xff\n  and\n  dup2\n  mstore\n  0x20\n  add\n    /* \"contracts/5sorting.sol\":132:134  45 */\n  0x2d\n    /* \"contracts/5sorting.sol\":101:138  uint[5] public arr = [1, 2, 3, 45, 5] */\n  0xff\n  and\n  dup2\n  mstore\n  0x20\n  add\n    /* \"contracts/5sorting.sol\":136:137  5 */\n  0x05\n    /* \"contracts/5sorting.sol\":101:138  uint[5] public arr = [1, 2, 3, 45, 5] */\n  0xff\n  and\n  dup2\n  mstore\n  pop\n  0x00\n  swap1\n  0x05\n  tag_1\n  swap3\n  swap2\n  swap1\n  tag_2\n  jump\t// in\ntag_1:\n  pop\n    /* \"contracts/5sorting.sol\":72:592  contract ArraySorting {... */\n  callvalue\n  dup1\n  iszero\n  tag_3\n  jumpi\n  0x00\n  dup1\n  revert\ntag_3:\n  pop\n  jump(tag_4)\ntag_2:\n  dup3\n  0x05\n  dup2\n  add\n  swap3\n  dup3\n  iszero\n  tag_5\n  jumpi\n  swap2\n  0x20\n  mul\n  dup3\n  add\ntag_6:\n  dup3\n  dup2\n  gt\n  iszero\n  tag_7\n  jumpi\n  dup3\n  mload\n  dup3\n  swap1\n  0xff\n  and\n  swap1\n  sstore\n  swap2\n  0x20\n  add\n  swap2\n  swap1\n  0x01\n  add\n  swap1\n  jump(tag_6)\ntag_7:\ntag_5:\n  pop\n  swap1\n  pop\n  tag_8\n  swap2\n  swap1\n  tag_9\n  jump\t// in\ntag_8:\n  pop\n  swap1\n  jump\t// out\ntag_9:\ntag_10:\n  dup1\n  dup3\n  gt\n  iszero\n  tag_11\n  jumpi\n  0x00\n  dup2\n  0x00\n  swap1\n  sstore\n  pop\n  0x01\n  add\n  jump(tag_10)\ntag_11:\n  pop\n  swap1\n  jump\t// out\ntag_4:\n  dataSize(sub_0)\n  dup1\n  dataOffset(sub_0)\n  0x00\n  codecopy\n  0x00\n  return\nstop\n\nsub_0: assembly {\n        /* \"contracts/5sorting.sol\":72:592  contract ArraySorting {... */\n      mstore(0x40, 0x80)\n      callvalue\n      dup1\n      iszero\n      tag_1\n      jumpi\n      0x00\n      dup1\n      revert\n    tag_1:\n      pop\n      jumpi(tag_2, lt(calldatasize, 0x04))\n      shr(0xe0, calldataload(0x00))\n      dup1\n      0x71e5ee5f\n      eq\n      tag_3\n      jumpi\n      dup1\n      0xe9049e08\n      eq\n      tag_4\n      jumpi\n    tag_2:\n      0x00\n      dup1\n      revert\n        /* \"contracts/5sorting.sol\":101:138  uint[5] public arr = [1, 2, 3, 45, 5] */\n    tag_3:\n      tag_5\n      0x04\n      dup1\n      calldatasize\n      sub\n      dup2\n      add\n      swap1\n      tag_6\n      swap2\n      swap1\n      tag_7\n      jump\t// in\n    tag_6:\n      tag_8\n      jump\t// in\n    tag_5:\n      mload(0x40)\n      tag_9\n      swap2\n      swap1\n      tag_10\n      jump\t// in\n    tag_9:\n      mload(0x40)\n      dup1\n      swap2\n      sub\n      swap1\n      return\n        /* \"contracts/5sorting.sol\":147:589  function sortingArray(uint[5] memory brr) public pure returns (uint[5] memory) {... */\n    tag_4:\n      tag_11\n      0x04\n      dup1\n      calldatasize\n      sub\n      dup2\n      add\n      swap1\n      tag_12\n      swap2\n      swap1\n      tag_13\n      jump\t// in\n    tag_12:\n      tag_14\n      jump\t// in\n    tag_11:\n      mload(0x40)\n      tag_15\n      swap2\n      swap1\n      tag_16\n      jump\t// in\n    tag_15:\n      mload(0x40)\n      dup1\n      swap2\n      sub\n      swap1\n      return\n        /* \"contracts/5sorting.sol\":101:138  uint[5] public arr = [1, 2, 3, 45, 5] */\n    tag_8:\n      0x00\n      dup2\n      0x05\n      dup2\n      lt\n      tag_17\n      jumpi\n      0x00\n      dup1\n      revert\n    tag_17:\n      add\n      0x00\n      swap2\n      pop\n      swap1\n      pop\n      sload\n      dup2\n      jump\t// out\n        /* \"contracts/5sorting.sol\":147:589  function sortingArray(uint[5] memory brr) public pure returns (uint[5] memory) {... */\n    tag_14:\n        /* \"contracts/5sorting.sol\":210:224  uint[5] memory */\n      tag_19\n      tag_20\n      jump\t// in\n    tag_19:\n        /* \"contracts/5sorting.sol\":242:251  uint256 i */\n      0x00\n        /* \"contracts/5sorting.sol\":237:560  for (uint256 i = 0; i < 5; i++) {... */\n    tag_22:\n        /* \"contracts/5sorting.sol\":261:262  5 */\n      0x05\n        /* \"contracts/5sorting.sol\":257:258  i */\n      dup2\n        /* \"contracts/5sorting.sol\":257:262  i < 5 */\n      lt\n        /* \"contracts/5sorting.sol\":237:560  for (uint256 i = 0; i < 5; i++) {... */\n      iszero\n      tag_23\n      jumpi\n        /* \"contracts/5sorting.sol\":288:294  uint j */\n      0x00\n        /* \"contracts/5sorting.sol\":297:298  1 */\n      0x01\n        /* \"contracts/5sorting.sol\":288:298  uint j = 1 */\n      swap1\n      pop\n        /* \"contracts/5sorting.sol\":284:548  for(uint j = 1; j < 5 - i; j++){ // Adjusted inner loop condition... */\n    tag_25:\n        /* \"contracts/5sorting.sol\":308:309  i */\n      dup2\n        /* \"contracts/5sorting.sol\":304:305  5 */\n      0x05\n        /* \"contracts/5sorting.sol\":304:309  5 - i */\n      tag_28\n      swap2\n      swap1\n      tag_29\n      jump\t// in\n    tag_28:\n        /* \"contracts/5sorting.sol\":300:301  j */\n      dup2\n        /* \"contracts/5sorting.sol\":300:309  j < 5 - i */\n      lt\n        /* \"contracts/5sorting.sol\":284:548  for(uint j = 1; j < 5 - i; j++){ // Adjusted inner loop condition... */\n      iszero\n      tag_26\n      jumpi\n        /* \"contracts/5sorting.sol\":379:382  brr */\n      dup4\n        /* \"contracts/5sorting.sol\":387:388  1 */\n      0x01\n        /* \"contracts/5sorting.sol\":383:384  j */\n      dup3\n        /* \"contracts/5sorting.sol\":383:388  j - 1 */\n      tag_30\n      swap2\n      swap1\n      tag_29\n      jump\t// in\n    tag_30:\n        /* \"contracts/5sorting.sol\":379:389  brr[j - 1] */\n      0x05\n      dup2\n      lt\n      tag_31\n      jumpi\n      tag_32\n      tag_33\n      jump\t// in\n    tag_32:\n    tag_31:\n      0x20\n      mul\n      add\n      mload\n        /* \"contracts/5sorting.sol\":370:373  brr */\n      dup5\n        /* \"contracts/5sorting.sol\":374:375  j */\n      dup3\n        /* \"contracts/5sorting.sol\":370:376  brr[j] */\n      0x05\n      dup2\n      lt\n      tag_34\n      jumpi\n      tag_35\n      tag_33\n      jump\t// in\n    tag_35:\n    tag_34:\n      0x20\n      mul\n      add\n      mload\n        /* \"contracts/5sorting.sol\":370:389  brr[j] < brr[j - 1] */\n      lt\n        /* \"contracts/5sorting.sol\":367:533  if(brr[j] < brr[j - 1]){... */\n      iszero\n      tag_36\n      jumpi\n        /* \"contracts/5sorting.sol\":413:422  uint temp */\n      0x00\n        /* \"contracts/5sorting.sol\":425:428  brr */\n      dup5\n        /* \"contracts/5sorting.sol\":429:430  j */\n      dup3\n        /* \"contracts/5sorting.sol\":425:431  brr[j] */\n      0x05\n      dup2\n      lt\n      tag_37\n      jumpi\n      tag_38\n      tag_33\n      jump\t// in\n    tag_38:\n    tag_37:\n      0x20\n      mul\n      add\n      mload\n        /* \"contracts/5sorting.sol\":413:431  uint temp = brr[j] */\n      swap1\n      pop\n        /* \"contracts/5sorting.sol\":463:466  brr */\n      dup5\n        /* \"contracts/5sorting.sol\":471:472  1 */\n      0x01\n        /* \"contracts/5sorting.sol\":467:468  j */\n      dup4\n        /* \"contracts/5sorting.sol\":467:472  j - 1 */\n      tag_39\n      swap2\n      swap1\n      tag_29\n      jump\t// in\n    tag_39:\n        /* \"contracts/5sorting.sol\":463:473  brr[j - 1] */\n      0x05\n      dup2\n      lt\n      tag_40\n      jumpi\n      tag_41\n      tag_33\n      jump\t// in\n    tag_41:\n    tag_40:\n      0x20\n      mul\n      add\n      mload\n        /* \"contracts/5sorting.sol\":454:457  brr */\n      dup6\n        /* \"contracts/5sorting.sol\":458:459  j */\n      dup4\n        /* \"contracts/5sorting.sol\":454:460  brr[j] */\n      0x05\n      dup2\n      lt\n      tag_42\n      jumpi\n      tag_43\n      tag_33\n      jump\t// in\n    tag_43:\n    tag_42:\n      0x20\n      mul\n      add\n        /* \"contracts/5sorting.sol\":454:473  brr[j] = brr[j - 1] */\n      dup2\n      dup2\n      mstore\n      pop\n      pop\n        /* \"contracts/5sorting.sol\":509:513  temp */\n      dup1\n        /* \"contracts/5sorting.sol\":496:499  brr */\n      dup6\n        /* \"contracts/5sorting.sol\":504:505  1 */\n      0x01\n        /* \"contracts/5sorting.sol\":500:501  j */\n      dup5\n        /* \"contracts/5sorting.sol\":500:505  j - 1 */\n      tag_44\n      swap2\n      swap1\n      tag_29\n      jump\t// in\n    tag_44:\n        /* \"contracts/5sorting.sol\":496:506  brr[j - 1] */\n      0x05\n      dup2\n      lt\n      tag_45\n      jumpi\n      tag_46\n      tag_33\n      jump\t// in\n    tag_46:\n    tag_45:\n      0x20\n      mul\n      add\n        /* \"contracts/5sorting.sol\":496:513  brr[j - 1] = temp */\n      dup2\n      dup2\n      mstore\n      pop\n      pop\n        /* \"contracts/5sorting.sol\":390:533  {... */\n      pop\n        /* \"contracts/5sorting.sol\":367:533  if(brr[j] < brr[j - 1]){... */\n    tag_36:\n        /* \"contracts/5sorting.sol\":311:314  j++ */\n      dup1\n      dup1\n      tag_47\n      swap1\n      tag_48\n      jump\t// in\n    tag_47:\n      swap2\n      pop\n      pop\n        /* \"contracts/5sorting.sol\":284:548  for(uint j = 1; j < 5 - i; j++){ // Adjusted inner loop condition... */\n      jump(tag_25)\n    tag_26:\n      pop\n        /* \"contracts/5sorting.sol\":264:267  i++ */\n      dup1\n      dup1\n      tag_49\n      swap1\n      tag_48\n      jump\t// in\n    tag_49:\n      swap2\n      pop\n      pop\n        /* \"contracts/5sorting.sol\":237:560  for (uint256 i = 0; i < 5; i++) {... */\n      jump(tag_22)\n    tag_23:\n      pop\n        /* \"contracts/5sorting.sol\":578:581  brr */\n      dup2\n        /* \"contracts/5sorting.sol\":571:581  return brr */\n      swap1\n      pop\n        /* \"contracts/5sorting.sol\":147:589  function sortingArray(uint[5] memory brr) public pure returns (uint[5] memory) {... */\n      swap2\n      swap1\n      pop\n      jump\t// out\n    tag_20:\n      mload(0x40)\n      dup1\n      0xa0\n      add\n      0x40\n      mstore\n      dup1\n      0x05\n      swap1\n      0x20\n      dup3\n      mul\n      dup1\n      calldatasize\n      dup4\n      calldatacopy\n      dup1\n      dup3\n      add\n      swap2\n      pop\n      pop\n      swap1\n      pop\n      pop\n      swap1\n      jump\t// out\n        /* \"#utility.yul\":7:82   */\n    tag_50:\n        /* \"#utility.yul\":40:46   */\n      0x00\n        /* \"#utility.yul\":73:75   */\n      0x40\n        /* \"#utility.yul\":67:76   */\n      mload\n        /* \"#utility.yul\":57:76   */\n      swap1\n      pop\n        /* \"#utility.yul\":7:82   */\n      swap1\n      jump\t// out\n        /* \"#utility.yul\":88:205   */\n    tag_51:\n        /* \"#utility.yul\":197:198   */\n      0x00\n        /* \"#utility.yul\":194:195   */\n      dup1\n        /* \"#utility.yul\":187:199   */\n      revert\n        /* \"#utility.yul\":334:411   */\n    tag_53:\n        /* \"#utility.yul\":371:378   */\n      0x00\n        /* \"#utility.yul\":400:405   */\n      dup2\n        /* \"#utility.yul\":389:405   */\n      swap1\n      pop\n        /* \"#utility.yul\":334:411   */\n      swap2\n      swap1\n      pop\n      jump\t// out\n        /* \"#utility.yul\":417:539   */\n    tag_54:\n        /* \"#utility.yul\":490:514   */\n      tag_80\n        /* \"#utility.yul\":508:513   */\n      dup2\n        /* \"#utility.yul\":490:514   */\n      tag_53\n      jump\t// in\n    tag_80:\n        /* \"#utility.yul\":483:488   */\n      dup2\n        /* \"#utility.yul\":480:515   */\n      eq\n        /* \"#utility.yul\":470:533   */\n      tag_81\n      jumpi\n        /* \"#utility.yul\":529:530   */\n      0x00\n        /* \"#utility.yul\":526:527   */\n      dup1\n        /* \"#utility.yul\":519:531   */\n      revert\n        /* \"#utility.yul\":470:533   */\n    tag_81:\n        /* \"#utility.yul\":417:539   */\n      pop\n      jump\t// out\n        /* \"#utility.yul\":545:684   */\n    tag_55:\n        /* \"#utility.yul\":591:596   */\n      0x00\n        /* \"#utility.yul\":629:635   */\n      dup2\n        /* \"#utility.yul\":616:636   */\n      calldataload\n        /* \"#utility.yul\":607:636   */\n      swap1\n      pop\n        /* \"#utility.yul\":645:678   */\n      tag_83\n        /* \"#utility.yul\":672:677   */\n      dup2\n        /* \"#utility.yul\":645:678   */\n      tag_54\n      jump\t// in\n    tag_83:\n        /* \"#utility.yul\":545:684   */\n      swap3\n      swap2\n      pop\n      pop\n      jump\t// out\n        /* \"#utility.yul\":690:1019   */\n    tag_7:\n        /* \"#utility.yul\":749:755   */\n      0x00\n        /* \"#utility.yul\":798:800   */\n      0x20\n        /* \"#utility.yul\":786:795   */\n      dup3\n        /* \"#utility.yul\":777:784   */\n      dup5\n        /* \"#utility.yul\":773:796   */\n      sub\n        /* \"#utility.yul\":769:801   */\n      slt\n        /* \"#utility.yul\":766:885   */\n      iszero\n      tag_85\n      jumpi\n        /* \"#utility.yul\":804:883   */\n      tag_86\n      tag_51\n      jump\t// in\n    tag_86:\n        /* \"#utility.yul\":766:885   */\n    tag_85:\n        /* \"#utility.yul\":924:925   */\n      0x00\n        /* \"#utility.yul\":949:1002   */\n      tag_87\n        /* \"#utility.yul\":994:1001   */\n      dup5\n        /* \"#utility.yul\":985:991   */\n      dup3\n        /* \"#utility.yul\":974:983   */\n      dup6\n        /* \"#utility.yul\":970:992   */\n      add\n        /* \"#utility.yul\":949:1002   */\n      tag_55\n      jump\t// in\n    tag_87:\n        /* \"#utility.yul\":939:1002   */\n      swap2\n      pop\n        /* \"#utility.yul\":895:1012   */\n      pop\n        /* \"#utility.yul\":690:1019   */\n      swap3\n      swap2\n      pop\n      pop\n      jump\t// out\n        /* \"#utility.yul\":1025:1143   */\n    tag_56:\n        /* \"#utility.yul\":1112:1136   */\n      tag_89\n        /* \"#utility.yul\":1130:1135   */\n      dup2\n        /* \"#utility.yul\":1112:1136   */\n      tag_53\n      jump\t// in\n    tag_89:\n        /* \"#utility.yul\":1107:1110   */\n      dup3\n        /* \"#utility.yul\":1100:1137   */\n      mstore\n        /* \"#utility.yul\":1025:1143   */\n      pop\n      pop\n      jump\t// out\n        /* \"#utility.yul\":1149:1371   */\n    tag_10:\n        /* \"#utility.yul\":1242:1246   */\n      0x00\n        /* \"#utility.yul\":1280:1282   */\n      0x20\n        /* \"#utility.yul\":1269:1278   */\n      dup3\n        /* \"#utility.yul\":1265:1283   */\n      add\n        /* \"#utility.yul\":1257:1283   */\n      swap1\n      pop\n        /* \"#utility.yul\":1293:1364   */\n      tag_91\n        /* \"#utility.yul\":1361:1362   */\n      0x00\n        /* \"#utility.yul\":1350:1359   */\n      dup4\n        /* \"#utility.yul\":1346:1363   */\n      add\n        /* \"#utility.yul\":1337:1343   */\n      dup5\n        /* \"#utility.yul\":1293:1364   */\n      tag_56\n      jump\t// in\n    tag_91:\n        /* \"#utility.yul\":1149:1371   */\n      swap3\n      swap2\n      pop\n      pop\n      jump\t// out\n        /* \"#utility.yul\":1377:1494   */\n    tag_57:\n        /* \"#utility.yul\":1486:1487   */\n      0x00\n        /* \"#utility.yul\":1483:1484   */\n      dup1\n        /* \"#utility.yul\":1476:1488   */\n      revert\n        /* \"#utility.yul\":1500:1602   */\n    tag_58:\n        /* \"#utility.yul\":1541:1547   */\n      0x00\n        /* \"#utility.yul\":1592:1594   */\n      0x1f\n        /* \"#utility.yul\":1588:1595   */\n      not\n        /* \"#utility.yul\":1583:1585   */\n      0x1f\n        /* \"#utility.yul\":1576:1581   */\n      dup4\n        /* \"#utility.yul\":1572:1586   */\n      add\n        /* \"#utility.yul\":1568:1596   */\n      and\n        /* \"#utility.yul\":1558:1596   */\n      swap1\n      pop\n        /* \"#utility.yul\":1500:1602   */\n      swap2\n      swap1\n      pop\n      jump\t// out\n        /* \"#utility.yul\":1608:1788   */\n    tag_59:\n        /* \"#utility.yul\":1656:1733   */\n      0x4e487b7100000000000000000000000000000000000000000000000000000000\n        /* \"#utility.yul\":1653:1654   */\n      0x00\n        /* \"#utility.yul\":1646:1734   */\n      mstore\n        /* \"#utility.yul\":1753:1757   */\n      0x41\n        /* \"#utility.yul\":1750:1751   */\n      0x04\n        /* \"#utility.yul\":1743:1758   */\n      mstore\n        /* \"#utility.yul\":1777:1781   */\n      0x24\n        /* \"#utility.yul\":1774:1775   */\n      0x00\n        /* \"#utility.yul\":1767:1782   */\n      revert\n        /* \"#utility.yul\":1794:2075   */\n    tag_60:\n        /* \"#utility.yul\":1877:1904   */\n      tag_96\n        /* \"#utility.yul\":1899:1903   */\n      dup3\n        /* \"#utility.yul\":1877:1904   */\n      tag_58\n      jump\t// in\n    tag_96:\n        /* \"#utility.yul\":1869:1875   */\n      dup2\n        /* \"#utility.yul\":1865:1905   */\n      add\n        /* \"#utility.yul\":2007:2013   */\n      dup2\n        /* \"#utility.yul\":1995:2005   */\n      dup2\n        /* \"#utility.yul\":1992:2014   */\n      lt\n        /* \"#utility.yul\":1971:1989   */\n      0xffffffffffffffff\n        /* \"#utility.yul\":1959:1969   */\n      dup3\n        /* \"#utility.yul\":1956:1990   */\n      gt\n        /* \"#utility.yul\":1953:2015   */\n      or\n        /* \"#utility.yul\":1950:2038   */\n      iszero\n      tag_97\n      jumpi\n        /* \"#utility.yul\":2018:2036   */\n      tag_98\n      tag_59\n      jump\t// in\n    tag_98:\n        /* \"#utility.yul\":1950:2038   */\n    tag_97:\n        /* \"#utility.yul\":2058:2068   */\n      dup1\n        /* \"#utility.yul\":2054:2056   */\n      0x40\n        /* \"#utility.yul\":2047:2069   */\n      mstore\n        /* \"#utility.yul\":1837:2075   */\n      pop\n        /* \"#utility.yul\":1794:2075   */\n      pop\n      pop\n      jump\t// out\n        /* \"#utility.yul\":2081:2210   */\n    tag_61:\n        /* \"#utility.yul\":2115:2121   */\n      0x00\n        /* \"#utility.yul\":2142:2162   */\n      tag_100\n      tag_50\n      jump\t// in\n    tag_100:\n        /* \"#utility.yul\":2132:2162   */\n      swap1\n      pop\n        /* \"#utility.yul\":2171:2204   */\n      tag_101\n        /* \"#utility.yul\":2199:2203   */\n      dup3\n        /* \"#utility.yul\":2191:2197   */\n      dup3\n        /* \"#utility.yul\":2171:2204   */\n      tag_60\n      jump\t// in\n    tag_101:\n        /* \"#utility.yul\":2081:2210   */\n      swap2\n      swap1\n      pop\n      jump\t// out\n        /* \"#utility.yul\":2216:2465   */\n    tag_62:\n        /* \"#utility.yul\":2291:2295   */\n      0x00\n        /* \"#utility.yul\":2381:2399   */\n      0xffffffffffffffff\n        /* \"#utility.yul\":2373:2379   */\n      dup3\n        /* \"#utility.yul\":2370:2400   */\n      gt\n        /* \"#utility.yul\":2367:2423   */\n      iszero\n      tag_103\n      jumpi\n        /* \"#utility.yul\":2403:2421   */\n      tag_104\n      tag_59\n      jump\t// in\n    tag_104:\n        /* \"#utility.yul\":2367:2423   */\n    tag_103:\n        /* \"#utility.yul\":2453:2457   */\n      0x20\n        /* \"#utility.yul\":2445:2451   */\n      dup3\n        /* \"#utility.yul\":2441:2458   */\n      mul\n        /* \"#utility.yul\":2433:2458   */\n      swap1\n      pop\n        /* \"#utility.yul\":2216:2465   */\n      swap2\n      swap1\n      pop\n      jump\t// out\n        /* \"#utility.yul\":2471:2588   */\n    tag_63:\n        /* \"#utility.yul\":2580:2581   */\n      0x00\n        /* \"#utility.yul\":2577:2578   */\n      dup1\n        /* \"#utility.yul\":2570:2582   */\n      revert\n        /* \"#utility.yul\":2612:3255   */\n    tag_64:\n        /* \"#utility.yul\":2706:2711   */\n      0x00\n        /* \"#utility.yul\":2731:2810   */\n      tag_107\n        /* \"#utility.yul\":2747:2809   */\n      tag_108\n        /* \"#utility.yul\":2802:2808   */\n      dup5\n        /* \"#utility.yul\":2747:2809   */\n      tag_62\n      jump\t// in\n    tag_108:\n        /* \"#utility.yul\":2731:2810   */\n      tag_61\n      jump\t// in\n    tag_107:\n        /* \"#utility.yul\":2722:2810   */\n      swap1\n      pop\n        /* \"#utility.yul\":2830:2835   */\n      dup1\n        /* \"#utility.yul\":2883:2887   */\n      0x20\n        /* \"#utility.yul\":2875:2881   */\n      dup5\n        /* \"#utility.yul\":2871:2888   */\n      mul\n        /* \"#utility.yul\":2863:2869   */\n      dup4\n        /* \"#utility.yul\":2859:2889   */\n      add\n        /* \"#utility.yul\":2912:2915   */\n      dup6\n        /* \"#utility.yul\":2904:2910   */\n      dup2\n        /* \"#utility.yul\":2901:2916   */\n      gt\n        /* \"#utility.yul\":2898:3020   */\n      iszero\n      tag_109\n      jumpi\n        /* \"#utility.yul\":2931:3010   */\n      tag_110\n      tag_63\n      jump\t// in\n    tag_110:\n        /* \"#utility.yul\":2898:3020   */\n    tag_109:\n        /* \"#utility.yul\":3046:3052   */\n      dup4\n        /* \"#utility.yul\":3029:3249   */\n    tag_111:\n        /* \"#utility.yul\":3063:3069   */\n      dup2\n        /* \"#utility.yul\":3058:3061   */\n      dup2\n        /* \"#utility.yul\":3055:3070   */\n      lt\n        /* \"#utility.yul\":3029:3249   */\n      iszero\n      tag_113\n      jumpi\n        /* \"#utility.yul\":3138:3141   */\n      dup1\n        /* \"#utility.yul\":3167:3204   */\n      tag_114\n        /* \"#utility.yul\":3200:3203   */\n      dup9\n        /* \"#utility.yul\":3188:3198   */\n      dup3\n        /* \"#utility.yul\":3167:3204   */\n      tag_55\n      jump\t// in\n    tag_114:\n        /* \"#utility.yul\":3162:3165   */\n      dup5\n        /* \"#utility.yul\":3155:3205   */\n      mstore\n        /* \"#utility.yul\":3234:3238   */\n      0x20\n        /* \"#utility.yul\":3229:3232   */\n      dup5\n        /* \"#utility.yul\":3225:3239   */\n      add\n        /* \"#utility.yul\":3218:3239   */\n      swap4\n      pop\n        /* \"#utility.yul\":3105:3249   */\n      pop\n        /* \"#utility.yul\":3089:3093   */\n      0x20\n        /* \"#utility.yul\":3084:3087   */\n      dup2\n        /* \"#utility.yul\":3080:3094   */\n      add\n        /* \"#utility.yul\":3073:3094   */\n      swap1\n      pop\n        /* \"#utility.yul\":3029:3249   */\n      jump(tag_111)\n    tag_113:\n        /* \"#utility.yul\":3033:3054   */\n      pop\n        /* \"#utility.yul\":2712:3255   */\n      pop\n      pop\n        /* \"#utility.yul\":2612:3255   */\n      swap4\n      swap3\n      pop\n      pop\n      pop\n      jump\t// out\n        /* \"#utility.yul\":3279:3618   */\n    tag_65:\n        /* \"#utility.yul\":3348:3353   */\n      0x00\n        /* \"#utility.yul\":3397:3400   */\n      dup3\n        /* \"#utility.yul\":3390:3394   */\n      0x1f\n        /* \"#utility.yul\":3382:3388   */\n      dup4\n        /* \"#utility.yul\":3378:3395   */\n      add\n        /* \"#utility.yul\":3374:3401   */\n      slt\n        /* \"#utility.yul\":3364:3486   */\n      tag_116\n      jumpi\n        /* \"#utility.yul\":3405:3484   */\n      tag_117\n      tag_57\n      jump\t// in\n    tag_117:\n        /* \"#utility.yul\":3364:3486   */\n    tag_116:\n        /* \"#utility.yul\":3509:3513   */\n      0x05\n        /* \"#utility.yul\":3531:3612   */\n      tag_118\n        /* \"#utility.yul\":3608:3611   */\n      dup5\n        /* \"#utility.yul\":3600:3606   */\n      dup3\n        /* \"#utility.yul\":3592:3598   */\n      dup6\n        /* \"#utility.yul\":3531:3612   */\n      tag_64\n      jump\t// in\n    tag_118:\n        /* \"#utility.yul\":3522:3612   */\n      swap2\n      pop\n        /* \"#utility.yul\":3354:3618   */\n      pop\n        /* \"#utility.yul\":3279:3618   */\n      swap3\n      swap2\n      pop\n      pop\n      jump\t// out\n        /* \"#utility.yul\":3624:4000   */\n    tag_13:\n        /* \"#utility.yul\":3706:3712   */\n      0x00\n        /* \"#utility.yul\":3755:3758   */\n      0xa0\n        /* \"#utility.yul\":3743:3752   */\n      dup3\n        /* \"#utility.yul\":3734:3741   */\n      dup5\n        /* \"#utility.yul\":3730:3753   */\n      sub\n        /* \"#utility.yul\":3726:3759   */\n      slt\n        /* \"#utility.yul\":3723:3843   */\n      iszero\n      tag_120\n      jumpi\n        /* \"#utility.yul\":3762:3841   */\n      tag_121\n      tag_51\n      jump\t// in\n    tag_121:\n        /* \"#utility.yul\":3723:3843   */\n    tag_120:\n        /* \"#utility.yul\":3882:3883   */\n      0x00\n        /* \"#utility.yul\":3907:3983   */\n      tag_122\n        /* \"#utility.yul\":3975:3982   */\n      dup5\n        /* \"#utility.yul\":3966:3972   */\n      dup3\n        /* \"#utility.yul\":3955:3964   */\n      dup6\n        /* \"#utility.yul\":3951:3973   */\n      add\n        /* \"#utility.yul\":3907:3983   */\n      tag_65\n      jump\t// in\n    tag_122:\n        /* \"#utility.yul\":3897:3983   */\n      swap2\n      pop\n        /* \"#utility.yul\":3853:3993   */\n      pop\n        /* \"#utility.yul\":3624:4000   */\n      swap3\n      swap2\n      pop\n      pop\n      jump\t// out\n        /* \"#utility.yul\":4006:4110   */\n    tag_66:\n        /* \"#utility.yul\":4071:4077   */\n      0x00\n        /* \"#utility.yul\":4099:4103   */\n      0x05\n        /* \"#utility.yul\":4089:4103   */\n      swap1\n      pop\n        /* \"#utility.yul\":4006:4110   */\n      swap2\n      swap1\n      pop\n      jump\t// out\n        /* \"#utility.yul\":4116:4259   */\n    tag_67:\n        /* \"#utility.yul\":4213:4224   */\n      0x00\n        /* \"#utility.yul\":4250:4253   */\n      dup2\n        /* \"#utility.yul\":4235:4253   */\n      swap1\n      pop\n        /* \"#utility.yul\":4116:4259   */\n      swap3\n      swap2\n      pop\n      pop\n      jump\t// out\n        /* \"#utility.yul\":4265:4363   */\n    tag_68:\n        /* \"#utility.yul\":4330:4334   */\n      0x00\n        /* \"#utility.yul\":4353:4356   */\n      dup2\n        /* \"#utility.yul\":4345:4356   */\n      swap1\n      pop\n        /* \"#utility.yul\":4265:4363   */\n      swap2\n      swap1\n      pop\n      jump\t// out\n        /* \"#utility.yul\":4369:4477   */\n    tag_69:\n        /* \"#utility.yul\":4446:4470   */\n      tag_127\n        /* \"#utility.yul\":4464:4469   */\n      dup2\n        /* \"#utility.yul\":4446:4470   */\n      tag_53\n      jump\t// in\n    tag_127:\n        /* \"#utility.yul\":4441:4444   */\n      dup3\n        /* \"#utility.yul\":4434:4471   */\n      mstore\n        /* \"#utility.yul\":4369:4477   */\n      pop\n      pop\n      jump\t// out\n        /* \"#utility.yul\":4483:4662   */\n    tag_70:\n        /* \"#utility.yul\":4552:4562   */\n      0x00\n        /* \"#utility.yul\":4573:4619   */\n      tag_129\n        /* \"#utility.yul\":4615:4618   */\n      dup4\n        /* \"#utility.yul\":4607:4613   */\n      dup4\n        /* \"#utility.yul\":4573:4619   */\n      tag_69\n      jump\t// in\n    tag_129:\n        /* \"#utility.yul\":4651:4655   */\n      0x20\n        /* \"#utility.yul\":4646:4649   */\n      dup4\n        /* \"#utility.yul\":4642:4656   */\n      add\n        /* \"#utility.yul\":4628:4656   */\n      swap1\n      pop\n        /* \"#utility.yul\":4483:4662   */\n      swap3\n      swap2\n      pop\n      pop\n      jump\t// out\n        /* \"#utility.yul\":4668:4779   */\n    tag_71:\n        /* \"#utility.yul\":4736:4740   */\n      0x00\n        /* \"#utility.yul\":4768:4772   */\n      0x20\n        /* \"#utility.yul\":4763:4766   */\n      dup3\n        /* \"#utility.yul\":4759:4773   */\n      add\n        /* \"#utility.yul\":4751:4773   */\n      swap1\n      pop\n        /* \"#utility.yul\":4668:4779   */\n      swap2\n      swap1\n      pop\n      jump\t// out\n        /* \"#utility.yul\":4817:5511   */\n    tag_72:\n        /* \"#utility.yul\":4953:5005   */\n      tag_132\n        /* \"#utility.yul\":4999:5004   */\n      dup2\n        /* \"#utility.yul\":4953:5005   */\n      tag_66\n      jump\t// in\n    tag_132:\n        /* \"#utility.yul\":5021:5105   */\n      tag_133\n        /* \"#utility.yul\":5098:5104   */\n      dup2\n        /* \"#utility.yul\":5093:5096   */\n      dup5\n        /* \"#utility.yul\":5021:5105   */\n      tag_67\n      jump\t// in\n    tag_133:\n        /* \"#utility.yul\":5014:5105   */\n      swap3\n      pop\n        /* \"#utility.yul\":5129:5183   */\n      tag_134\n        /* \"#utility.yul\":5177:5182   */\n      dup3\n        /* \"#utility.yul\":5129:5183   */\n      tag_68\n      jump\t// in\n    tag_134:\n        /* \"#utility.yul\":5206:5213   */\n      dup1\n        /* \"#utility.yul\":5237:5238   */\n      0x00\n        /* \"#utility.yul\":5222:5504   */\n    tag_135:\n        /* \"#utility.yul\":5247:5253   */\n      dup4\n        /* \"#utility.yul\":5244:5245   */\n      dup2\n        /* \"#utility.yul\":5241:5254   */\n      lt\n        /* \"#utility.yul\":5222:5504   */\n      iszero\n      tag_137\n      jumpi\n        /* \"#utility.yul\":5323:5329   */\n      dup2\n        /* \"#utility.yul\":5317:5330   */\n      mload\n        /* \"#utility.yul\":5350:5413   */\n      tag_138\n        /* \"#utility.yul\":5409:5412   */\n      dup8\n        /* \"#utility.yul\":5394:5407   */\n      dup3\n        /* \"#utility.yul\":5350:5413   */\n      tag_70\n      jump\t// in\n    tag_138:\n        /* \"#utility.yul\":5343:5413   */\n      swap7\n      pop\n        /* \"#utility.yul\":5436:5494   */\n      tag_139\n        /* \"#utility.yul\":5487:5493   */\n      dup4\n        /* \"#utility.yul\":5436:5494   */\n      tag_71\n      jump\t// in\n    tag_139:\n        /* \"#utility.yul\":5426:5494   */\n      swap3\n      pop\n        /* \"#utility.yul\":5282:5504   */\n      pop\n        /* \"#utility.yul\":5269:5270   */\n      0x01\n        /* \"#utility.yul\":5266:5267   */\n      dup2\n        /* \"#utility.yul\":5262:5271   */\n      add\n        /* \"#utility.yul\":5257:5271   */\n      swap1\n      pop\n        /* \"#utility.yul\":5222:5504   */\n      jump(tag_135)\n    tag_137:\n        /* \"#utility.yul\":5226:5240   */\n      pop\n        /* \"#utility.yul\":4929:5511   */\n      pop\n      pop\n      pop\n        /* \"#utility.yul\":4817:5511   */\n      pop\n      pop\n      jump\t// out\n        /* \"#utility.yul\":5517:5832   */\n    tag_16:\n        /* \"#utility.yul\":5656:5660   */\n      0x00\n        /* \"#utility.yul\":5694:5697   */\n      0xa0\n        /* \"#utility.yul\":5683:5692   */\n      dup3\n        /* \"#utility.yul\":5679:5698   */\n      add\n        /* \"#utility.yul\":5671:5698   */\n      swap1\n      pop\n        /* \"#utility.yul\":5708:5825   */\n      tag_141\n        /* \"#utility.yul\":5822:5823   */\n      0x00\n        /* \"#utility.yul\":5811:5820   */\n      dup4\n        /* \"#utility.yul\":5807:5824   */\n      add\n        /* \"#utility.yul\":5798:5804   */\n      dup5\n        /* \"#utility.yul\":5708:5825   */\n      tag_72\n      jump\t// in\n    tag_141:\n        /* \"#utility.yul\":5517:5832   */\n      swap3\n      swap2\n      pop\n      pop\n      jump\t// out\n        /* \"#utility.yul\":5838:6018   */\n    tag_73:\n        /* \"#utility.yul\":5886:5963   */\n      0x4e487b7100000000000000000000000000000000000000000000000000000000\n        /* \"#utility.yul\":5883:5884   */\n      0x00\n        /* \"#utility.yul\":5876:5964   */\n      mstore\n        /* \"#utility.yul\":5983:5987   */\n      0x11\n        /* \"#utility.yul\":5980:5981   */\n      0x04\n        /* \"#utility.yul\":5973:5988   */\n      mstore\n        /* \"#utility.yul\":6007:6011   */\n      0x24\n        /* \"#utility.yul\":6004:6005   */\n      0x00\n        /* \"#utility.yul\":5997:6012   */\n      revert\n        /* \"#utility.yul\":6024:6218   */\n    tag_29:\n        /* \"#utility.yul\":6064:6068   */\n      0x00\n        /* \"#utility.yul\":6084:6104   */\n      tag_144\n        /* \"#utility.yul\":6102:6103   */\n      dup3\n        /* \"#utility.yul\":6084:6104   */\n      tag_53\n      jump\t// in\n    tag_144:\n        /* \"#utility.yul\":6079:6104   */\n      swap2\n      pop\n        /* \"#utility.yul\":6118:6138   */\n      tag_145\n        /* \"#utility.yul\":6136:6137   */\n      dup4\n        /* \"#utility.yul\":6118:6138   */\n      tag_53\n      jump\t// in\n    tag_145:\n        /* \"#utility.yul\":6113:6138   */\n      swap3\n      pop\n        /* \"#utility.yul\":6162:6163   */\n      dup3\n        /* \"#utility.yul\":6159:6160   */\n      dup3\n        /* \"#utility.yul\":6155:6164   */\n      sub\n        /* \"#utility.yul\":6147:6164   */\n      swap1\n      pop\n        /* \"#utility.yul\":6186:6187   */\n      dup2\n        /* \"#utility.yul\":6180:6184   */\n      dup2\n        /* \"#utility.yul\":6177:6188   */\n      gt\n        /* \"#utility.yul\":6174:6211   */\n      iszero\n      tag_146\n      jumpi\n        /* \"#utility.yul\":6191:6209   */\n      tag_147\n      tag_73\n      jump\t// in\n    tag_147:\n        /* \"#utility.yul\":6174:6211   */\n    tag_146:\n        /* \"#utility.yul\":6024:6218   */\n      swap3\n      swap2\n      pop\n      pop\n      jump\t// out\n        /* \"#utility.yul\":6224:6404   */\n    tag_33:\n        /* \"#utility.yul\":6272:6349   */\n      0x4e487b7100000000000000000000000000000000000000000000000000000000\n        /* \"#utility.yul\":6269:6270   */\n      0x00\n        /* \"#utility.yul\":6262:6350   */\n      mstore\n        /* \"#utility.yul\":6369:6373   */\n      0x32\n        /* \"#utility.yul\":6366:6367   */\n      0x04\n        /* \"#utility.yul\":6359:6374   */\n      mstore\n        /* \"#utility.yul\":6393:6397   */\n      0x24\n        /* \"#utility.yul\":6390:6391   */\n      0x00\n        /* \"#utility.yul\":6383:6398   */\n      revert\n        /* \"#utility.yul\":6410:6643   */\n    tag_48:\n        /* \"#utility.yul\":6449:6452   */\n      0x00\n        /* \"#utility.yul\":6472:6496   */\n      tag_150\n        /* \"#utility.yul\":6490:6495   */\n      dup3\n        /* \"#utility.yul\":6472:6496   */\n      tag_53\n      jump\t// in\n    tag_150:\n        /* \"#utility.yul\":6463:6496   */\n      swap2\n      pop\n        /* \"#utility.yul\":6518:6584   */\n      0xffffffffffffffffffffffffffffffffffffffffffffffffffffffffffffffff\n        /* \"#utility.yul\":6511:6516   */\n      dup3\n        /* \"#utility.yul\":6508:6585   */\n      sub\n        /* \"#utility.yul\":6505:6608   */\n      tag_151\n      jumpi\n        /* \"#utility.yul\":6588:6606   */\n      tag_152\n      tag_73\n      jump\t// in\n    tag_152:\n        /* \"#utility.yul\":6505:6608   */\n    tag_151:\n        /* \"#utility.yul\":6635:6636   */\n      0x01\n        /* \"#utility.yul\":6628:6633   */\n      dup3\n        /* \"#utility.yul\":6624:6637   */\n      add\n        /* \"#utility.yul\":6617:6637   */\n      swap1\n      pop\n        /* \"#utility.yul\":6410:6643   */\n      swap2\n      swap1\n      pop\n      jump\t// out\n\n    auxdata: 0xa2646970667358221220fbb39fdc02b3970a0cd412d21907088e867ce32a9883da9efc863d9e13f6407464736f6c63430008120033\n}\n",
				"bytecode": {
					"linkReferences": {},
					"object": "60806040526040518060a00160405280600160ff168152602001600260ff168152602001600360ff168152602001602d60ff168152602001600560ff16815250600090600561004f929190610062565b5034801561005c57600080fd5b506100c4565b8260058101928215610096579160200282015b82811115610095578251829060ff16905591602001919060010190610075565b5b5090506100a391906100a7565b5090565b5b808211156100c05760008160009055506001016100a8565b5090565b6105e6806100d36000396000f3fe608060405234801561001057600080fd5b50600436106100365760003560e01c806371e5ee5f1461003b578063e9049e081461006b575b600080fd5b61005560048036038101906100509190610245565b61009b565b6040516100629190610281565b60405180910390f35b610085600480360381019061008091906103e3565b6100b6565b60405161009291906104bb565b60405180910390f35b600081600581106100ab57600080fd5b016000915090505481565b6100be6101de565b60005b60058110156101d5576000600190505b8160056100de9190610505565b8110156101c157836001826100f39190610505565b6005811061010457610103610539565b5b602002015184826005811061011c5761011b610539565b5b602002015110156101ae57600084826005811061013c5761013b610539565b5b60200201519050846001836101519190610505565b6005811061016257610161610539565b5b602002015185836005811061017a57610179610539565b5b60200201818152505080856001846101929190610505565b600581106101a3576101a2610539565b5b602002018181525050505b80806101b990610568565b9150506100d1565b5080806101cd90610568565b9150506100c1565b50819050919050565b6040518060a00160405280600590602082028036833780820191505090505090565b6000604051905090565b600080fd5b6000819050919050565b6102228161020f565b811461022d57600080fd5b50565b60008135905061023f81610219565b92915050565b60006020828403121561025b5761025a61020a565b5b600061026984828501610230565b91505092915050565b61027b8161020f565b82525050565b60006020820190506102966000830184610272565b92915050565b600080fd5b6000601f19601f8301169050919050565b7f4e487b7100000000000000000000000000000000000000000000000000000000600052604160045260246000fd5b6102ea826102a1565b810181811067ffffffffffffffff82111715610309576103086102b2565b5b80604052505050565b600061031c610200565b905061032882826102e1565b919050565b600067ffffffffffffffff821115610348576103476102b2565b5b602082029050919050565b600080fd5b600061036b6103668461032d565b610312565b9050806020840283018581111561038557610384610353565b5b835b818110156103ae578061039a8882610230565b845260208401935050602081019050610387565b5050509392505050565b600082601f8301126103cd576103cc61029c565b5b60056103da848285610358565b91505092915050565b600060a082840312156103f9576103f861020a565b5b6000610407848285016103b8565b91505092915050565b600060059050919050565b600081905092915050565b6000819050919050565b6104398161020f565b82525050565b600061044b8383610430565b60208301905092915050565b6000602082019050919050565b61046d81610410565b610477818461041b565b925061048282610426565b8060005b838110156104b357815161049a878261043f565b96506104a583610457565b925050600181019050610486565b505050505050565b600060a0820190506104d06000830184610464565b92915050565b7f4e487b7100000000000000000000000000000000000000000000000000000000600052601160045260246000fd5b60006105108261020f565b915061051b8361020f565b9250828203905081811115610533576105326104d6565b5b92915050565b7f4e487b7100000000000000000000000000000000000000000000000000000000600052603260045260246000fd5b60006105738261020f565b91507fffffffffffffffffffffffffffffffffffffffffffffffffffffffffffffffff82036105a5576105a46104d6565b5b60018201905091905056fea2646970667358221220fbb39fdc02b3970a0cd412d21907088e867ce32a9883da9efc863d9e13f6407464736f6c63430008120033",
					"opcodes": "PUSH1 0x80 PUSH1 0x40 MSTORE PUSH1 0x40 MLOAD DUP1 PUSH1 0xA0 ADD PUSH1 0x40 MSTORE DUP1 PUSH1 0x1 PUSH1 0xFF AND DUP2 MSTORE PUSH1 0x20 ADD PUSH1 0x2 PUSH1 0xFF AND DUP2 MSTORE PUSH1 0x20 ADD PUSH1 0x3 PUSH1 0xFF AND DUP2 MSTORE PUSH1 0x20 ADD PUSH1 0x2D PUSH1 0xFF AND DUP2 MSTORE PUSH1 0x20 ADD PUSH1 0x5 PUSH1 0xFF AND DUP2 MSTORE POP PUSH1 0x0 SWAP1 PUSH1 0x5 PUSH2 0x4F SWAP3 SWAP2 SWAP1 PUSH2 0x62 JUMP JUMPDEST POP CALLVALUE DUP1 ISZERO PUSH2 0x5C JUMPI PUSH1 0x0 DUP1 REVERT JUMPDEST POP PUSH2 0xC4 JUMP JUMPDEST DUP3 PUSH1 0x5 DUP2 ADD SWAP3 DUP3 ISZERO PUSH2 0x96 JUMPI SWAP2 PUSH1 0x20 MUL DUP3 ADD JUMPDEST DUP3 DUP2 GT ISZERO PUSH2 0x95 JUMPI DUP3 MLOAD DUP3 SWAP1 PUSH1 0xFF AND SWAP1 SSTORE SWAP2 PUSH1 0x20 ADD SWAP2 SWAP1 PUSH1 0x1 ADD SWAP1 PUSH2 0x75 JUMP JUMPDEST JUMPDEST POP SWAP1 POP PUSH2 0xA3 SWAP2 SWAP1 PUSH2 0xA7 JUMP JUMPDEST POP SWAP1 JUMP JUMPDEST JUMPDEST DUP1 DUP3 GT ISZERO PUSH2 0xC0 JUMPI PUSH1 0x0 DUP2 PUSH1 0x0 SWAP1 SSTORE POP PUSH1 0x1 ADD PUSH2 0xA8 JUMP JUMPDEST POP SWAP1 JUMP JUMPDEST PUSH2 0x5E6 DUP1 PUSH2 0xD3 PUSH1 0x0 CODECOPY PUSH1 0x0 RETURN INVALID PUSH1 0x80 PUSH1 0x40 MSTORE CALLVALUE DUP1 ISZERO PUSH2 0x10 JUMPI PUSH1 0x0 DUP1 REVERT JUMPDEST POP PUSH1 0x4 CALLDATASIZE LT PUSH2 0x36 JUMPI PUSH1 0x0 CALLDATALOAD PUSH1 0xE0 SHR DUP1 PUSH4 0x71E5EE5F EQ PUSH2 0x3B JUMPI DUP1 PUSH4 0xE9049E08 EQ PUSH2 0x6B JUMPI JUMPDEST PUSH1 0x0 DUP1 REVERT JUMPDEST PUSH2 0x55 PUSH1 0x4 DUP1 CALLDATASIZE SUB DUP2 ADD SWAP1 PUSH2 0x50 SWAP2 SWAP1 PUSH2 0x245 JUMP JUMPDEST PUSH2 0x9B JUMP JUMPDEST PUSH1 0x40 MLOAD PUSH2 0x62 SWAP2 SWAP1 PUSH2 0x281 JUMP JUMPDEST PUSH1 0x40 MLOAD DUP1 SWAP2 SUB SWAP1 RETURN JUMPDEST PUSH2 0x85 PUSH1 0x4 DUP1 CALLDATASIZE SUB DUP2 ADD SWAP1 PUSH2 0x80 SWAP2 SWAP1 PUSH2 0x3E3 JUMP JUMPDEST PUSH2 0xB6 JUMP JUMPDEST PUSH1 0x40 MLOAD PUSH2 0x92 SWAP2 SWAP1 PUSH2 0x4BB JUMP JUMPDEST PUSH1 0x40 MLOAD DUP1 SWAP2 SUB SWAP1 RETURN JUMPDEST PUSH1 0x0 DUP2 PUSH1 0x5 DUP2 LT PUSH2 0xAB JUMPI PUSH1 0x0 DUP1 REVERT JUMPDEST ADD PUSH1 0x0 SWAP2 POP SWAP1 POP SLOAD DUP2 JUMP JUMPDEST PUSH2 0xBE PUSH2 0x1DE JUMP JUMPDEST PUSH1 0x0 JUMPDEST PUSH1 0x5 DUP2 LT ISZERO PUSH2 0x1D5 JUMPI PUSH1 0x0 PUSH1 0x1 SWAP1 POP JUMPDEST DUP2 PUSH1 0x5 PUSH2 0xDE SWAP2 SWAP1 PUSH2 0x505 JUMP JUMPDEST DUP2 LT ISZERO PUSH2 0x1C1 JUMPI DUP4 PUSH1 0x1 DUP3 PUSH2 0xF3 SWAP2 SWAP1 PUSH2 0x505 JUMP JUMPDEST PUSH1 0x5 DUP2 LT PUSH2 0x104 JUMPI PUSH2 0x103 PUSH2 0x539 JUMP JUMPDEST JUMPDEST PUSH1 0x20 MUL ADD MLOAD DUP5 DUP3 PUSH1 0x5 DUP2 LT PUSH2 0x11C JUMPI PUSH2 0x11B PUSH2 0x539 JUMP JUMPDEST JUMPDEST PUSH1 0x20 MUL ADD MLOAD LT ISZERO PUSH2 0x1AE JUMPI PUSH1 0x0 DUP5 DUP3 PUSH1 0x5 DUP2 LT PUSH2 0x13C JUMPI PUSH2 0x13B PUSH2 0x539 JUMP JUMPDEST JUMPDEST PUSH1 0x20 MUL ADD MLOAD SWAP1 POP DUP5 PUSH1 0x1 DUP4 PUSH2 0x151 SWAP2 SWAP1 PUSH2 0x505 JUMP JUMPDEST PUSH1 0x5 DUP2 LT PUSH2 0x162 JUMPI PUSH2 0x161 PUSH2 0x539 JUMP JUMPDEST JUMPDEST PUSH1 0x20 MUL ADD MLOAD DUP6 DUP4 PUSH1 0x5 DUP2 LT PUSH2 0x17A JUMPI PUSH2 0x179 PUSH2 0x539 JUMP JUMPDEST JUMPDEST PUSH1 0x20 MUL ADD DUP2 DUP2 MSTORE POP POP DUP1 DUP6 PUSH1 0x1 DUP5 PUSH2 0x192 SWAP2 SWAP1 PUSH2 0x505 JUMP JUMPDEST PUSH1 0x5 DUP2 LT PUSH2 0x1A3 JUMPI PUSH2 0x1A2 PUSH2 0x539 JUMP JUMPDEST JUMPDEST PUSH1 0x20 MUL ADD DUP2 DUP2 MSTORE POP POP POP JUMPDEST DUP1 DUP1 PUSH2 0x1B9 SWAP1 PUSH2 0x568 JUMP JUMPDEST SWAP2 POP POP PUSH2 0xD1 JUMP JUMPDEST POP DUP1 DUP1 PUSH2 0x1CD SWAP1 PUSH2 0x568 JUMP JUMPDEST SWAP2 POP POP PUSH2 0xC1 JUMP JUMPDEST POP DUP2 SWAP1 POP SWAP2 SWAP1 POP JUMP JUMPDEST PUSH1 0x40 MLOAD DUP1 PUSH1 0xA0 ADD PUSH1 0x40 MSTORE DUP1 PUSH1 0x5 SWAP1 PUSH1 0x20 DUP3 MUL DUP1 CALLDATASIZE DUP4 CALLDATACOPY DUP1 DUP3 ADD SWAP2 POP POP SWAP1 POP POP SWAP1 JUMP JUMPDEST PUSH1 0x0 PUSH1 0x40 MLOAD SWAP1 POP SWAP1 JUMP JUMPDEST PUSH1 0x0 DUP1 REVERT JUMPDEST PUSH1 0x0 DUP2 SWAP1 POP SWAP2 SWAP1 POP JUMP JUMPDEST PUSH2 0x222 DUP2 PUSH2 0x20F JUMP JUMPDEST DUP2 EQ PUSH2 0x22D JUMPI PUSH1 0x0 DUP1 REVERT JUMPDEST POP JUMP JUMPDEST PUSH1 0x0 DUP2 CALLDATALOAD SWAP1 POP PUSH2 0x23F DUP2 PUSH2 0x219 JUMP JUMPDEST SWAP3 SWAP2 POP POP JUMP JUMPDEST PUSH1 0x0 PUSH1 0x20 DUP3 DUP5 SUB SLT ISZERO PUSH2 0x25B JUMPI PUSH2 0x25A PUSH2 0x20A JUMP JUMPDEST JUMPDEST PUSH1 0x0 PUSH2 0x269 DUP5 DUP3 DUP6 ADD PUSH2 0x230 JUMP JUMPDEST SWAP2 POP POP SWAP3 SWAP2 POP POP JUMP JUMPDEST PUSH2 0x27B DUP2 PUSH2 0x20F JUMP JUMPDEST DUP3 MSTORE POP POP JUMP JUMPDEST PUSH1 0x0 PUSH1 0x20 DUP3 ADD SWAP1 POP PUSH2 0x296 PUSH1 0x0 DUP4 ADD DUP5 PUSH2 0x272 JUMP JUMPDEST SWAP3 SWAP2 POP POP JUMP JUMPDEST PUSH1 0x0 DUP1 REVERT JUMPDEST PUSH1 0x0 PUSH1 0x1F NOT PUSH1 0x1F DUP4 ADD AND SWAP1 POP SWAP2 SWAP1 POP JUMP JUMPDEST PUSH32 0x4E487B7100000000000000000000000000000000000000000000000000000000 PUSH1 0x0 MSTORE PUSH1 0x41 PUSH1 0x4 MSTORE PUSH1 0x24 PUSH1 0x0 REVERT JUMPDEST PUSH2 0x2EA DUP3 PUSH2 0x2A1 JUMP JUMPDEST DUP2 ADD DUP2 DUP2 LT PUSH8 0xFFFFFFFFFFFFFFFF DUP3 GT OR ISZERO PUSH2 0x309 JUMPI PUSH2 0x308 PUSH2 0x2B2 JUMP JUMPDEST JUMPDEST DUP1 PUSH1 0x40 MSTORE POP POP POP JUMP JUMPDEST PUSH1 0x0 PUSH2 0x31C PUSH2 0x200 JUMP JUMPDEST SWAP1 POP PUSH2 0x328 DUP3 DUP3 PUSH2 0x2E1 JUMP JUMPDEST SWAP2 SWAP1 POP JUMP JUMPDEST PUSH1 0x0 PUSH8 0xFFFFFFFFFFFFFFFF DUP3 GT ISZERO PUSH2 0x348 JUMPI PUSH2 0x347 PUSH2 0x2B2 JUMP JUMPDEST JUMPDEST PUSH1 0x20 DUP3 MUL SWAP1 POP SWAP2 SWAP1 POP JUMP JUMPDEST PUSH1 0x0 DUP1 REVERT JUMPDEST PUSH1 0x0 PUSH2 0x36B PUSH2 0x366 DUP5 PUSH2 0x32D JUMP JUMPDEST PUSH2 0x312 JUMP JUMPDEST SWAP1 POP DUP1 PUSH1 0x20 DUP5 MUL DUP4 ADD DUP6 DUP2 GT ISZERO PUSH2 0x385 JUMPI PUSH2 0x384 PUSH2 0x353 JUMP JUMPDEST JUMPDEST DUP4 JUMPDEST DUP2 DUP2 LT ISZERO PUSH2 0x3AE JUMPI DUP1 PUSH2 0x39A DUP9 DUP3 PUSH2 0x230 JUMP JUMPDEST DUP5 MSTORE PUSH1 0x20 DUP5 ADD SWAP4 POP POP PUSH1 0x20 DUP2 ADD SWAP1 POP PUSH2 0x387 JUMP JUMPDEST POP POP POP SWAP4 SWAP3 POP POP POP JUMP JUMPDEST PUSH1 0x0 DUP3 PUSH1 0x1F DUP4 ADD SLT PUSH2 0x3CD JUMPI PUSH2 0x3CC PUSH2 0x29C JUMP JUMPDEST JUMPDEST PUSH1 0x5 PUSH2 0x3DA DUP5 DUP3 DUP6 PUSH2 0x358 JUMP JUMPDEST SWAP2 POP POP SWAP3 SWAP2 POP POP JUMP JUMPDEST PUSH1 0x0 PUSH1 0xA0 DUP3 DUP5 SUB SLT ISZERO PUSH2 0x3F9 JUMPI PUSH2 0x3F8 PUSH2 0x20A JUMP JUMPDEST JUMPDEST PUSH1 0x0 PUSH2 0x407 DUP5 DUP3 DUP6 ADD PUSH2 0x3B8 JUMP JUMPDEST SWAP2 POP POP SWAP3 SWAP2 POP POP JUMP JUMPDEST PUSH1 0x0 PUSH1 0x5 SWAP1 POP SWAP2 SWAP1 POP JUMP JUMPDEST PUSH1 0x0 DUP2 SWAP1 POP SWAP3 SWAP2 POP POP JUMP JUMPDEST PUSH1 0x0 DUP2 SWAP1 POP SWAP2 SWAP1 POP JUMP JUMPDEST PUSH2 0x439 DUP2 PUSH2 0x20F JUMP JUMPDEST DUP3 MSTORE POP POP JUMP JUMPDEST PUSH1 0x0 PUSH2 0x44B DUP4 DUP4 PUSH2 0x430 JUMP JUMPDEST PUSH1 0x20 DUP4 ADD SWAP1 POP SWAP3 SWAP2 POP POP JUMP JUMPDEST PUSH1 0x0 PUSH1 0x20 DUP3 ADD SWAP1 POP SWAP2 SWAP1 POP JUMP JUMPDEST PUSH2 0x46D DUP2 PUSH2 0x410 JUMP JUMPDEST PUSH2 0x477 DUP2 DUP5 PUSH2 0x41B JUMP JUMPDEST SWAP3 POP PUSH2 0x482 DUP3 PUSH2 0x426 JUMP JUMPDEST DUP1 PUSH1 0x0 JUMPDEST DUP4 DUP2 LT ISZERO PUSH2 0x4B3 JUMPI DUP2 MLOAD PUSH2 0x49A DUP8 DUP3 PUSH2 0x43F JUMP JUMPDEST SWAP7 POP PUSH2 0x4A5 DUP4 PUSH2 0x457 JUMP JUMPDEST SWAP3 POP POP PUSH1 0x1 DUP2 ADD SWAP1 POP PUSH2 0x486 JUMP JUMPDEST POP POP POP POP POP POP JUMP JUMPDEST PUSH1 0x0 PUSH1 0xA0 DUP3 ADD SWAP1 POP PUSH2 0x4D0 PUSH1 0x0 DUP4 ADD DUP5 PUSH2 0x464 JUMP JUMPDEST SWAP3 SWAP2 POP POP JUMP JUMPDEST PUSH32 0x4E487B7100000000000000000000000000000000000000000000000000000000 PUSH1 0x0 MSTORE PUSH1 0x11 PUSH1 0x4 MSTORE PUSH1 0x24 PUSH1 0x0 REVERT JUMPDEST PUSH1 0x0 PUSH2 0x510 DUP3 PUSH2 0x20F JUMP JUMPDEST SWAP2 POP PUSH2 0x51B DUP4 PUSH2 0x20F JUMP JUMPDEST SWAP3 POP DUP3 DUP3 SUB SWAP1 POP DUP2 DUP2 GT ISZERO PUSH2 0x533 JUMPI PUSH2 0x532 PUSH2 0x4D6 JUMP JUMPDEST JUMPDEST SWAP3 SWAP2 POP POP JUMP JUMPDEST PUSH32 0x4E487B7100000000000000000000000000000000000000000000000000000000 PUSH1 0x0 MSTORE PUSH1 0x32 PUSH1 0x4 MSTORE PUSH1 0x24 PUSH1 0x0 REVERT JUMPDEST PUSH1 0x0 PUSH2 0x573 DUP3 PUSH2 0x20F JUMP JUMPDEST SWAP2 POP PUSH32 0xFFFFFFFFFFFFFFFFFFFFFFFFFFFFFFFFFFFFFFFFFFFFFFFFFFFFFFFFFFFFFFFF DUP3 SUB PUSH2 0x5A5 JUMPI PUSH2 0x5A4 PUSH2 0x4D6 JUMP JUMPDEST JUMPDEST PUSH1 0x1 DUP3 ADD SWAP1 POP SWAP2 SWAP1 POP JUMP INVALID LOG2 PUSH5 0x6970667358 0x22 SLT KECCAK256 0xFB 0xB3 SWAP16 0xDC MUL 0xB3 SWAP8 EXP 0xC 0xD4 SLT 0xD2 NOT SMOD ADDMOD DUP15 DUP7 PUSH29 0xE32A9883DA9EFC863D9E13F6407464736F6C6343000812003300000000 "
				},
				"gasEstimates": {
					"creation": {
						"codeDepositCost": "302000",
						"executionCost": "infinite",
						"totalCost": "infinite"
					},
					"external": {
						"arr(uint256)": "infinite",
						"sortingArray(uint256[5])": "infinite"
					}
				},
				"methodIdentifiers": {
					"arr(uint256)": "71e5ee5f",
					"sortingArray(uint256[5])": "e9049e08"
				}
			},
			"storageLayout": {
				"storage": [
					{
						"astId": 11,
						"contract": "contracts/5sorting.sol:ArraySorting",
						"label": "arr",
						"offset": 0,
						"slot": "0",
						"type": "t_array(t_uint256)5_storage"
					}
				],
				"types": {
					"t_array(t_uint256)5_storage": {
						"base": "t_uint256",
						"encoding": "inplace",
						"label": "uint256[5]",
						"numberOfBytes": "160"
					},
					"t_uint256": {
						"encoding": "inplace",
						"label": "uint256",
						"numberOfBytes": "32"
					}
				}
			},
			"userdoc": {
				"kind": "user",
				"methods": {},
				"version": 1
			}
		}
	}
}