{
	"contracts/14DynamicString.sol": {
		"DynamicString": {
			"abi": [
				{
					"inputs": [],
					"name": "delation",
					"outputs": [],
					"stateMutability": "nonpayable",
					"type": "function"
				},
				{
					"inputs": [
						{
							"internalType": "string",
							"name": "element",
							"type": "string"
						}
					],
					"name": "insertString",
					"outputs": [],
					"stateMutability": "nonpayable",
					"type": "function"
				},
				{
					"inputs": [],
					"name": "returnString",
					"outputs": [
						{
							"internalType": "string[]",
							"name": "",
							"type": "string[]"
						}
					],
					"stateMutability": "view",
					"type": "function"
				},
				{
					"inputs": [
						{
							"internalType": "uint256",
							"name": "",
							"type": "uint256"
						}
					],
					"name": "str",
					"outputs": [
						{
							"internalType": "string",
							"name": "",
							"type": "string"
						}
					],
					"stateMutability": "view",
					"type": "function"
				}
			],
			"devdoc": {
				"kind": "dev",
				"methods": {},
				"version": 1
			},
			"evm": {
				"assembly": "    /* \"contracts/14DynamicString.sol\":58:364  contract DynamicString{... */\n  mstore(0x40, 0x80)\n  callvalue\n  dup1\n  iszero\n  tag_1\n  jumpi\n  0x00\n  dup1\n  revert\ntag_1:\n  pop\n  dataSize(sub_0)\n  dup1\n  dataOffset(sub_0)\n  0x00\n  codecopy\n  0x00\n  return\nstop\n\nsub_0: assembly {\n        /* \"contracts/14DynamicString.sol\":58:364  contract DynamicString{... */\n      mstore(0x40, 0x80)\n      callvalue\n      dup1\n      iszero\n      tag_1\n      jumpi\n      0x00\n      dup1\n      revert\n    tag_1:\n      pop\n      jumpi(tag_2, lt(calldatasize, 0x04))\n      shr(0xe0, calldataload(0x00))\n      dup1\n      0x6cf43347\n      eq\n      tag_3\n      jumpi\n      dup1\n      0x72511838\n      eq\n      tag_4\n      jumpi\n      dup1\n      0xa402c2e9\n      eq\n      tag_5\n      jumpi\n      dup1\n      0xb7b3d9b5\n      eq\n      tag_6\n      jumpi\n    tag_2:\n      0x00\n      dup1\n      revert\n        /* \"contracts/14DynamicString.sol\":272:361  function returnString() public view returns(string[] memory){... */\n    tag_3:\n      tag_7\n      tag_8\n      jump\t// in\n    tag_7:\n      mload(0x40)\n      tag_9\n      swap2\n      swap1\n      tag_10\n      jump\t// in\n    tag_9:\n      mload(0x40)\n      dup1\n      swap2\n      sub\n      swap1\n      return\n        /* \"contracts/14DynamicString.sol\":87:107  string[]  public str */\n    tag_4:\n      tag_11\n      0x04\n      dup1\n      calldatasize\n      sub\n      dup2\n      add\n      swap1\n      tag_12\n      swap2\n      swap1\n      tag_13\n      jump\t// in\n    tag_12:\n      tag_14\n      jump\t// in\n    tag_11:\n      mload(0x40)\n      tag_15\n      swap2\n      swap1\n      tag_16\n      jump\t// in\n    tag_15:\n      mload(0x40)\n      dup1\n      swap2\n      sub\n      swap1\n      return\n        /* \"contracts/14DynamicString.sol\":210:264  function delation() public{... */\n    tag_5:\n      tag_17\n      tag_18\n      jump\t// in\n    tag_17:\n      stop\n        /* \"contracts/14DynamicString.sol\":114:202  function insertString(string memory element) public {... */\n    tag_6:\n      tag_19\n      0x04\n      dup1\n      calldatasize\n      sub\n      dup2\n      add\n      swap1\n      tag_20\n      swap2\n      swap1\n      tag_21\n      jump\t// in\n    tag_20:\n      tag_22\n      jump\t// in\n    tag_19:\n      stop\n        /* \"contracts/14DynamicString.sol\":272:361  function returnString() public view returns(string[] memory){... */\n    tag_8:\n        /* \"contracts/14DynamicString.sol\":316:331  string[] memory */\n      0x60\n        /* \"contracts/14DynamicString.sol\":350:353  str */\n      0x00\n        /* \"contracts/14DynamicString.sol\":343:353  return str */\n      dup1\n      sload\n      dup1\n      0x20\n      mul\n      0x20\n      add\n      mload(0x40)\n      swap1\n      dup2\n      add\n      0x40\n      mstore\n      dup1\n      swap3\n      swap2\n      swap1\n      dup2\n      dup2\n      mstore\n      0x20\n      add\n      0x00\n      swap1\n    tag_24:\n      dup3\n      dup3\n      lt\n      iszero\n      tag_25\n      jumpi\n      dup4\n      dup3\n      swap1\n      0x00\n      mstore\n      keccak256(0x00, 0x20)\n      add\n      dup1\n      sload\n      tag_27\n      swap1\n      tag_28\n      jump\t// in\n    tag_27:\n      dup1\n      0x1f\n      add\n      0x20\n      dup1\n      swap2\n      div\n      mul\n      0x20\n      add\n      mload(0x40)\n      swap1\n      dup2\n      add\n      0x40\n      mstore\n      dup1\n      swap3\n      swap2\n      swap1\n      dup2\n      dup2\n      mstore\n      0x20\n      add\n      dup3\n      dup1\n      sload\n      tag_29\n      swap1\n      tag_28\n      jump\t// in\n    tag_29:\n      dup1\n      iszero\n      tag_30\n      jumpi\n      dup1\n      0x1f\n      lt\n      tag_31\n      jumpi\n      0x0100\n      dup1\n      dup4\n      sload\n      div\n      mul\n      dup4\n      mstore\n      swap2\n      0x20\n      add\n      swap2\n      jump(tag_30)\n    tag_31:\n      dup3\n      add\n      swap2\n      swap1\n      0x00\n      mstore\n      keccak256(0x00, 0x20)\n      swap1\n    tag_32:\n      dup2\n      sload\n      dup2\n      mstore\n      swap1\n      0x01\n      add\n      swap1\n      0x20\n      add\n      dup1\n      dup4\n      gt\n      tag_32\n      jumpi\n      dup3\n      swap1\n      sub\n      0x1f\n      and\n      dup3\n      add\n      swap2\n    tag_30:\n      pop\n      pop\n      pop\n      pop\n      pop\n      dup2\n      mstore\n      0x20\n      add\n      swap1\n      0x01\n      add\n      swap1\n      jump(tag_24)\n    tag_25:\n      pop\n      pop\n      pop\n      pop\n      swap1\n      pop\n        /* \"contracts/14DynamicString.sol\":272:361  function returnString() public view returns(string[] memory){... */\n      swap1\n      jump\t// out\n        /* \"contracts/14DynamicString.sol\":87:107  string[]  public str */\n    tag_14:\n      0x00\n      dup2\n      dup2\n      sload\n      dup2\n      lt\n      tag_33\n      jumpi\n      0x00\n      dup1\n      revert\n    tag_33:\n      swap1\n      0x00\n      mstore\n      keccak256(0x00, 0x20)\n      add\n      0x00\n      swap2\n      pop\n      swap1\n      pop\n      dup1\n      sload\n      tag_35\n      swap1\n      tag_28\n      jump\t// in\n    tag_35:\n      dup1\n      0x1f\n      add\n      0x20\n      dup1\n      swap2\n      div\n      mul\n      0x20\n      add\n      mload(0x40)\n      swap1\n      dup2\n      add\n      0x40\n      mstore\n      dup1\n      swap3\n      swap2\n      swap1\n      dup2\n      dup2\n      mstore\n      0x20\n      add\n      dup3\n      dup1\n      sload\n      tag_36\n      swap1\n      tag_28\n      jump\t// in\n    tag_36:\n      dup1\n      iszero\n      tag_37\n      jumpi\n      dup1\n      0x1f\n      lt\n      tag_38\n      jumpi\n      0x0100\n      dup1\n      dup4\n      sload\n      div\n      mul\n      dup4\n      mstore\n      swap2\n      0x20\n      add\n      swap2\n      jump(tag_37)\n    tag_38:\n      dup3\n      add\n      swap2\n      swap1\n      0x00\n      mstore\n      keccak256(0x00, 0x20)\n      swap1\n    tag_39:\n      dup2\n      sload\n      dup2\n      mstore\n      swap1\n      0x01\n      add\n      swap1\n      0x20\n      add\n      dup1\n      dup4\n      gt\n      tag_39\n      jumpi\n      dup3\n      swap1\n      sub\n      0x1f\n      and\n      dup3\n      add\n      swap2\n    tag_37:\n      pop\n      pop\n      pop\n      pop\n      pop\n      dup2\n      jump\t// out\n        /* \"contracts/14DynamicString.sol\":210:264  function delation() public{... */\n    tag_18:\n        /* \"contracts/14DynamicString.sol\":247:250  str */\n      0x00\n        /* \"contracts/14DynamicString.sol\":247:256  str.pop() */\n      dup1\n      sload\n      dup1\n      tag_41\n      jumpi\n      tag_42\n      tag_43\n      jump\t// in\n    tag_42:\n    tag_41:\n      0x01\n      swap1\n      sub\n      dup2\n      dup2\n      swap1\n      0x00\n      mstore\n      keccak256(0x00, 0x20)\n      add\n      0x00\n      tag_45\n      swap2\n      swap1\n      tag_46\n      jump\t// in\n    tag_45:\n      swap1\n      sstore\n        /* \"contracts/14DynamicString.sol\":210:264  function delation() public{... */\n      jump\t// out\n        /* \"contracts/14DynamicString.sol\":114:202  function insertString(string memory element) public {... */\n    tag_22:\n        /* \"contracts/14DynamicString.sol\":177:180  str */\n      0x00\n        /* \"contracts/14DynamicString.sol\":186:193  element */\n      dup2\n        /* \"contracts/14DynamicString.sol\":177:194  str.push(element) */\n      swap1\n      dup1\n      0x01\n      dup2\n      sload\n      add\n      dup1\n      dup3\n      sstore\n      dup1\n      swap2\n      pop\n      pop\n      0x01\n      swap1\n      sub\n      swap1\n      0x00\n      mstore\n      keccak256(0x00, 0x20)\n      add\n      0x00\n      swap1\n      swap2\n      swap1\n      swap2\n      swap1\n      swap2\n      pop\n      swap1\n      dup2\n      tag_49\n      swap2\n      swap1\n      tag_50\n      jump\t// in\n    tag_49:\n      pop\n        /* \"contracts/14DynamicString.sol\":114:202  function insertString(string memory element) public {... */\n      pop\n      jump\t// out\n    tag_46:\n      pop\n      dup1\n      sload\n      tag_51\n      swap1\n      tag_28\n      jump\t// in\n    tag_51:\n      0x00\n      dup3\n      sstore\n      dup1\n      0x1f\n      lt\n      tag_53\n      jumpi\n      pop\n      jump(tag_52)\n    tag_53:\n      0x1f\n      add\n      0x20\n      swap1\n      div\n      swap1\n      0x00\n      mstore\n      keccak256(0x00, 0x20)\n      swap1\n      dup2\n      add\n      swap1\n      tag_54\n      swap2\n      swap1\n      tag_55\n      jump\t// in\n    tag_54:\n    tag_52:\n      pop\n      jump\t// out\n    tag_55:\n    tag_56:\n      dup1\n      dup3\n      gt\n      iszero\n      tag_57\n      jumpi\n      0x00\n      dup2\n      0x00\n      swap1\n      sstore\n      pop\n      0x01\n      add\n      jump(tag_56)\n    tag_57:\n      pop\n      swap1\n      jump\t// out\n        /* \"#utility.yul\":7:131   */\n    tag_58:\n        /* \"#utility.yul\":84:90   */\n      0x00\n        /* \"#utility.yul\":118:123   */\n      dup2\n        /* \"#utility.yul\":112:124   */\n      mload\n        /* \"#utility.yul\":102:124   */\n      swap1\n      pop\n        /* \"#utility.yul\":7:131   */\n      swap2\n      swap1\n      pop\n      jump\t// out\n        /* \"#utility.yul\":137:331   */\n    tag_59:\n        /* \"#utility.yul\":246:257   */\n      0x00\n        /* \"#utility.yul\":280:286   */\n      dup3\n        /* \"#utility.yul\":275:278   */\n      dup3\n        /* \"#utility.yul\":268:287   */\n      mstore\n        /* \"#utility.yul\":320:324   */\n      0x20\n        /* \"#utility.yul\":315:318   */\n      dup3\n        /* \"#utility.yul\":311:325   */\n      add\n        /* \"#utility.yul\":296:325   */\n      swap1\n      pop\n        /* \"#utility.yul\":137:331   */\n      swap3\n      swap2\n      pop\n      pop\n      jump\t// out\n        /* \"#utility.yul\":337:479   */\n    tag_60:\n        /* \"#utility.yul\":414:418   */\n      0x00\n        /* \"#utility.yul\":437:440   */\n      dup2\n        /* \"#utility.yul\":429:440   */\n      swap1\n      pop\n        /* \"#utility.yul\":467:471   */\n      0x20\n        /* \"#utility.yul\":462:465   */\n      dup3\n        /* \"#utility.yul\":458:472   */\n      add\n        /* \"#utility.yul\":450:472   */\n      swap1\n      pop\n        /* \"#utility.yul\":337:479   */\n      swap2\n      swap1\n      pop\n      jump\t// out\n        /* \"#utility.yul\":485:584   */\n    tag_61:\n        /* \"#utility.yul\":537:543   */\n      0x00\n        /* \"#utility.yul\":571:576   */\n      dup2\n        /* \"#utility.yul\":565:577   */\n      mload\n        /* \"#utility.yul\":555:577   */\n      swap1\n      pop\n        /* \"#utility.yul\":485:584   */\n      swap2\n      swap1\n      pop\n      jump\t// out\n        /* \"#utility.yul\":590:749   */\n    tag_62:\n        /* \"#utility.yul\":664:675   */\n      0x00\n        /* \"#utility.yul\":698:704   */\n      dup3\n        /* \"#utility.yul\":693:696   */\n      dup3\n        /* \"#utility.yul\":686:705   */\n      mstore\n        /* \"#utility.yul\":738:742   */\n      0x20\n        /* \"#utility.yul\":733:736   */\n      dup3\n        /* \"#utility.yul\":729:743   */\n      add\n        /* \"#utility.yul\":714:743   */\n      swap1\n      pop\n        /* \"#utility.yul\":590:749   */\n      swap3\n      swap2\n      pop\n      pop\n      jump\t// out\n        /* \"#utility.yul\":755:1001   */\n    tag_63:\n        /* \"#utility.yul\":836:837   */\n      0x00\n        /* \"#utility.yul\":846:959   */\n    tag_109:\n        /* \"#utility.yul\":860:866   */\n      dup4\n        /* \"#utility.yul\":857:858   */\n      dup2\n        /* \"#utility.yul\":854:867   */\n      lt\n        /* \"#utility.yul\":846:959   */\n      iszero\n      tag_111\n      jumpi\n        /* \"#utility.yul\":945:946   */\n      dup1\n        /* \"#utility.yul\":940:943   */\n      dup3\n        /* \"#utility.yul\":936:947   */\n      add\n        /* \"#utility.yul\":930:948   */\n      mload\n        /* \"#utility.yul\":926:927   */\n      dup2\n        /* \"#utility.yul\":921:924   */\n      dup5\n        /* \"#utility.yul\":917:928   */\n      add\n        /* \"#utility.yul\":910:949   */\n      mstore\n        /* \"#utility.yul\":882:884   */\n      0x20\n        /* \"#utility.yul\":879:880   */\n      dup2\n        /* \"#utility.yul\":875:885   */\n      add\n        /* \"#utility.yul\":870:885   */\n      swap1\n      pop\n        /* \"#utility.yul\":846:959   */\n      jump(tag_109)\n    tag_111:\n        /* \"#utility.yul\":993:994   */\n      0x00\n        /* \"#utility.yul\":984:990   */\n      dup5\n        /* \"#utility.yul\":979:982   */\n      dup5\n        /* \"#utility.yul\":975:991   */\n      add\n        /* \"#utility.yul\":968:995   */\n      mstore\n        /* \"#utility.yul\":817:1001   */\n      pop\n        /* \"#utility.yul\":755:1001   */\n      pop\n      pop\n      pop\n      jump\t// out\n        /* \"#utility.yul\":1007:1109   */\n    tag_64:\n        /* \"#utility.yul\":1048:1054   */\n      0x00\n        /* \"#utility.yul\":1099:1101   */\n      0x1f\n        /* \"#utility.yul\":1095:1102   */\n      not\n        /* \"#utility.yul\":1090:1092   */\n      0x1f\n        /* \"#utility.yul\":1083:1088   */\n      dup4\n        /* \"#utility.yul\":1079:1093   */\n      add\n        /* \"#utility.yul\":1075:1103   */\n      and\n        /* \"#utility.yul\":1065:1103   */\n      swap1\n      pop\n        /* \"#utility.yul\":1007:1109   */\n      swap2\n      swap1\n      pop\n      jump\t// out\n        /* \"#utility.yul\":1115:1472   */\n    tag_65:\n        /* \"#utility.yul\":1193:1196   */\n      0x00\n        /* \"#utility.yul\":1221:1260   */\n      tag_114\n        /* \"#utility.yul\":1254:1259   */\n      dup3\n        /* \"#utility.yul\":1221:1260   */\n      tag_61\n      jump\t// in\n    tag_114:\n        /* \"#utility.yul\":1276:1337   */\n      tag_115\n        /* \"#utility.yul\":1330:1336   */\n      dup2\n        /* \"#utility.yul\":1325:1328   */\n      dup6\n        /* \"#utility.yul\":1276:1337   */\n      tag_62\n      jump\t// in\n    tag_115:\n        /* \"#utility.yul\":1269:1337   */\n      swap4\n      pop\n        /* \"#utility.yul\":1346:1411   */\n      tag_116\n        /* \"#utility.yul\":1404:1410   */\n      dup2\n        /* \"#utility.yul\":1399:1402   */\n      dup6\n        /* \"#utility.yul\":1392:1396   */\n      0x20\n        /* \"#utility.yul\":1385:1390   */\n      dup7\n        /* \"#utility.yul\":1381:1397   */\n      add\n        /* \"#utility.yul\":1346:1411   */\n      tag_63\n      jump\t// in\n    tag_116:\n        /* \"#utility.yul\":1436:1465   */\n      tag_117\n        /* \"#utility.yul\":1458:1464   */\n      dup2\n        /* \"#utility.yul\":1436:1465   */\n      tag_64\n      jump\t// in\n    tag_117:\n        /* \"#utility.yul\":1431:1434   */\n      dup5\n        /* \"#utility.yul\":1427:1466   */\n      add\n        /* \"#utility.yul\":1420:1466   */\n      swap2\n      pop\n        /* \"#utility.yul\":1197:1472   */\n      pop\n        /* \"#utility.yul\":1115:1472   */\n      swap3\n      swap2\n      pop\n      pop\n      jump\t// out\n        /* \"#utility.yul\":1478:1674   */\n    tag_66:\n        /* \"#utility.yul\":1567:1577   */\n      0x00\n        /* \"#utility.yul\":1602:1668   */\n      tag_119\n        /* \"#utility.yul\":1664:1667   */\n      dup4\n        /* \"#utility.yul\":1656:1662   */\n      dup4\n        /* \"#utility.yul\":1602:1668   */\n      tag_65\n      jump\t// in\n    tag_119:\n        /* \"#utility.yul\":1588:1668   */\n      swap1\n      pop\n        /* \"#utility.yul\":1478:1674   */\n      swap3\n      swap2\n      pop\n      pop\n      jump\t// out\n        /* \"#utility.yul\":1680:1803   */\n    tag_67:\n        /* \"#utility.yul\":1760:1764   */\n      0x00\n        /* \"#utility.yul\":1792:1796   */\n      0x20\n        /* \"#utility.yul\":1787:1790   */\n      dup3\n        /* \"#utility.yul\":1783:1797   */\n      add\n        /* \"#utility.yul\":1775:1797   */\n      swap1\n      pop\n        /* \"#utility.yul\":1680:1803   */\n      swap2\n      swap1\n      pop\n      jump\t// out\n        /* \"#utility.yul\":1837:2828   */\n    tag_68:\n        /* \"#utility.yul\":1976:1979   */\n      0x00\n        /* \"#utility.yul\":2005:2069   */\n      tag_122\n        /* \"#utility.yul\":2063:2068   */\n      dup3\n        /* \"#utility.yul\":2005:2069   */\n      tag_58\n      jump\t// in\n    tag_122:\n        /* \"#utility.yul\":2085:2181   */\n      tag_123\n        /* \"#utility.yul\":2174:2180   */\n      dup2\n        /* \"#utility.yul\":2169:2172   */\n      dup6\n        /* \"#utility.yul\":2085:2181   */\n      tag_59\n      jump\t// in\n    tag_123:\n        /* \"#utility.yul\":2078:2181   */\n      swap4\n      pop\n        /* \"#utility.yul\":2207:2210   */\n      dup4\n        /* \"#utility.yul\":2252:2256   */\n      0x20\n        /* \"#utility.yul\":2244:2250   */\n      dup3\n        /* \"#utility.yul\":2240:2257   */\n      mul\n        /* \"#utility.yul\":2235:2238   */\n      dup6\n        /* \"#utility.yul\":2231:2258   */\n      add\n        /* \"#utility.yul\":2282:2348   */\n      tag_124\n        /* \"#utility.yul\":2342:2347   */\n      dup6\n        /* \"#utility.yul\":2282:2348   */\n      tag_60\n      jump\t// in\n    tag_124:\n        /* \"#utility.yul\":2371:2378   */\n      dup1\n        /* \"#utility.yul\":2402:2403   */\n      0x00\n        /* \"#utility.yul\":2387:2783   */\n    tag_125:\n        /* \"#utility.yul\":2412:2418   */\n      dup6\n        /* \"#utility.yul\":2409:2410   */\n      dup2\n        /* \"#utility.yul\":2406:2419   */\n      lt\n        /* \"#utility.yul\":2387:2783   */\n      iszero\n      tag_127\n      jumpi\n        /* \"#utility.yul\":2483:2492   */\n      dup5\n        /* \"#utility.yul\":2477:2481   */\n      dup5\n        /* \"#utility.yul\":2473:2493   */\n      sub\n        /* \"#utility.yul\":2468:2471   */\n      dup10\n        /* \"#utility.yul\":2461:2494   */\n      mstore\n        /* \"#utility.yul\":2534:2540   */\n      dup2\n        /* \"#utility.yul\":2528:2541   */\n      mload\n        /* \"#utility.yul\":2562:2646   */\n      tag_128\n        /* \"#utility.yul\":2641:2645   */\n      dup6\n        /* \"#utility.yul\":2626:2639   */\n      dup3\n        /* \"#utility.yul\":2562:2646   */\n      tag_66\n      jump\t// in\n    tag_128:\n        /* \"#utility.yul\":2554:2646   */\n      swap5\n      pop\n        /* \"#utility.yul\":2669:2739   */\n      tag_129\n        /* \"#utility.yul\":2732:2738   */\n      dup4\n        /* \"#utility.yul\":2669:2739   */\n      tag_67\n      jump\t// in\n    tag_129:\n        /* \"#utility.yul\":2659:2739   */\n      swap3\n      pop\n        /* \"#utility.yul\":2768:2772   */\n      0x20\n        /* \"#utility.yul\":2763:2766   */\n      dup11\n        /* \"#utility.yul\":2759:2773   */\n      add\n        /* \"#utility.yul\":2752:2773   */\n      swap10\n      pop\n        /* \"#utility.yul\":2447:2783   */\n      pop\n        /* \"#utility.yul\":2434:2435   */\n      0x01\n        /* \"#utility.yul\":2431:2432   */\n      dup2\n        /* \"#utility.yul\":2427:2436   */\n      add\n        /* \"#utility.yul\":2422:2436   */\n      swap1\n      pop\n        /* \"#utility.yul\":2387:2783   */\n      jump(tag_125)\n    tag_127:\n        /* \"#utility.yul\":2391:2405   */\n      pop\n        /* \"#utility.yul\":2799:2803   */\n      dup3\n        /* \"#utility.yul\":2792:2803   */\n      swap8\n      pop\n        /* \"#utility.yul\":2819:2822   */\n      dup8\n        /* \"#utility.yul\":2812:2822   */\n      swap6\n      pop\n        /* \"#utility.yul\":1981:2828   */\n      pop\n      pop\n      pop\n      pop\n      pop\n        /* \"#utility.yul\":1837:2828   */\n      swap3\n      swap2\n      pop\n      pop\n      jump\t// out\n        /* \"#utility.yul\":2834:3247   */\n    tag_10:\n        /* \"#utility.yul\":2997:3001   */\n      0x00\n        /* \"#utility.yul\":3035:3037   */\n      0x20\n        /* \"#utility.yul\":3024:3033   */\n      dup3\n        /* \"#utility.yul\":3020:3038   */\n      add\n        /* \"#utility.yul\":3012:3038   */\n      swap1\n      pop\n        /* \"#utility.yul\":3084:3093   */\n      dup2\n        /* \"#utility.yul\":3078:3082   */\n      dup2\n        /* \"#utility.yul\":3074:3094   */\n      sub\n        /* \"#utility.yul\":3070:3071   */\n      0x00\n        /* \"#utility.yul\":3059:3068   */\n      dup4\n        /* \"#utility.yul\":3055:3072   */\n      add\n        /* \"#utility.yul\":3048:3095   */\n      mstore\n        /* \"#utility.yul\":3112:3240   */\n      tag_131\n        /* \"#utility.yul\":3235:3239   */\n      dup2\n        /* \"#utility.yul\":3226:3232   */\n      dup5\n        /* \"#utility.yul\":3112:3240   */\n      tag_68\n      jump\t// in\n    tag_131:\n        /* \"#utility.yul\":3104:3240   */\n      swap1\n      pop\n        /* \"#utility.yul\":2834:3247   */\n      swap3\n      swap2\n      pop\n      pop\n      jump\t// out\n        /* \"#utility.yul\":3253:3328   */\n    tag_69:\n        /* \"#utility.yul\":3286:3292   */\n      0x00\n        /* \"#utility.yul\":3319:3321   */\n      0x40\n        /* \"#utility.yul\":3313:3322   */\n      mload\n        /* \"#utility.yul\":3303:3322   */\n      swap1\n      pop\n        /* \"#utility.yul\":3253:3328   */\n      swap1\n      jump\t// out\n        /* \"#utility.yul\":3334:3451   */\n    tag_70:\n        /* \"#utility.yul\":3443:3444   */\n      0x00\n        /* \"#utility.yul\":3440:3441   */\n      dup1\n        /* \"#utility.yul\":3433:3445   */\n      revert\n        /* \"#utility.yul\":3457:3574   */\n    tag_71:\n        /* \"#utility.yul\":3566:3567   */\n      0x00\n        /* \"#utility.yul\":3563:3564   */\n      dup1\n        /* \"#utility.yul\":3556:3568   */\n      revert\n        /* \"#utility.yul\":3580:3657   */\n    tag_72:\n        /* \"#utility.yul\":3617:3624   */\n      0x00\n        /* \"#utility.yul\":3646:3651   */\n      dup2\n        /* \"#utility.yul\":3635:3651   */\n      swap1\n      pop\n        /* \"#utility.yul\":3580:3657   */\n      swap2\n      swap1\n      pop\n      jump\t// out\n        /* \"#utility.yul\":3663:3785   */\n    tag_73:\n        /* \"#utility.yul\":3736:3760   */\n      tag_137\n        /* \"#utility.yul\":3754:3759   */\n      dup2\n        /* \"#utility.yul\":3736:3760   */\n      tag_72\n      jump\t// in\n    tag_137:\n        /* \"#utility.yul\":3729:3734   */\n      dup2\n        /* \"#utility.yul\":3726:3761   */\n      eq\n        /* \"#utility.yul\":3716:3779   */\n      tag_138\n      jumpi\n        /* \"#utility.yul\":3775:3776   */\n      0x00\n        /* \"#utility.yul\":3772:3773   */\n      dup1\n        /* \"#utility.yul\":3765:3777   */\n      revert\n        /* \"#utility.yul\":3716:3779   */\n    tag_138:\n        /* \"#utility.yul\":3663:3785   */\n      pop\n      jump\t// out\n        /* \"#utility.yul\":3791:3930   */\n    tag_74:\n        /* \"#utility.yul\":3837:3842   */\n      0x00\n        /* \"#utility.yul\":3875:3881   */\n      dup2\n        /* \"#utility.yul\":3862:3882   */\n      calldataload\n        /* \"#utility.yul\":3853:3882   */\n      swap1\n      pop\n        /* \"#utility.yul\":3891:3924   */\n      tag_140\n        /* \"#utility.yul\":3918:3923   */\n      dup2\n        /* \"#utility.yul\":3891:3924   */\n      tag_73\n      jump\t// in\n    tag_140:\n        /* \"#utility.yul\":3791:3930   */\n      swap3\n      swap2\n      pop\n      pop\n      jump\t// out\n        /* \"#utility.yul\":3936:4265   */\n    tag_13:\n        /* \"#utility.yul\":3995:4001   */\n      0x00\n        /* \"#utility.yul\":4044:4046   */\n      0x20\n        /* \"#utility.yul\":4032:4041   */\n      dup3\n        /* \"#utility.yul\":4023:4030   */\n      dup5\n        /* \"#utility.yul\":4019:4042   */\n      sub\n        /* \"#utility.yul\":4015:4047   */\n      slt\n        /* \"#utility.yul\":4012:4131   */\n      iszero\n      tag_142\n      jumpi\n        /* \"#utility.yul\":4050:4129   */\n      tag_143\n      tag_70\n      jump\t// in\n    tag_143:\n        /* \"#utility.yul\":4012:4131   */\n    tag_142:\n        /* \"#utility.yul\":4170:4171   */\n      0x00\n        /* \"#utility.yul\":4195:4248   */\n      tag_144\n        /* \"#utility.yul\":4240:4247   */\n      dup5\n        /* \"#utility.yul\":4231:4237   */\n      dup3\n        /* \"#utility.yul\":4220:4229   */\n      dup6\n        /* \"#utility.yul\":4216:4238   */\n      add\n        /* \"#utility.yul\":4195:4248   */\n      tag_74\n      jump\t// in\n    tag_144:\n        /* \"#utility.yul\":4185:4248   */\n      swap2\n      pop\n        /* \"#utility.yul\":4141:4258   */\n      pop\n        /* \"#utility.yul\":3936:4265   */\n      swap3\n      swap2\n      pop\n      pop\n      jump\t// out\n        /* \"#utility.yul\":4271:4440   */\n    tag_75:\n        /* \"#utility.yul\":4355:4366   */\n      0x00\n        /* \"#utility.yul\":4389:4395   */\n      dup3\n        /* \"#utility.yul\":4384:4387   */\n      dup3\n        /* \"#utility.yul\":4377:4396   */\n      mstore\n        /* \"#utility.yul\":4429:4433   */\n      0x20\n        /* \"#utility.yul\":4424:4427   */\n      dup3\n        /* \"#utility.yul\":4420:4434   */\n      add\n        /* \"#utility.yul\":4405:4434   */\n      swap1\n      pop\n        /* \"#utility.yul\":4271:4440   */\n      swap3\n      swap2\n      pop\n      pop\n      jump\t// out\n        /* \"#utility.yul\":4446:4823   */\n    tag_76:\n        /* \"#utility.yul\":4534:4537   */\n      0x00\n        /* \"#utility.yul\":4562:4601   */\n      tag_147\n        /* \"#utility.yul\":4595:4600   */\n      dup3\n        /* \"#utility.yul\":4562:4601   */\n      tag_61\n      jump\t// in\n    tag_147:\n        /* \"#utility.yul\":4617:4688   */\n      tag_148\n        /* \"#utility.yul\":4681:4687   */\n      dup2\n        /* \"#utility.yul\":4676:4679   */\n      dup6\n        /* \"#utility.yul\":4617:4688   */\n      tag_75\n      jump\t// in\n    tag_148:\n        /* \"#utility.yul\":4610:4688   */\n      swap4\n      pop\n        /* \"#utility.yul\":4697:4762   */\n      tag_149\n        /* \"#utility.yul\":4755:4761   */\n      dup2\n        /* \"#utility.yul\":4750:4753   */\n      dup6\n        /* \"#utility.yul\":4743:4747   */\n      0x20\n        /* \"#utility.yul\":4736:4741   */\n      dup7\n        /* \"#utility.yul\":4732:4748   */\n      add\n        /* \"#utility.yul\":4697:4762   */\n      tag_63\n      jump\t// in\n    tag_149:\n        /* \"#utility.yul\":4787:4816   */\n      tag_150\n        /* \"#utility.yul\":4809:4815   */\n      dup2\n        /* \"#utility.yul\":4787:4816   */\n      tag_64\n      jump\t// in\n    tag_150:\n        /* \"#utility.yul\":4782:4785   */\n      dup5\n        /* \"#utility.yul\":4778:4817   */\n      add\n        /* \"#utility.yul\":4771:4817   */\n      swap2\n      pop\n        /* \"#utility.yul\":4538:4823   */\n      pop\n        /* \"#utility.yul\":4446:4823   */\n      swap3\n      swap2\n      pop\n      pop\n      jump\t// out\n        /* \"#utility.yul\":4829:5142   */\n    tag_16:\n        /* \"#utility.yul\":4942:4946   */\n      0x00\n        /* \"#utility.yul\":4980:4982   */\n      0x20\n        /* \"#utility.yul\":4969:4978   */\n      dup3\n        /* \"#utility.yul\":4965:4983   */\n      add\n        /* \"#utility.yul\":4957:4983   */\n      swap1\n      pop\n        /* \"#utility.yul\":5029:5038   */\n      dup2\n        /* \"#utility.yul\":5023:5027   */\n      dup2\n        /* \"#utility.yul\":5019:5039   */\n      sub\n        /* \"#utility.yul\":5015:5016   */\n      0x00\n        /* \"#utility.yul\":5004:5013   */\n      dup4\n        /* \"#utility.yul\":5000:5017   */\n      add\n        /* \"#utility.yul\":4993:5040   */\n      mstore\n        /* \"#utility.yul\":5057:5135   */\n      tag_152\n        /* \"#utility.yul\":5130:5134   */\n      dup2\n        /* \"#utility.yul\":5121:5127   */\n      dup5\n        /* \"#utility.yul\":5057:5135   */\n      tag_76\n      jump\t// in\n    tag_152:\n        /* \"#utility.yul\":5049:5135   */\n      swap1\n      pop\n        /* \"#utility.yul\":4829:5142   */\n      swap3\n      swap2\n      pop\n      pop\n      jump\t// out\n        /* \"#utility.yul\":5148:5265   */\n    tag_77:\n        /* \"#utility.yul\":5257:5258   */\n      0x00\n        /* \"#utility.yul\":5254:5255   */\n      dup1\n        /* \"#utility.yul\":5247:5259   */\n      revert\n        /* \"#utility.yul\":5271:5388   */\n    tag_78:\n        /* \"#utility.yul\":5380:5381   */\n      0x00\n        /* \"#utility.yul\":5377:5378   */\n      dup1\n        /* \"#utility.yul\":5370:5382   */\n      revert\n        /* \"#utility.yul\":5394:5574   */\n    tag_79:\n        /* \"#utility.yul\":5442:5519   */\n      0x4e487b7100000000000000000000000000000000000000000000000000000000\n        /* \"#utility.yul\":5439:5440   */\n      0x00\n        /* \"#utility.yul\":5432:5520   */\n      mstore\n        /* \"#utility.yul\":5539:5543   */\n      0x41\n        /* \"#utility.yul\":5536:5537   */\n      0x04\n        /* \"#utility.yul\":5529:5544   */\n      mstore\n        /* \"#utility.yul\":5563:5567   */\n      0x24\n        /* \"#utility.yul\":5560:5561   */\n      0x00\n        /* \"#utility.yul\":5553:5568   */\n      revert\n        /* \"#utility.yul\":5580:5861   */\n    tag_80:\n        /* \"#utility.yul\":5663:5690   */\n      tag_157\n        /* \"#utility.yul\":5685:5689   */\n      dup3\n        /* \"#utility.yul\":5663:5690   */\n      tag_64\n      jump\t// in\n    tag_157:\n        /* \"#utility.yul\":5655:5661   */\n      dup2\n        /* \"#utility.yul\":5651:5691   */\n      add\n        /* \"#utility.yul\":5793:5799   */\n      dup2\n        /* \"#utility.yul\":5781:5791   */\n      dup2\n        /* \"#utility.yul\":5778:5800   */\n      lt\n        /* \"#utility.yul\":5757:5775   */\n      0xffffffffffffffff\n        /* \"#utility.yul\":5745:5755   */\n      dup3\n        /* \"#utility.yul\":5742:5776   */\n      gt\n        /* \"#utility.yul\":5739:5801   */\n      or\n        /* \"#utility.yul\":5736:5824   */\n      iszero\n      tag_158\n      jumpi\n        /* \"#utility.yul\":5804:5822   */\n      tag_159\n      tag_79\n      jump\t// in\n    tag_159:\n        /* \"#utility.yul\":5736:5824   */\n    tag_158:\n        /* \"#utility.yul\":5844:5854   */\n      dup1\n        /* \"#utility.yul\":5840:5842   */\n      0x40\n        /* \"#utility.yul\":5833:5855   */\n      mstore\n        /* \"#utility.yul\":5623:5861   */\n      pop\n        /* \"#utility.yul\":5580:5861   */\n      pop\n      pop\n      jump\t// out\n        /* \"#utility.yul\":5867:5996   */\n    tag_81:\n        /* \"#utility.yul\":5901:5907   */\n      0x00\n        /* \"#utility.yul\":5928:5948   */\n      tag_161\n      tag_69\n      jump\t// in\n    tag_161:\n        /* \"#utility.yul\":5918:5948   */\n      swap1\n      pop\n        /* \"#utility.yul\":5957:5990   */\n      tag_162\n        /* \"#utility.yul\":5985:5989   */\n      dup3\n        /* \"#utility.yul\":5977:5983   */\n      dup3\n        /* \"#utility.yul\":5957:5990   */\n      tag_80\n      jump\t// in\n    tag_162:\n        /* \"#utility.yul\":5867:5996   */\n      swap2\n      swap1\n      pop\n      jump\t// out\n        /* \"#utility.yul\":6002:6310   */\n    tag_82:\n        /* \"#utility.yul\":6064:6068   */\n      0x00\n        /* \"#utility.yul\":6154:6172   */\n      0xffffffffffffffff\n        /* \"#utility.yul\":6146:6152   */\n      dup3\n        /* \"#utility.yul\":6143:6173   */\n      gt\n        /* \"#utility.yul\":6140:6196   */\n      iszero\n      tag_164\n      jumpi\n        /* \"#utility.yul\":6176:6194   */\n      tag_165\n      tag_79\n      jump\t// in\n    tag_165:\n        /* \"#utility.yul\":6140:6196   */\n    tag_164:\n        /* \"#utility.yul\":6214:6243   */\n      tag_166\n        /* \"#utility.yul\":6236:6242   */\n      dup3\n        /* \"#utility.yul\":6214:6243   */\n      tag_64\n      jump\t// in\n    tag_166:\n        /* \"#utility.yul\":6206:6243   */\n      swap1\n      pop\n        /* \"#utility.yul\":6298:6302   */\n      0x20\n        /* \"#utility.yul\":6292:6296   */\n      dup2\n        /* \"#utility.yul\":6288:6303   */\n      add\n        /* \"#utility.yul\":6280:6303   */\n      swap1\n      pop\n        /* \"#utility.yul\":6002:6310   */\n      swap2\n      swap1\n      pop\n      jump\t// out\n        /* \"#utility.yul\":6316:6462   */\n    tag_83:\n        /* \"#utility.yul\":6413:6419   */\n      dup3\n        /* \"#utility.yul\":6408:6411   */\n      dup2\n        /* \"#utility.yul\":6403:6406   */\n      dup4\n        /* \"#utility.yul\":6390:6420   */\n      calldatacopy\n        /* \"#utility.yul\":6454:6455   */\n      0x00\n        /* \"#utility.yul\":6445:6451   */\n      dup4\n        /* \"#utility.yul\":6440:6443   */\n      dup4\n        /* \"#utility.yul\":6436:6452   */\n      add\n        /* \"#utility.yul\":6429:6456   */\n      mstore\n        /* \"#utility.yul\":6316:6462   */\n      pop\n      pop\n      pop\n      jump\t// out\n        /* \"#utility.yul\":6468:6893   */\n    tag_84:\n        /* \"#utility.yul\":6546:6551   */\n      0x00\n        /* \"#utility.yul\":6571:6637   */\n      tag_169\n        /* \"#utility.yul\":6587:6636   */\n      tag_170\n        /* \"#utility.yul\":6629:6635   */\n      dup5\n        /* \"#utility.yul\":6587:6636   */\n      tag_82\n      jump\t// in\n    tag_170:\n        /* \"#utility.yul\":6571:6637   */\n      tag_81\n      jump\t// in\n    tag_169:\n        /* \"#utility.yul\":6562:6637   */\n      swap1\n      pop\n        /* \"#utility.yul\":6660:6666   */\n      dup3\n        /* \"#utility.yul\":6653:6658   */\n      dup2\n        /* \"#utility.yul\":6646:6667   */\n      mstore\n        /* \"#utility.yul\":6698:6702   */\n      0x20\n        /* \"#utility.yul\":6691:6696   */\n      dup2\n        /* \"#utility.yul\":6687:6703   */\n      add\n        /* \"#utility.yul\":6736:6739   */\n      dup5\n        /* \"#utility.yul\":6727:6733   */\n      dup5\n        /* \"#utility.yul\":6722:6725   */\n      dup5\n        /* \"#utility.yul\":6718:6734   */\n      add\n        /* \"#utility.yul\":6715:6740   */\n      gt\n        /* \"#utility.yul\":6712:6824   */\n      iszero\n      tag_171\n      jumpi\n        /* \"#utility.yul\":6743:6822   */\n      tag_172\n      tag_78\n      jump\t// in\n    tag_172:\n        /* \"#utility.yul\":6712:6824   */\n    tag_171:\n        /* \"#utility.yul\":6833:6887   */\n      tag_173\n        /* \"#utility.yul\":6880:6886   */\n      dup5\n        /* \"#utility.yul\":6875:6878   */\n      dup3\n        /* \"#utility.yul\":6870:6873   */\n      dup6\n        /* \"#utility.yul\":6833:6887   */\n      tag_83\n      jump\t// in\n    tag_173:\n        /* \"#utility.yul\":6552:6893   */\n      pop\n        /* \"#utility.yul\":6468:6893   */\n      swap4\n      swap3\n      pop\n      pop\n      pop\n      jump\t// out\n        /* \"#utility.yul\":6913:7253   */\n    tag_85:\n        /* \"#utility.yul\":6969:6974   */\n      0x00\n        /* \"#utility.yul\":7018:7021   */\n      dup3\n        /* \"#utility.yul\":7011:7015   */\n      0x1f\n        /* \"#utility.yul\":7003:7009   */\n      dup4\n        /* \"#utility.yul\":6999:7016   */\n      add\n        /* \"#utility.yul\":6995:7022   */\n      slt\n        /* \"#utility.yul\":6985:7107   */\n      tag_175\n      jumpi\n        /* \"#utility.yul\":7026:7105   */\n      tag_176\n      tag_77\n      jump\t// in\n    tag_176:\n        /* \"#utility.yul\":6985:7107   */\n    tag_175:\n        /* \"#utility.yul\":7143:7149   */\n      dup2\n        /* \"#utility.yul\":7130:7150   */\n      calldataload\n        /* \"#utility.yul\":7168:7247   */\n      tag_177\n        /* \"#utility.yul\":7243:7246   */\n      dup5\n        /* \"#utility.yul\":7235:7241   */\n      dup3\n        /* \"#utility.yul\":7228:7232   */\n      0x20\n        /* \"#utility.yul\":7220:7226   */\n      dup7\n        /* \"#utility.yul\":7216:7233   */\n      add\n        /* \"#utility.yul\":7168:7247   */\n      tag_84\n      jump\t// in\n    tag_177:\n        /* \"#utility.yul\":7159:7247   */\n      swap2\n      pop\n        /* \"#utility.yul\":6975:7253   */\n      pop\n        /* \"#utility.yul\":6913:7253   */\n      swap3\n      swap2\n      pop\n      pop\n      jump\t// out\n        /* \"#utility.yul\":7259:7768   */\n    tag_21:\n        /* \"#utility.yul\":7328:7334   */\n      0x00\n        /* \"#utility.yul\":7377:7379   */\n      0x20\n        /* \"#utility.yul\":7365:7374   */\n      dup3\n        /* \"#utility.yul\":7356:7363   */\n      dup5\n        /* \"#utility.yul\":7352:7375   */\n      sub\n        /* \"#utility.yul\":7348:7380   */\n      slt\n        /* \"#utility.yul\":7345:7464   */\n      iszero\n      tag_179\n      jumpi\n        /* \"#utility.yul\":7383:7462   */\n      tag_180\n      tag_70\n      jump\t// in\n    tag_180:\n        /* \"#utility.yul\":7345:7464   */\n    tag_179:\n        /* \"#utility.yul\":7531:7532   */\n      0x00\n        /* \"#utility.yul\":7520:7529   */\n      dup3\n        /* \"#utility.yul\":7516:7533   */\n      add\n        /* \"#utility.yul\":7503:7534   */\n      calldataload\n        /* \"#utility.yul\":7561:7579   */\n      0xffffffffffffffff\n        /* \"#utility.yul\":7553:7559   */\n      dup2\n        /* \"#utility.yul\":7550:7580   */\n      gt\n        /* \"#utility.yul\":7547:7664   */\n      iszero\n      tag_181\n      jumpi\n        /* \"#utility.yul\":7583:7662   */\n      tag_182\n      tag_71\n      jump\t// in\n    tag_182:\n        /* \"#utility.yul\":7547:7664   */\n    tag_181:\n        /* \"#utility.yul\":7688:7751   */\n      tag_183\n        /* \"#utility.yul\":7743:7750   */\n      dup5\n        /* \"#utility.yul\":7734:7740   */\n      dup3\n        /* \"#utility.yul\":7723:7732   */\n      dup6\n        /* \"#utility.yul\":7719:7741   */\n      add\n        /* \"#utility.yul\":7688:7751   */\n      tag_85\n      jump\t// in\n    tag_183:\n        /* \"#utility.yul\":7678:7751   */\n      swap2\n      pop\n        /* \"#utility.yul\":7474:7761   */\n      pop\n        /* \"#utility.yul\":7259:7768   */\n      swap3\n      swap2\n      pop\n      pop\n      jump\t// out\n        /* \"#utility.yul\":7774:7954   */\n    tag_86:\n        /* \"#utility.yul\":7822:7899   */\n      0x4e487b7100000000000000000000000000000000000000000000000000000000\n        /* \"#utility.yul\":7819:7820   */\n      0x00\n        /* \"#utility.yul\":7812:7900   */\n      mstore\n        /* \"#utility.yul\":7919:7923   */\n      0x22\n        /* \"#utility.yul\":7916:7917   */\n      0x04\n        /* \"#utility.yul\":7909:7924   */\n      mstore\n        /* \"#utility.yul\":7943:7947   */\n      0x24\n        /* \"#utility.yul\":7940:7941   */\n      0x00\n        /* \"#utility.yul\":7933:7948   */\n      revert\n        /* \"#utility.yul\":7960:8280   */\n    tag_28:\n        /* \"#utility.yul\":8004:8010   */\n      0x00\n        /* \"#utility.yul\":8041:8042   */\n      0x02\n        /* \"#utility.yul\":8035:8039   */\n      dup3\n        /* \"#utility.yul\":8031:8043   */\n      div\n        /* \"#utility.yul\":8021:8043   */\n      swap1\n      pop\n        /* \"#utility.yul\":8088:8089   */\n      0x01\n        /* \"#utility.yul\":8082:8086   */\n      dup3\n        /* \"#utility.yul\":8078:8090   */\n      and\n        /* \"#utility.yul\":8109:8127   */\n      dup1\n        /* \"#utility.yul\":8099:8180   */\n      tag_186\n      jumpi\n        /* \"#utility.yul\":8165:8169   */\n      0x7f\n        /* \"#utility.yul\":8157:8163   */\n      dup3\n        /* \"#utility.yul\":8153:8170   */\n      and\n        /* \"#utility.yul\":8143:8170   */\n      swap2\n      pop\n        /* \"#utility.yul\":8099:8180   */\n    tag_186:\n        /* \"#utility.yul\":8227:8229   */\n      0x20\n        /* \"#utility.yul\":8219:8225   */\n      dup3\n        /* \"#utility.yul\":8216:8230   */\n      lt\n        /* \"#utility.yul\":8196:8214   */\n      dup2\n        /* \"#utility.yul\":8193:8231   */\n      sub\n        /* \"#utility.yul\":8190:8274   */\n      tag_187\n      jumpi\n        /* \"#utility.yul\":8246:8264   */\n      tag_188\n      tag_86\n      jump\t// in\n    tag_188:\n        /* \"#utility.yul\":8190:8274   */\n    tag_187:\n        /* \"#utility.yul\":8011:8280   */\n      pop\n        /* \"#utility.yul\":7960:8280   */\n      swap2\n      swap1\n      pop\n      jump\t// out\n        /* \"#utility.yul\":8286:8466   */\n    tag_43:\n        /* \"#utility.yul\":8334:8411   */\n      0x4e487b7100000000000000000000000000000000000000000000000000000000\n        /* \"#utility.yul\":8331:8332   */\n      0x00\n        /* \"#utility.yul\":8324:8412   */\n      mstore\n        /* \"#utility.yul\":8431:8435   */\n      0x31\n        /* \"#utility.yul\":8428:8429   */\n      0x04\n        /* \"#utility.yul\":8421:8436   */\n      mstore\n        /* \"#utility.yul\":8455:8459   */\n      0x24\n        /* \"#utility.yul\":8452:8453   */\n      0x00\n        /* \"#utility.yul\":8445:8460   */\n      revert\n        /* \"#utility.yul\":8472:8613   */\n    tag_87:\n        /* \"#utility.yul\":8521:8525   */\n      0x00\n        /* \"#utility.yul\":8544:8547   */\n      dup2\n        /* \"#utility.yul\":8536:8547   */\n      swap1\n      pop\n        /* \"#utility.yul\":8567:8570   */\n      dup2\n        /* \"#utility.yul\":8564:8565   */\n      0x00\n        /* \"#utility.yul\":8557:8571   */\n      mstore\n        /* \"#utility.yul\":8601:8605   */\n      0x20\n        /* \"#utility.yul\":8598:8599   */\n      0x00\n        /* \"#utility.yul\":8588:8606   */\n      keccak256\n        /* \"#utility.yul\":8580:8606   */\n      swap1\n      pop\n        /* \"#utility.yul\":8472:8613   */\n      swap2\n      swap1\n      pop\n      jump\t// out\n        /* \"#utility.yul\":8619:8712   */\n    tag_88:\n        /* \"#utility.yul\":8656:8662   */\n      0x00\n        /* \"#utility.yul\":8703:8705   */\n      0x20\n        /* \"#utility.yul\":8698:8700   */\n      0x1f\n        /* \"#utility.yul\":8691:8696   */\n      dup4\n        /* \"#utility.yul\":8687:8701   */\n      add\n        /* \"#utility.yul\":8683:8706   */\n      div\n        /* \"#utility.yul\":8673:8706   */\n      swap1\n      pop\n        /* \"#utility.yul\":8619:8712   */\n      swap2\n      swap1\n      pop\n      jump\t// out\n        /* \"#utility.yul\":8718:8825   */\n    tag_89:\n        /* \"#utility.yul\":8762:8770   */\n      0x00\n        /* \"#utility.yul\":8812:8817   */\n      dup3\n        /* \"#utility.yul\":8806:8810   */\n      dup3\n        /* \"#utility.yul\":8802:8818   */\n      shl\n        /* \"#utility.yul\":8781:8818   */\n      swap1\n      pop\n        /* \"#utility.yul\":8718:8825   */\n      swap3\n      swap2\n      pop\n      pop\n      jump\t// out\n        /* \"#utility.yul\":8831:9224   */\n    tag_90:\n        /* \"#utility.yul\":8900:8906   */\n      0x00\n        /* \"#utility.yul\":8950:8951   */\n      0x08\n        /* \"#utility.yul\":8938:8948   */\n      dup4\n        /* \"#utility.yul\":8934:8952   */\n      mul\n        /* \"#utility.yul\":8973:9070   */\n      tag_194\n        /* \"#utility.yul\":9003:9069   */\n      0xffffffffffffffffffffffffffffffffffffffffffffffffffffffffffffffff\n        /* \"#utility.yul\":8992:9001   */\n      dup3\n        /* \"#utility.yul\":8973:9070   */\n      tag_89\n      jump\t// in\n    tag_194:\n        /* \"#utility.yul\":9091:9130   */\n      tag_195\n        /* \"#utility.yul\":9121:9129   */\n      dup7\n        /* \"#utility.yul\":9110:9119   */\n      dup4\n        /* \"#utility.yul\":9091:9130   */\n      tag_89\n      jump\t// in\n    tag_195:\n        /* \"#utility.yul\":9079:9130   */\n      swap6\n      pop\n        /* \"#utility.yul\":9163:9167   */\n      dup1\n        /* \"#utility.yul\":9159:9168   */\n      not\n        /* \"#utility.yul\":9152:9157   */\n      dup5\n        /* \"#utility.yul\":9148:9169   */\n      and\n        /* \"#utility.yul\":9139:9169   */\n      swap4\n      pop\n        /* \"#utility.yul\":9212:9216   */\n      dup1\n        /* \"#utility.yul\":9202:9210   */\n      dup7\n        /* \"#utility.yul\":9198:9217   */\n      and\n        /* \"#utility.yul\":9191:9196   */\n      dup5\n        /* \"#utility.yul\":9188:9218   */\n      or\n        /* \"#utility.yul\":9178:9218   */\n      swap3\n      pop\n        /* \"#utility.yul\":8907:9224   */\n      pop\n      pop\n        /* \"#utility.yul\":8831:9224   */\n      swap4\n      swap3\n      pop\n      pop\n      pop\n      jump\t// out\n        /* \"#utility.yul\":9230:9290   */\n    tag_91:\n        /* \"#utility.yul\":9258:9261   */\n      0x00\n        /* \"#utility.yul\":9279:9284   */\n      dup2\n        /* \"#utility.yul\":9272:9284   */\n      swap1\n      pop\n        /* \"#utility.yul\":9230:9290   */\n      swap2\n      swap1\n      pop\n      jump\t// out\n        /* \"#utility.yul\":9296:9438   */\n    tag_92:\n        /* \"#utility.yul\":9346:9355   */\n      0x00\n        /* \"#utility.yul\":9379:9432   */\n      tag_198\n        /* \"#utility.yul\":9397:9431   */\n      tag_199\n        /* \"#utility.yul\":9406:9430   */\n      tag_200\n        /* \"#utility.yul\":9424:9429   */\n      dup5\n        /* \"#utility.yul\":9406:9430   */\n      tag_72\n      jump\t// in\n    tag_200:\n        /* \"#utility.yul\":9397:9431   */\n      tag_91\n      jump\t// in\n    tag_199:\n        /* \"#utility.yul\":9379:9432   */\n      tag_72\n      jump\t// in\n    tag_198:\n        /* \"#utility.yul\":9366:9432   */\n      swap1\n      pop\n        /* \"#utility.yul\":9296:9438   */\n      swap2\n      swap1\n      pop\n      jump\t// out\n        /* \"#utility.yul\":9444:9519   */\n    tag_93:\n        /* \"#utility.yul\":9487:9490   */\n      0x00\n        /* \"#utility.yul\":9508:9513   */\n      dup2\n        /* \"#utility.yul\":9501:9513   */\n      swap1\n      pop\n        /* \"#utility.yul\":9444:9519   */\n      swap2\n      swap1\n      pop\n      jump\t// out\n        /* \"#utility.yul\":9525:9794   */\n    tag_94:\n        /* \"#utility.yul\":9635:9674   */\n      tag_203\n        /* \"#utility.yul\":9666:9673   */\n      dup4\n        /* \"#utility.yul\":9635:9674   */\n      tag_92\n      jump\t// in\n    tag_203:\n        /* \"#utility.yul\":9696:9787   */\n      tag_204\n        /* \"#utility.yul\":9745:9786   */\n      tag_205\n        /* \"#utility.yul\":9769:9785   */\n      dup3\n        /* \"#utility.yul\":9745:9786   */\n      tag_93\n      jump\t// in\n    tag_205:\n        /* \"#utility.yul\":9737:9743   */\n      dup5\n        /* \"#utility.yul\":9730:9734   */\n      dup5\n        /* \"#utility.yul\":9724:9735   */\n      sload\n        /* \"#utility.yul\":9696:9787   */\n      tag_90\n      jump\t// in\n    tag_204:\n        /* \"#utility.yul\":9690:9694   */\n      dup3\n        /* \"#utility.yul\":9683:9788   */\n      sstore\n        /* \"#utility.yul\":9601:9794   */\n      pop\n        /* \"#utility.yul\":9525:9794   */\n      pop\n      pop\n      pop\n      jump\t// out\n        /* \"#utility.yul\":9800:9873   */\n    tag_95:\n        /* \"#utility.yul\":9845:9848   */\n      0x00\n        /* \"#utility.yul\":9800:9873   */\n      swap1\n      jump\t// out\n        /* \"#utility.yul\":9879:10068   */\n    tag_96:\n        /* \"#utility.yul\":9956:9988   */\n      tag_208\n      tag_95\n      jump\t// in\n    tag_208:\n        /* \"#utility.yul\":9997:10062   */\n      tag_209\n        /* \"#utility.yul\":10055:10061   */\n      dup2\n        /* \"#utility.yul\":10047:10053   */\n      dup5\n        /* \"#utility.yul\":10041:10045   */\n      dup5\n        /* \"#utility.yul\":9997:10062   */\n      tag_94\n      jump\t// in\n    tag_209:\n        /* \"#utility.yul\":9932:10068   */\n      pop\n        /* \"#utility.yul\":9879:10068   */\n      pop\n      pop\n      jump\t// out\n        /* \"#utility.yul\":10074:10260   */\n    tag_97:\n        /* \"#utility.yul\":10134:10254   */\n    tag_211:\n        /* \"#utility.yul\":10151:10154   */\n      dup2\n        /* \"#utility.yul\":10144:10149   */\n      dup2\n        /* \"#utility.yul\":10141:10155   */\n      lt\n        /* \"#utility.yul\":10134:10254   */\n      iszero\n      tag_213\n      jumpi\n        /* \"#utility.yul\":10205:10244   */\n      tag_214\n        /* \"#utility.yul\":10242:10243   */\n      0x00\n        /* \"#utility.yul\":10235:10240   */\n      dup3\n        /* \"#utility.yul\":10205:10244   */\n      tag_96\n      jump\t// in\n    tag_214:\n        /* \"#utility.yul\":10178:10179   */\n      0x01\n        /* \"#utility.yul\":10171:10176   */\n      dup2\n        /* \"#utility.yul\":10167:10180   */\n      add\n        /* \"#utility.yul\":10158:10180   */\n      swap1\n      pop\n        /* \"#utility.yul\":10134:10254   */\n      jump(tag_211)\n    tag_213:\n        /* \"#utility.yul\":10074:10260   */\n      pop\n      pop\n      jump\t// out\n        /* \"#utility.yul\":10266:10809   */\n    tag_98:\n        /* \"#utility.yul\":10367:10369   */\n      0x1f\n        /* \"#utility.yul\":10362:10365   */\n      dup3\n        /* \"#utility.yul\":10359:10370   */\n      gt\n        /* \"#utility.yul\":10356:10802   */\n      iszero\n      tag_216\n      jumpi\n        /* \"#utility.yul\":10401:10439   */\n      tag_217\n        /* \"#utility.yul\":10433:10438   */\n      dup2\n        /* \"#utility.yul\":10401:10439   */\n      tag_87\n      jump\t// in\n    tag_217:\n        /* \"#utility.yul\":10485:10514   */\n      tag_218\n        /* \"#utility.yul\":10503:10513   */\n      dup5\n        /* \"#utility.yul\":10485:10514   */\n      tag_88\n      jump\t// in\n    tag_218:\n        /* \"#utility.yul\":10475:10483   */\n      dup2\n        /* \"#utility.yul\":10471:10515   */\n      add\n        /* \"#utility.yul\":10668:10670   */\n      0x20\n        /* \"#utility.yul\":10656:10666   */\n      dup6\n        /* \"#utility.yul\":10653:10671   */\n      lt\n        /* \"#utility.yul\":10650:10699   */\n      iszero\n      tag_219\n      jumpi\n        /* \"#utility.yul\":10689:10697   */\n      dup2\n        /* \"#utility.yul\":10674:10697   */\n      swap1\n      pop\n        /* \"#utility.yul\":10650:10699   */\n    tag_219:\n        /* \"#utility.yul\":10712:10792   */\n      tag_220\n        /* \"#utility.yul\":10768:10790   */\n      tag_221\n        /* \"#utility.yul\":10786:10789   */\n      dup6\n        /* \"#utility.yul\":10768:10790   */\n      tag_88\n      jump\t// in\n    tag_221:\n        /* \"#utility.yul\":10758:10766   */\n      dup4\n        /* \"#utility.yul\":10754:10791   */\n      add\n        /* \"#utility.yul\":10741:10752   */\n      dup3\n        /* \"#utility.yul\":10712:10792   */\n      tag_97\n      jump\t// in\n    tag_220:\n        /* \"#utility.yul\":10371:10802   */\n      pop\n      pop\n        /* \"#utility.yul\":10356:10802   */\n    tag_216:\n        /* \"#utility.yul\":10266:10809   */\n      pop\n      pop\n      pop\n      jump\t// out\n        /* \"#utility.yul\":10815:10932   */\n    tag_99:\n        /* \"#utility.yul\":10869:10877   */\n      0x00\n        /* \"#utility.yul\":10919:10924   */\n      dup3\n        /* \"#utility.yul\":10913:10917   */\n      dup3\n        /* \"#utility.yul\":10909:10925   */\n      shr\n        /* \"#utility.yul\":10888:10925   */\n      swap1\n      pop\n        /* \"#utility.yul\":10815:10932   */\n      swap3\n      swap2\n      pop\n      pop\n      jump\t// out\n        /* \"#utility.yul\":10938:11107   */\n    tag_100:\n        /* \"#utility.yul\":10982:10988   */\n      0x00\n        /* \"#utility.yul\":11015:11066   */\n      tag_224\n        /* \"#utility.yul\":11063:11064   */\n      0x00\n        /* \"#utility.yul\":11059:11065   */\n      not\n        /* \"#utility.yul\":11051:11056   */\n      dup5\n        /* \"#utility.yul\":11048:11049   */\n      0x08\n        /* \"#utility.yul\":11044:11057   */\n      mul\n        /* \"#utility.yul\":11015:11066   */\n      tag_99\n      jump\t// in\n    tag_224:\n        /* \"#utility.yul\":11011:11067   */\n      not\n        /* \"#utility.yul\":11096:11100   */\n      dup1\n        /* \"#utility.yul\":11090:11094   */\n      dup4\n        /* \"#utility.yul\":11086:11101   */\n      and\n        /* \"#utility.yul\":11076:11101   */\n      swap2\n      pop\n        /* \"#utility.yul\":10989:11107   */\n      pop\n        /* \"#utility.yul\":10938:11107   */\n      swap3\n      swap2\n      pop\n      pop\n      jump\t// out\n        /* \"#utility.yul\":11112:11407   */\n    tag_101:\n        /* \"#utility.yul\":11188:11192   */\n      0x00\n        /* \"#utility.yul\":11334:11363   */\n      tag_226\n        /* \"#utility.yul\":11359:11362   */\n      dup4\n        /* \"#utility.yul\":11353:11357   */\n      dup4\n        /* \"#utility.yul\":11334:11363   */\n      tag_100\n      jump\t// in\n    tag_226:\n        /* \"#utility.yul\":11326:11363   */\n      swap2\n      pop\n        /* \"#utility.yul\":11396:11399   */\n      dup3\n        /* \"#utility.yul\":11393:11394   */\n      0x02\n        /* \"#utility.yul\":11389:11400   */\n      mul\n        /* \"#utility.yul\":11383:11387   */\n      dup3\n        /* \"#utility.yul\":11380:11401   */\n      or\n        /* \"#utility.yul\":11372:11401   */\n      swap1\n      pop\n        /* \"#utility.yul\":11112:11407   */\n      swap3\n      swap2\n      pop\n      pop\n      jump\t// out\n        /* \"#utility.yul\":11412:12807   */\n    tag_50:\n        /* \"#utility.yul\":11529:11566   */\n      tag_228\n        /* \"#utility.yul\":11562:11565   */\n      dup3\n        /* \"#utility.yul\":11529:11566   */\n      tag_61\n      jump\t// in\n    tag_228:\n        /* \"#utility.yul\":11631:11649   */\n      0xffffffffffffffff\n        /* \"#utility.yul\":11623:11629   */\n      dup2\n        /* \"#utility.yul\":11620:11650   */\n      gt\n        /* \"#utility.yul\":11617:11673   */\n      iszero\n      tag_229\n      jumpi\n        /* \"#utility.yul\":11653:11671   */\n      tag_230\n      tag_79\n      jump\t// in\n    tag_230:\n        /* \"#utility.yul\":11617:11673   */\n    tag_229:\n        /* \"#utility.yul\":11697:11735   */\n      tag_231\n        /* \"#utility.yul\":11729:11733   */\n      dup3\n        /* \"#utility.yul\":11723:11734   */\n      sload\n        /* \"#utility.yul\":11697:11735   */\n      tag_28\n      jump\t// in\n    tag_231:\n        /* \"#utility.yul\":11782:11849   */\n      tag_232\n        /* \"#utility.yul\":11842:11848   */\n      dup3\n        /* \"#utility.yul\":11834:11840   */\n      dup3\n        /* \"#utility.yul\":11828:11832   */\n      dup6\n        /* \"#utility.yul\":11782:11849   */\n      tag_98\n      jump\t// in\n    tag_232:\n        /* \"#utility.yul\":11876:11877   */\n      0x00\n        /* \"#utility.yul\":11900:11904   */\n      0x20\n        /* \"#utility.yul\":11887:11904   */\n      swap1\n      pop\n        /* \"#utility.yul\":11932:11934   */\n      0x1f\n        /* \"#utility.yul\":11924:11930   */\n      dup4\n        /* \"#utility.yul\":11921:11935   */\n      gt\n        /* \"#utility.yul\":11949:11950   */\n      0x01\n        /* \"#utility.yul\":11944:12562   */\n      dup2\n      eq\n      tag_234\n      jumpi\n        /* \"#utility.yul\":12606:12607   */\n      0x00\n        /* \"#utility.yul\":12623:12629   */\n      dup5\n        /* \"#utility.yul\":12620:12697   */\n      iszero\n      tag_235\n      jumpi\n        /* \"#utility.yul\":12672:12681   */\n      dup3\n        /* \"#utility.yul\":12667:12670   */\n      dup8\n        /* \"#utility.yul\":12663:12682   */\n      add\n        /* \"#utility.yul\":12657:12683   */\n      mload\n        /* \"#utility.yul\":12648:12683   */\n      swap1\n      pop\n        /* \"#utility.yul\":12620:12697   */\n    tag_235:\n        /* \"#utility.yul\":12723:12790   */\n      tag_236\n        /* \"#utility.yul\":12783:12789   */\n      dup6\n        /* \"#utility.yul\":12776:12781   */\n      dup3\n        /* \"#utility.yul\":12723:12790   */\n      tag_101\n      jump\t// in\n    tag_236:\n        /* \"#utility.yul\":12717:12721   */\n      dup7\n        /* \"#utility.yul\":12710:12791   */\n      sstore\n        /* \"#utility.yul\":12579:12801   */\n      pop\n        /* \"#utility.yul\":11914:12801   */\n      jump(tag_233)\n        /* \"#utility.yul\":11944:12562   */\n    tag_234:\n        /* \"#utility.yul\":11996:12000   */\n      0x1f\n        /* \"#utility.yul\":11992:12001   */\n      not\n        /* \"#utility.yul\":11984:11990   */\n      dup5\n        /* \"#utility.yul\":11980:12002   */\n      and\n        /* \"#utility.yul\":12030:12067   */\n      tag_237\n        /* \"#utility.yul\":12062:12066   */\n      dup7\n        /* \"#utility.yul\":12030:12067   */\n      tag_87\n      jump\t// in\n    tag_237:\n        /* \"#utility.yul\":12089:12090   */\n      0x00\n        /* \"#utility.yul\":12103:12311   */\n    tag_238:\n        /* \"#utility.yul\":12117:12124   */\n      dup3\n        /* \"#utility.yul\":12114:12115   */\n      dup2\n        /* \"#utility.yul\":12111:12125   */\n      lt\n        /* \"#utility.yul\":12103:12311   */\n      iszero\n      tag_240\n      jumpi\n        /* \"#utility.yul\":12196:12205   */\n      dup5\n        /* \"#utility.yul\":12191:12194   */\n      dup10\n        /* \"#utility.yul\":12187:12206   */\n      add\n        /* \"#utility.yul\":12181:12207   */\n      mload\n        /* \"#utility.yul\":12173:12179   */\n      dup3\n        /* \"#utility.yul\":12166:12208   */\n      sstore\n        /* \"#utility.yul\":12247:12248   */\n      0x01\n        /* \"#utility.yul\":12239:12245   */\n      dup3\n        /* \"#utility.yul\":12235:12249   */\n      add\n        /* \"#utility.yul\":12225:12249   */\n      swap2\n      pop\n        /* \"#utility.yul\":12294:12296   */\n      0x20\n        /* \"#utility.yul\":12283:12292   */\n      dup6\n        /* \"#utility.yul\":12279:12297   */\n      add\n        /* \"#utility.yul\":12266:12297   */\n      swap5\n      pop\n        /* \"#utility.yul\":12140:12144   */\n      0x20\n        /* \"#utility.yul\":12137:12138   */\n      dup2\n        /* \"#utility.yul\":12133:12145   */\n      add\n        /* \"#utility.yul\":12128:12145   */\n      swap1\n      pop\n        /* \"#utility.yul\":12103:12311   */\n      jump(tag_238)\n    tag_240:\n        /* \"#utility.yul\":12339:12345   */\n      dup7\n        /* \"#utility.yul\":12330:12337   */\n      dup4\n        /* \"#utility.yul\":12327:12346   */\n      lt\n        /* \"#utility.yul\":12324:12503   */\n      iszero\n      tag_241\n      jumpi\n        /* \"#utility.yul\":12397:12406   */\n      dup5\n        /* \"#utility.yul\":12392:12395   */\n      dup10\n        /* \"#utility.yul\":12388:12407   */\n      add\n        /* \"#utility.yul\":12382:12408   */\n      mload\n        /* \"#utility.yul\":12440:12488   */\n      tag_242\n        /* \"#utility.yul\":12482:12486   */\n      0x1f\n        /* \"#utility.yul\":12474:12480   */\n      dup10\n        /* \"#utility.yul\":12470:12487   */\n      and\n        /* \"#utility.yul\":12459:12468   */\n      dup3\n        /* \"#utility.yul\":12440:12488   */\n      tag_100\n      jump\t// in\n    tag_242:\n        /* \"#utility.yul\":12432:12438   */\n      dup4\n        /* \"#utility.yul\":12425:12489   */\n      sstore\n        /* \"#utility.yul\":12347:12503   */\n      pop\n        /* \"#utility.yul\":12324:12503   */\n    tag_241:\n        /* \"#utility.yul\":12549:12550   */\n      0x01\n        /* \"#utility.yul\":12545:12546   */\n      0x02\n        /* \"#utility.yul\":12537:12543   */\n      dup9\n        /* \"#utility.yul\":12533:12547   */\n      mul\n        /* \"#utility.yul\":12529:12551   */\n      add\n        /* \"#utility.yul\":12523:12527   */\n      dup9\n        /* \"#utility.yul\":12516:12552   */\n      sstore\n        /* \"#utility.yul\":11951:12562   */\n      pop\n      pop\n      pop\n        /* \"#utility.yul\":11914:12801   */\n    tag_233:\n      pop\n        /* \"#utility.yul\":11504:12807   */\n      pop\n      pop\n      pop\n        /* \"#utility.yul\":11412:12807   */\n      pop\n      pop\n      jump\t// out\n\n    auxdata: 0xa2646970667358221220faeda9ca854899f2f1d27217fbf32bd80b56f9f00a0979495f12883491908a5d64736f6c63430008120033\n}\n",
				"bytecode": {
					"linkReferences": {},
					"object": "608060405234801561001057600080fd5b50610a29806100206000396000f3fe608060405234801561001057600080fd5b506004361061004c5760003560e01c80636cf4334714610051578063725118381461006f578063a402c2e91461009f578063b7b3d9b5146100a9575b600080fd5b6100596100c5565b6040516100669190610463565b60405180910390f35b610089600480360381019061008491906104cf565b61019e565b6040516100969190610546565b60405180910390f35b6100a761024a565b005b6100c360048036038101906100be919061069d565b61027c565b005b60606000805480602002602001604051908101604052809291908181526020016000905b8282101561019557838290600052602060002001805461010890610715565b80601f016020809104026020016040519081016040528092919081815260200182805461013490610715565b80156101815780601f1061015657610100808354040283529160200191610181565b820191906000526020600020905b81548152906001019060200180831161016457829003601f168201915b5050505050815260200190600101906100e9565b50505050905090565b600081815481106101ae57600080fd5b9060005260206000200160009150905080546101c990610715565b80601f01602080910402602001604051908101604052809291908181526020018280546101f590610715565b80156102425780601f1061021757610100808354040283529160200191610242565b820191906000526020600020905b81548152906001019060200180831161022557829003601f168201915b505050505081565b600080548061025c5761025b610746565b5b60019003818190600052602060002001600061027891906102b4565b9055565b6000819080600181540180825580915050600190039060005260206000200160009091909190915090816102b09190610921565b5050565b5080546102c090610715565b6000825580601f106102d257506102f1565b601f0160209004906000526020600020908101906102f091906102f4565b5b50565b5b8082111561030d5760008160009055506001016102f5565b5090565b600081519050919050565b600082825260208201905092915050565b6000819050602082019050919050565b600081519050919050565b600082825260208201905092915050565b60005b8381101561037757808201518184015260208101905061035c565b60008484015250505050565b6000601f19601f8301169050919050565b600061039f8261033d565b6103a98185610348565b93506103b9818560208601610359565b6103c281610383565b840191505092915050565b60006103d98383610394565b905092915050565b6000602082019050919050565b60006103f982610311565b610403818561031c565b9350836020820285016104158561032d565b8060005b85811015610451578484038952815161043285826103cd565b945061043d836103e1565b925060208a01995050600181019050610419565b50829750879550505050505092915050565b6000602082019050818103600083015261047d81846103ee565b905092915050565b6000604051905090565b600080fd5b600080fd5b6000819050919050565b6104ac81610499565b81146104b757600080fd5b50565b6000813590506104c9816104a3565b92915050565b6000602082840312156104e5576104e461048f565b5b60006104f3848285016104ba565b91505092915050565b600082825260208201905092915050565b60006105188261033d565b61052281856104fc565b9350610532818560208601610359565b61053b81610383565b840191505092915050565b60006020820190508181036000830152610560818461050d565b905092915050565b600080fd5b600080fd5b7f4e487b7100000000000000000000000000000000000000000000000000000000600052604160045260246000fd5b6105aa82610383565b810181811067ffffffffffffffff821117156105c9576105c8610572565b5b80604052505050565b60006105dc610485565b90506105e882826105a1565b919050565b600067ffffffffffffffff82111561060857610607610572565b5b61061182610383565b9050602081019050919050565b82818337600083830152505050565b600061064061063b846105ed565b6105d2565b90508281526020810184848401111561065c5761065b61056d565b5b61066784828561061e565b509392505050565b600082601f83011261068457610683610568565b5b813561069484826020860161062d565b91505092915050565b6000602082840312156106b3576106b261048f565b5b600082013567ffffffffffffffff8111156106d1576106d0610494565b5b6106dd8482850161066f565b91505092915050565b7f4e487b7100000000000000000000000000000000000000000000000000000000600052602260045260246000fd5b6000600282049050600182168061072d57607f821691505b6020821081036107405761073f6106e6565b5b50919050565b7f4e487b7100000000000000000000000000000000000000000000000000000000600052603160045260246000fd5b60008190508160005260206000209050919050565b60006020601f8301049050919050565b600082821b905092915050565b6000600883026107d77fffffffffffffffffffffffffffffffffffffffffffffffffffffffffffffffff8261079a565b6107e1868361079a565b95508019841693508086168417925050509392505050565b6000819050919050565b600061081e61081961081484610499565b6107f9565b610499565b9050919050565b6000819050919050565b61083883610803565b61084c61084482610825565b8484546107a7565b825550505050565b600090565b610861610854565b61086c81848461082f565b505050565b5b8181101561089057610885600082610859565b600181019050610872565b5050565b601f8211156108d5576108a681610775565b6108af8461078a565b810160208510156108be578190505b6108d26108ca8561078a565b830182610871565b50505b505050565b600082821c905092915050565b60006108f8600019846008026108da565b1980831691505092915050565b600061091183836108e7565b9150826002028217905092915050565b61092a8261033d565b67ffffffffffffffff81111561094357610942610572565b5b61094d8254610715565b610958828285610894565b600060209050601f83116001811461098b5760008415610979578287015190505b6109838582610905565b8655506109eb565b601f19841661099986610775565b60005b828110156109c15784890151825560018201915060208501945060208101905061099c565b868310156109de57848901516109da601f8916826108e7565b8355505b6001600288020188555050505b50505050505056fea2646970667358221220faeda9ca854899f2f1d27217fbf32bd80b56f9f00a0979495f12883491908a5d64736f6c63430008120033",
					"opcodes": "PUSH1 0x80 PUSH1 0x40 MSTORE CALLVALUE DUP1 ISZERO PUSH2 0x10 JUMPI PUSH1 0x0 DUP1 REVERT JUMPDEST POP PUSH2 0xA29 DUP1 PUSH2 0x20 PUSH1 0x0 CODECOPY PUSH1 0x0 RETURN INVALID PUSH1 0x80 PUSH1 0x40 MSTORE CALLVALUE DUP1 ISZERO PUSH2 0x10 JUMPI PUSH1 0x0 DUP1 REVERT JUMPDEST POP PUSH1 0x4 CALLDATASIZE LT PUSH2 0x4C JUMPI PUSH1 0x0 CALLDATALOAD PUSH1 0xE0 SHR DUP1 PUSH4 0x6CF43347 EQ PUSH2 0x51 JUMPI DUP1 PUSH4 0x72511838 EQ PUSH2 0x6F JUMPI DUP1 PUSH4 0xA402C2E9 EQ PUSH2 0x9F JUMPI DUP1 PUSH4 0xB7B3D9B5 EQ PUSH2 0xA9 JUMPI JUMPDEST PUSH1 0x0 DUP1 REVERT JUMPDEST PUSH2 0x59 PUSH2 0xC5 JUMP JUMPDEST PUSH1 0x40 MLOAD PUSH2 0x66 SWAP2 SWAP1 PUSH2 0x463 JUMP JUMPDEST PUSH1 0x40 MLOAD DUP1 SWAP2 SUB SWAP1 RETURN JUMPDEST PUSH2 0x89 PUSH1 0x4 DUP1 CALLDATASIZE SUB DUP2 ADD SWAP1 PUSH2 0x84 SWAP2 SWAP1 PUSH2 0x4CF JUMP JUMPDEST PUSH2 0x19E JUMP JUMPDEST PUSH1 0x40 MLOAD PUSH2 0x96 SWAP2 SWAP1 PUSH2 0x546 JUMP JUMPDEST PUSH1 0x40 MLOAD DUP1 SWAP2 SUB SWAP1 RETURN JUMPDEST PUSH2 0xA7 PUSH2 0x24A JUMP JUMPDEST STOP JUMPDEST PUSH2 0xC3 PUSH1 0x4 DUP1 CALLDATASIZE SUB DUP2 ADD SWAP1 PUSH2 0xBE SWAP2 SWAP1 PUSH2 0x69D JUMP JUMPDEST PUSH2 0x27C JUMP JUMPDEST STOP JUMPDEST PUSH1 0x60 PUSH1 0x0 DUP1 SLOAD DUP1 PUSH1 0x20 MUL PUSH1 0x20 ADD PUSH1 0x40 MLOAD SWAP1 DUP2 ADD PUSH1 0x40 MSTORE DUP1 SWAP3 SWAP2 SWAP1 DUP2 DUP2 MSTORE PUSH1 0x20 ADD PUSH1 0x0 SWAP1 JUMPDEST DUP3 DUP3 LT ISZERO PUSH2 0x195 JUMPI DUP4 DUP3 SWAP1 PUSH1 0x0 MSTORE PUSH1 0x20 PUSH1 0x0 KECCAK256 ADD DUP1 SLOAD PUSH2 0x108 SWAP1 PUSH2 0x715 JUMP JUMPDEST DUP1 PUSH1 0x1F ADD PUSH1 0x20 DUP1 SWAP2 DIV MUL PUSH1 0x20 ADD PUSH1 0x40 MLOAD SWAP1 DUP2 ADD PUSH1 0x40 MSTORE DUP1 SWAP3 SWAP2 SWAP1 DUP2 DUP2 MSTORE PUSH1 0x20 ADD DUP3 DUP1 SLOAD PUSH2 0x134 SWAP1 PUSH2 0x715 JUMP JUMPDEST DUP1 ISZERO PUSH2 0x181 JUMPI DUP1 PUSH1 0x1F LT PUSH2 0x156 JUMPI PUSH2 0x100 DUP1 DUP4 SLOAD DIV MUL DUP4 MSTORE SWAP2 PUSH1 0x20 ADD SWAP2 PUSH2 0x181 JUMP JUMPDEST DUP3 ADD SWAP2 SWAP1 PUSH1 0x0 MSTORE PUSH1 0x20 PUSH1 0x0 KECCAK256 SWAP1 JUMPDEST DUP2 SLOAD DUP2 MSTORE SWAP1 PUSH1 0x1 ADD SWAP1 PUSH1 0x20 ADD DUP1 DUP4 GT PUSH2 0x164 JUMPI DUP3 SWAP1 SUB PUSH1 0x1F AND DUP3 ADD SWAP2 JUMPDEST POP POP POP POP POP DUP2 MSTORE PUSH1 0x20 ADD SWAP1 PUSH1 0x1 ADD SWAP1 PUSH2 0xE9 JUMP JUMPDEST POP POP POP POP SWAP1 POP SWAP1 JUMP JUMPDEST PUSH1 0x0 DUP2 DUP2 SLOAD DUP2 LT PUSH2 0x1AE JUMPI PUSH1 0x0 DUP1 REVERT JUMPDEST SWAP1 PUSH1 0x0 MSTORE PUSH1 0x20 PUSH1 0x0 KECCAK256 ADD PUSH1 0x0 SWAP2 POP SWAP1 POP DUP1 SLOAD PUSH2 0x1C9 SWAP1 PUSH2 0x715 JUMP JUMPDEST DUP1 PUSH1 0x1F ADD PUSH1 0x20 DUP1 SWAP2 DIV MUL PUSH1 0x20 ADD PUSH1 0x40 MLOAD SWAP1 DUP2 ADD PUSH1 0x40 MSTORE DUP1 SWAP3 SWAP2 SWAP1 DUP2 DUP2 MSTORE PUSH1 0x20 ADD DUP3 DUP1 SLOAD PUSH2 0x1F5 SWAP1 PUSH2 0x715 JUMP JUMPDEST DUP1 ISZERO PUSH2 0x242 JUMPI DUP1 PUSH1 0x1F LT PUSH2 0x217 JUMPI PUSH2 0x100 DUP1 DUP4 SLOAD DIV MUL DUP4 MSTORE SWAP2 PUSH1 0x20 ADD SWAP2 PUSH2 0x242 JUMP JUMPDEST DUP3 ADD SWAP2 SWAP1 PUSH1 0x0 MSTORE PUSH1 0x20 PUSH1 0x0 KECCAK256 SWAP1 JUMPDEST DUP2 SLOAD DUP2 MSTORE SWAP1 PUSH1 0x1 ADD SWAP1 PUSH1 0x20 ADD DUP1 DUP4 GT PUSH2 0x225 JUMPI DUP3 SWAP1 SUB PUSH1 0x1F AND DUP3 ADD SWAP2 JUMPDEST POP POP POP POP POP DUP2 JUMP JUMPDEST PUSH1 0x0 DUP1 SLOAD DUP1 PUSH2 0x25C JUMPI PUSH2 0x25B PUSH2 0x746 JUMP JUMPDEST JUMPDEST PUSH1 0x1 SWAP1 SUB DUP2 DUP2 SWAP1 PUSH1 0x0 MSTORE PUSH1 0x20 PUSH1 0x0 KECCAK256 ADD PUSH1 0x0 PUSH2 0x278 SWAP2 SWAP1 PUSH2 0x2B4 JUMP JUMPDEST SWAP1 SSTORE JUMP JUMPDEST PUSH1 0x0 DUP2 SWAP1 DUP1 PUSH1 0x1 DUP2 SLOAD ADD DUP1 DUP3 SSTORE DUP1 SWAP2 POP POP PUSH1 0x1 SWAP1 SUB SWAP1 PUSH1 0x0 MSTORE PUSH1 0x20 PUSH1 0x0 KECCAK256 ADD PUSH1 0x0 SWAP1 SWAP2 SWAP1 SWAP2 SWAP1 SWAP2 POP SWAP1 DUP2 PUSH2 0x2B0 SWAP2 SWAP1 PUSH2 0x921 JUMP JUMPDEST POP POP JUMP JUMPDEST POP DUP1 SLOAD PUSH2 0x2C0 SWAP1 PUSH2 0x715 JUMP JUMPDEST PUSH1 0x0 DUP3 SSTORE DUP1 PUSH1 0x1F LT PUSH2 0x2D2 JUMPI POP PUSH2 0x2F1 JUMP JUMPDEST PUSH1 0x1F ADD PUSH1 0x20 SWAP1 DIV SWAP1 PUSH1 0x0 MSTORE PUSH1 0x20 PUSH1 0x0 KECCAK256 SWAP1 DUP2 ADD SWAP1 PUSH2 0x2F0 SWAP2 SWAP1 PUSH2 0x2F4 JUMP JUMPDEST JUMPDEST POP JUMP JUMPDEST JUMPDEST DUP1 DUP3 GT ISZERO PUSH2 0x30D JUMPI PUSH1 0x0 DUP2 PUSH1 0x0 SWAP1 SSTORE POP PUSH1 0x1 ADD PUSH2 0x2F5 JUMP JUMPDEST POP SWAP1 JUMP JUMPDEST PUSH1 0x0 DUP2 MLOAD SWAP1 POP SWAP2 SWAP1 POP JUMP JUMPDEST PUSH1 0x0 DUP3 DUP3 MSTORE PUSH1 0x20 DUP3 ADD SWAP1 POP SWAP3 SWAP2 POP POP JUMP JUMPDEST PUSH1 0x0 DUP2 SWAP1 POP PUSH1 0x20 DUP3 ADD SWAP1 POP SWAP2 SWAP1 POP JUMP JUMPDEST PUSH1 0x0 DUP2 MLOAD SWAP1 POP SWAP2 SWAP1 POP JUMP JUMPDEST PUSH1 0x0 DUP3 DUP3 MSTORE PUSH1 0x20 DUP3 ADD SWAP1 POP SWAP3 SWAP2 POP POP JUMP JUMPDEST PUSH1 0x0 JUMPDEST DUP4 DUP2 LT ISZERO PUSH2 0x377 JUMPI DUP1 DUP3 ADD MLOAD DUP2 DUP5 ADD MSTORE PUSH1 0x20 DUP2 ADD SWAP1 POP PUSH2 0x35C JUMP JUMPDEST PUSH1 0x0 DUP5 DUP5 ADD MSTORE POP POP POP POP JUMP JUMPDEST PUSH1 0x0 PUSH1 0x1F NOT PUSH1 0x1F DUP4 ADD AND SWAP1 POP SWAP2 SWAP1 POP JUMP JUMPDEST PUSH1 0x0 PUSH2 0x39F DUP3 PUSH2 0x33D JUMP JUMPDEST PUSH2 0x3A9 DUP2 DUP6 PUSH2 0x348 JUMP JUMPDEST SWAP4 POP PUSH2 0x3B9 DUP2 DUP6 PUSH1 0x20 DUP7 ADD PUSH2 0x359 JUMP JUMPDEST PUSH2 0x3C2 DUP2 PUSH2 0x383 JUMP JUMPDEST DUP5 ADD SWAP2 POP POP SWAP3 SWAP2 POP POP JUMP JUMPDEST PUSH1 0x0 PUSH2 0x3D9 DUP4 DUP4 PUSH2 0x394 JUMP JUMPDEST SWAP1 POP SWAP3 SWAP2 POP POP JUMP JUMPDEST PUSH1 0x0 PUSH1 0x20 DUP3 ADD SWAP1 POP SWAP2 SWAP1 POP JUMP JUMPDEST PUSH1 0x0 PUSH2 0x3F9 DUP3 PUSH2 0x311 JUMP JUMPDEST PUSH2 0x403 DUP2 DUP6 PUSH2 0x31C JUMP JUMPDEST SWAP4 POP DUP4 PUSH1 0x20 DUP3 MUL DUP6 ADD PUSH2 0x415 DUP6 PUSH2 0x32D JUMP JUMPDEST DUP1 PUSH1 0x0 JUMPDEST DUP6 DUP2 LT ISZERO PUSH2 0x451 JUMPI DUP5 DUP5 SUB DUP10 MSTORE DUP2 MLOAD PUSH2 0x432 DUP6 DUP3 PUSH2 0x3CD JUMP JUMPDEST SWAP5 POP PUSH2 0x43D DUP4 PUSH2 0x3E1 JUMP JUMPDEST SWAP3 POP PUSH1 0x20 DUP11 ADD SWAP10 POP POP PUSH1 0x1 DUP2 ADD SWAP1 POP PUSH2 0x419 JUMP JUMPDEST POP DUP3 SWAP8 POP DUP8 SWAP6 POP POP POP POP POP POP SWAP3 SWAP2 POP POP JUMP JUMPDEST PUSH1 0x0 PUSH1 0x20 DUP3 ADD SWAP1 POP DUP2 DUP2 SUB PUSH1 0x0 DUP4 ADD MSTORE PUSH2 0x47D DUP2 DUP5 PUSH2 0x3EE JUMP JUMPDEST SWAP1 POP SWAP3 SWAP2 POP POP JUMP JUMPDEST PUSH1 0x0 PUSH1 0x40 MLOAD SWAP1 POP SWAP1 JUMP JUMPDEST PUSH1 0x0 DUP1 REVERT JUMPDEST PUSH1 0x0 DUP1 REVERT JUMPDEST PUSH1 0x0 DUP2 SWAP1 POP SWAP2 SWAP1 POP JUMP JUMPDEST PUSH2 0x4AC DUP2 PUSH2 0x499 JUMP JUMPDEST DUP2 EQ PUSH2 0x4B7 JUMPI PUSH1 0x0 DUP1 REVERT JUMPDEST POP JUMP JUMPDEST PUSH1 0x0 DUP2 CALLDATALOAD SWAP1 POP PUSH2 0x4C9 DUP2 PUSH2 0x4A3 JUMP JUMPDEST SWAP3 SWAP2 POP POP JUMP JUMPDEST PUSH1 0x0 PUSH1 0x20 DUP3 DUP5 SUB SLT ISZERO PUSH2 0x4E5 JUMPI PUSH2 0x4E4 PUSH2 0x48F JUMP JUMPDEST JUMPDEST PUSH1 0x0 PUSH2 0x4F3 DUP5 DUP3 DUP6 ADD PUSH2 0x4BA JUMP JUMPDEST SWAP2 POP POP SWAP3 SWAP2 POP POP JUMP JUMPDEST PUSH1 0x0 DUP3 DUP3 MSTORE PUSH1 0x20 DUP3 ADD SWAP1 POP SWAP3 SWAP2 POP POP JUMP JUMPDEST PUSH1 0x0 PUSH2 0x518 DUP3 PUSH2 0x33D JUMP JUMPDEST PUSH2 0x522 DUP2 DUP6 PUSH2 0x4FC JUMP JUMPDEST SWAP4 POP PUSH2 0x532 DUP2 DUP6 PUSH1 0x20 DUP7 ADD PUSH2 0x359 JUMP JUMPDEST PUSH2 0x53B DUP2 PUSH2 0x383 JUMP JUMPDEST DUP5 ADD SWAP2 POP POP SWAP3 SWAP2 POP POP JUMP JUMPDEST PUSH1 0x0 PUSH1 0x20 DUP3 ADD SWAP1 POP DUP2 DUP2 SUB PUSH1 0x0 DUP4 ADD MSTORE PUSH2 0x560 DUP2 DUP5 PUSH2 0x50D JUMP JUMPDEST SWAP1 POP SWAP3 SWAP2 POP POP JUMP JUMPDEST PUSH1 0x0 DUP1 REVERT JUMPDEST PUSH1 0x0 DUP1 REVERT JUMPDEST PUSH32 0x4E487B7100000000000000000000000000000000000000000000000000000000 PUSH1 0x0 MSTORE PUSH1 0x41 PUSH1 0x4 MSTORE PUSH1 0x24 PUSH1 0x0 REVERT JUMPDEST PUSH2 0x5AA DUP3 PUSH2 0x383 JUMP JUMPDEST DUP2 ADD DUP2 DUP2 LT PUSH8 0xFFFFFFFFFFFFFFFF DUP3 GT OR ISZERO PUSH2 0x5C9 JUMPI PUSH2 0x5C8 PUSH2 0x572 JUMP JUMPDEST JUMPDEST DUP1 PUSH1 0x40 MSTORE POP POP POP JUMP JUMPDEST PUSH1 0x0 PUSH2 0x5DC PUSH2 0x485 JUMP JUMPDEST SWAP1 POP PUSH2 0x5E8 DUP3 DUP3 PUSH2 0x5A1 JUMP JUMPDEST SWAP2 SWAP1 POP JUMP JUMPDEST PUSH1 0x0 PUSH8 0xFFFFFFFFFFFFFFFF DUP3 GT ISZERO PUSH2 0x608 JUMPI PUSH2 0x607 PUSH2 0x572 JUMP JUMPDEST JUMPDEST PUSH2 0x611 DUP3 PUSH2 0x383 JUMP JUMPDEST SWAP1 POP PUSH1 0x20 DUP2 ADD SWAP1 POP SWAP2 SWAP1 POP JUMP JUMPDEST DUP3 DUP2 DUP4 CALLDATACOPY PUSH1 0x0 DUP4 DUP4 ADD MSTORE POP POP POP JUMP JUMPDEST PUSH1 0x0 PUSH2 0x640 PUSH2 0x63B DUP5 PUSH2 0x5ED JUMP JUMPDEST PUSH2 0x5D2 JUMP JUMPDEST SWAP1 POP DUP3 DUP2 MSTORE PUSH1 0x20 DUP2 ADD DUP5 DUP5 DUP5 ADD GT ISZERO PUSH2 0x65C JUMPI PUSH2 0x65B PUSH2 0x56D JUMP JUMPDEST JUMPDEST PUSH2 0x667 DUP5 DUP3 DUP6 PUSH2 0x61E JUMP JUMPDEST POP SWAP4 SWAP3 POP POP POP JUMP JUMPDEST PUSH1 0x0 DUP3 PUSH1 0x1F DUP4 ADD SLT PUSH2 0x684 JUMPI PUSH2 0x683 PUSH2 0x568 JUMP JUMPDEST JUMPDEST DUP2 CALLDATALOAD PUSH2 0x694 DUP5 DUP3 PUSH1 0x20 DUP7 ADD PUSH2 0x62D JUMP JUMPDEST SWAP2 POP POP SWAP3 SWAP2 POP POP JUMP JUMPDEST PUSH1 0x0 PUSH1 0x20 DUP3 DUP5 SUB SLT ISZERO PUSH2 0x6B3 JUMPI PUSH2 0x6B2 PUSH2 0x48F JUMP JUMPDEST JUMPDEST PUSH1 0x0 DUP3 ADD CALLDATALOAD PUSH8 0xFFFFFFFFFFFFFFFF DUP2 GT ISZERO PUSH2 0x6D1 JUMPI PUSH2 0x6D0 PUSH2 0x494 JUMP JUMPDEST JUMPDEST PUSH2 0x6DD DUP5 DUP3 DUP6 ADD PUSH2 0x66F JUMP JUMPDEST SWAP2 POP POP SWAP3 SWAP2 POP POP JUMP JUMPDEST PUSH32 0x4E487B7100000000000000000000000000000000000000000000000000000000 PUSH1 0x0 MSTORE PUSH1 0x22 PUSH1 0x4 MSTORE PUSH1 0x24 PUSH1 0x0 REVERT JUMPDEST PUSH1 0x0 PUSH1 0x2 DUP3 DIV SWAP1 POP PUSH1 0x1 DUP3 AND DUP1 PUSH2 0x72D JUMPI PUSH1 0x7F DUP3 AND SWAP2 POP JUMPDEST PUSH1 0x20 DUP3 LT DUP2 SUB PUSH2 0x740 JUMPI PUSH2 0x73F PUSH2 0x6E6 JUMP JUMPDEST JUMPDEST POP SWAP2 SWAP1 POP JUMP JUMPDEST PUSH32 0x4E487B7100000000000000000000000000000000000000000000000000000000 PUSH1 0x0 MSTORE PUSH1 0x31 PUSH1 0x4 MSTORE PUSH1 0x24 PUSH1 0x0 REVERT JUMPDEST PUSH1 0x0 DUP2 SWAP1 POP DUP2 PUSH1 0x0 MSTORE PUSH1 0x20 PUSH1 0x0 KECCAK256 SWAP1 POP SWAP2 SWAP1 POP JUMP JUMPDEST PUSH1 0x0 PUSH1 0x20 PUSH1 0x1F DUP4 ADD DIV SWAP1 POP SWAP2 SWAP1 POP JUMP JUMPDEST PUSH1 0x0 DUP3 DUP3 SHL SWAP1 POP SWAP3 SWAP2 POP POP JUMP JUMPDEST PUSH1 0x0 PUSH1 0x8 DUP4 MUL PUSH2 0x7D7 PUSH32 0xFFFFFFFFFFFFFFFFFFFFFFFFFFFFFFFFFFFFFFFFFFFFFFFFFFFFFFFFFFFFFFFF DUP3 PUSH2 0x79A JUMP JUMPDEST PUSH2 0x7E1 DUP7 DUP4 PUSH2 0x79A JUMP JUMPDEST SWAP6 POP DUP1 NOT DUP5 AND SWAP4 POP DUP1 DUP7 AND DUP5 OR SWAP3 POP POP POP SWAP4 SWAP3 POP POP POP JUMP JUMPDEST PUSH1 0x0 DUP2 SWAP1 POP SWAP2 SWAP1 POP JUMP JUMPDEST PUSH1 0x0 PUSH2 0x81E PUSH2 0x819 PUSH2 0x814 DUP5 PUSH2 0x499 JUMP JUMPDEST PUSH2 0x7F9 JUMP JUMPDEST PUSH2 0x499 JUMP JUMPDEST SWAP1 POP SWAP2 SWAP1 POP JUMP JUMPDEST PUSH1 0x0 DUP2 SWAP1 POP SWAP2 SWAP1 POP JUMP JUMPDEST PUSH2 0x838 DUP4 PUSH2 0x803 JUMP JUMPDEST PUSH2 0x84C PUSH2 0x844 DUP3 PUSH2 0x825 JUMP JUMPDEST DUP5 DUP5 SLOAD PUSH2 0x7A7 JUMP JUMPDEST DUP3 SSTORE POP POP POP POP JUMP JUMPDEST PUSH1 0x0 SWAP1 JUMP JUMPDEST PUSH2 0x861 PUSH2 0x854 JUMP JUMPDEST PUSH2 0x86C DUP2 DUP5 DUP5 PUSH2 0x82F JUMP JUMPDEST POP POP POP JUMP JUMPDEST JUMPDEST DUP2 DUP2 LT ISZERO PUSH2 0x890 JUMPI PUSH2 0x885 PUSH1 0x0 DUP3 PUSH2 0x859 JUMP JUMPDEST PUSH1 0x1 DUP2 ADD SWAP1 POP PUSH2 0x872 JUMP JUMPDEST POP POP JUMP JUMPDEST PUSH1 0x1F DUP3 GT ISZERO PUSH2 0x8D5 JUMPI PUSH2 0x8A6 DUP2 PUSH2 0x775 JUMP JUMPDEST PUSH2 0x8AF DUP5 PUSH2 0x78A JUMP JUMPDEST DUP2 ADD PUSH1 0x20 DUP6 LT ISZERO PUSH2 0x8BE JUMPI DUP2 SWAP1 POP JUMPDEST PUSH2 0x8D2 PUSH2 0x8CA DUP6 PUSH2 0x78A JUMP JUMPDEST DUP4 ADD DUP3 PUSH2 0x871 JUMP JUMPDEST POP POP JUMPDEST POP POP POP JUMP JUMPDEST PUSH1 0x0 DUP3 DUP3 SHR SWAP1 POP SWAP3 SWAP2 POP POP JUMP JUMPDEST PUSH1 0x0 PUSH2 0x8F8 PUSH1 0x0 NOT DUP5 PUSH1 0x8 MUL PUSH2 0x8DA JUMP JUMPDEST NOT DUP1 DUP4 AND SWAP2 POP POP SWAP3 SWAP2 POP POP JUMP JUMPDEST PUSH1 0x0 PUSH2 0x911 DUP4 DUP4 PUSH2 0x8E7 JUMP JUMPDEST SWAP2 POP DUP3 PUSH1 0x2 MUL DUP3 OR SWAP1 POP SWAP3 SWAP2 POP POP JUMP JUMPDEST PUSH2 0x92A DUP3 PUSH2 0x33D JUMP JUMPDEST PUSH8 0xFFFFFFFFFFFFFFFF DUP2 GT ISZERO PUSH2 0x943 JUMPI PUSH2 0x942 PUSH2 0x572 JUMP JUMPDEST JUMPDEST PUSH2 0x94D DUP3 SLOAD PUSH2 0x715 JUMP JUMPDEST PUSH2 0x958 DUP3 DUP3 DUP6 PUSH2 0x894 JUMP JUMPDEST PUSH1 0x0 PUSH1 0x20 SWAP1 POP PUSH1 0x1F DUP4 GT PUSH1 0x1 DUP2 EQ PUSH2 0x98B JUMPI PUSH1 0x0 DUP5 ISZERO PUSH2 0x979 JUMPI DUP3 DUP8 ADD MLOAD SWAP1 POP JUMPDEST PUSH2 0x983 DUP6 DUP3 PUSH2 0x905 JUMP JUMPDEST DUP7 SSTORE POP PUSH2 0x9EB JUMP JUMPDEST PUSH1 0x1F NOT DUP5 AND PUSH2 0x999 DUP7 PUSH2 0x775 JUMP JUMPDEST PUSH1 0x0 JUMPDEST DUP3 DUP2 LT ISZERO PUSH2 0x9C1 JUMPI DUP5 DUP10 ADD MLOAD DUP3 SSTORE PUSH1 0x1 DUP3 ADD SWAP2 POP PUSH1 0x20 DUP6 ADD SWAP5 POP PUSH1 0x20 DUP2 ADD SWAP1 POP PUSH2 0x99C JUMP JUMPDEST DUP7 DUP4 LT ISZERO PUSH2 0x9DE JUMPI DUP5 DUP10 ADD MLOAD PUSH2 0x9DA PUSH1 0x1F DUP10 AND DUP3 PUSH2 0x8E7 JUMP JUMPDEST DUP4 SSTORE POP JUMPDEST PUSH1 0x1 PUSH1 0x2 DUP9 MUL ADD DUP9 SSTORE POP POP POP JUMPDEST POP POP POP POP POP POP JUMP INVALID LOG2 PUSH5 0x6970667358 0x22 SLT KECCAK256 STATICCALL 0xED 0xA9 0xCA DUP6 BASEFEE SWAP10 CALLCODE CALL 0xD2 PUSH19 0x17FBF32BD80B56F9F00A0979495F1288349190 DUP11 0x5D PUSH5 0x736F6C6343 STOP ADDMOD SLT STOP CALLER "
				},
				"gasEstimates": {
					"creation": {
						"codeDepositCost": "520200",
						"executionCost": "556",
						"totalCost": "520756"
					},
					"external": {
						"delation()": "infinite",
						"insertString(string)": "infinite",
						"returnString()": "infinite",
						"str(uint256)": "infinite"
					}
				},
				"methodIdentifiers": {
					"delation()": "a402c2e9",
					"insertString(string)": "b7b3d9b5",
					"returnString()": "6cf43347",
					"str(uint256)": "72511838"
				}
			},
			"storageLayout": {
				"storage": [
					{
						"astId": 4,
						"contract": "contracts/14DynamicString.sol:DynamicString",
						"label": "str",
						"offset": 0,
						"slot": "0",
						"type": "t_array(t_string_storage)dyn_storage"
					}
				],
				"types": {
					"t_array(t_string_storage)dyn_storage": {
						"base": "t_string_storage",
						"encoding": "dynamic_array",
						"label": "string[]",
						"numberOfBytes": "32"
					},
					"t_string_storage": {
						"encoding": "bytes",
						"label": "string",
						"numberOfBytes": "32"
					}
				}
			},
			"userdoc": {
				"kind": "user",
				"methods": {},
				"version": 1
			}
		}
	}
}