{
	"contracts/12mappingWithStruct.sol": {
		"StudentDetails": {
			"abi": [
				{
					"inputs": [
						{
							"internalType": "address",
							"name": "_address",
							"type": "address"
						}
					],
					"name": "getStudentDetails",
					"outputs": [
						{
							"components": [
								{
									"internalType": "string",
									"name": "name",
									"type": "string"
								},
								{
									"internalType": "uint256",
									"name": "roll",
									"type": "uint256"
								},
								{
									"internalType": "uint256",
									"name": "age",
									"type": "uint256"
								}
							],
							"internalType": "struct StudentDetails.Student",
							"name": "",
							"type": "tuple"
						}
					],
					"stateMutability": "view",
					"type": "function"
				},
				{
					"inputs": [
						{
							"internalType": "address",
							"name": "_address",
							"type": "address"
						},
						{
							"internalType": "string",
							"name": "_name",
							"type": "string"
						},
						{
							"internalType": "uint256",
							"name": "_roll",
							"type": "uint256"
						},
						{
							"internalType": "uint256",
							"name": "_age",
							"type": "uint256"
						}
					],
					"name": "insertStudentDetails",
					"outputs": [],
					"stateMutability": "nonpayable",
					"type": "function"
				},
				{
					"inputs": [
						{
							"internalType": "address",
							"name": "",
							"type": "address"
						}
					],
					"name": "students",
					"outputs": [
						{
							"internalType": "string",
							"name": "name",
							"type": "string"
						},
						{
							"internalType": "uint256",
							"name": "roll",
							"type": "uint256"
						},
						{
							"internalType": "uint256",
							"name": "age",
							"type": "uint256"
						}
					],
					"stateMutability": "view",
					"type": "function"
				}
			],
			"devdoc": {
				"kind": "dev",
				"methods": {},
				"version": 1
			},
			"evm": {
				"assembly": "    /* \"contracts/12mappingWithStruct.sol\":663:1197  contract StudentDetails{... */\n  mstore(0x40, 0x80)\n  callvalue\n  dup1\n  iszero\n  tag_1\n  jumpi\n  0x00\n  dup1\n  revert\ntag_1:\n  pop\n  dataSize(sub_0)\n  dup1\n  dataOffset(sub_0)\n  0x00\n  codecopy\n  0x00\n  return\nstop\n\nsub_0: assembly {\n        /* \"contracts/12mappingWithStruct.sol\":663:1197  contract StudentDetails{... */\n      mstore(0x40, 0x80)\n      callvalue\n      dup1\n      iszero\n      tag_1\n      jumpi\n      0x00\n      dup1\n      revert\n    tag_1:\n      pop\n      jumpi(tag_2, lt(calldatasize, 0x04))\n      shr(0xe0, calldataload(0x00))\n      dup1\n      0x3f7e722a\n      eq\n      tag_3\n      jumpi\n      dup1\n      0xa6c807a9\n      eq\n      tag_4\n      jumpi\n      dup1\n      0xd0b371bd\n      eq\n      tag_5\n      jumpi\n    tag_2:\n      0x00\n      dup1\n      revert\n        /* \"contracts/12mappingWithStruct.sol\":870:1046  function insertStudentDetails(address _address , string memory _name, uint _roll, uint _age) public{... */\n    tag_3:\n      tag_6\n      0x04\n      dup1\n      calldatasize\n      sub\n      dup2\n      add\n      swap1\n      tag_7\n      swap2\n      swap1\n      tag_8\n      jump\t// in\n    tag_7:\n      tag_9\n      jump\t// in\n    tag_6:\n      stop\n        /* \"contracts/12mappingWithStruct.sol\":806:849  mapping(address => Student) public students */\n    tag_4:\n      tag_10\n      0x04\n      dup1\n      calldatasize\n      sub\n      dup2\n      add\n      swap1\n      tag_11\n      swap2\n      swap1\n      tag_12\n      jump\t// in\n    tag_11:\n      tag_13\n      jump\t// in\n    tag_10:\n      mload(0x40)\n      tag_14\n      swap4\n      swap3\n      swap2\n      swap1\n      tag_15\n      jump\t// in\n    tag_14:\n      mload(0x40)\n      dup1\n      swap2\n      sub\n      swap1\n      return\n        /* \"contracts/12mappingWithStruct.sol\":1058:1190  function getStudentDetails(address _address) public view returns(Student memory){... */\n    tag_5:\n      tag_16\n      0x04\n      dup1\n      calldatasize\n      sub\n      dup2\n      add\n      swap1\n      tag_17\n      swap2\n      swap1\n      tag_12\n      jump\t// in\n    tag_17:\n      tag_18\n      jump\t// in\n    tag_16:\n      mload(0x40)\n      tag_19\n      swap2\n      swap1\n      tag_20\n      jump\t// in\n    tag_19:\n      mload(0x40)\n      dup1\n      swap2\n      sub\n      swap1\n      return\n        /* \"contracts/12mappingWithStruct.sol\":870:1046  function insertStudentDetails(address _address , string memory _name, uint _roll, uint _age) public{... */\n    tag_9:\n        /* \"contracts/12mappingWithStruct.sol\":1005:1032  Student(_name, _roll, _age) */\n      mload(0x40)\n      dup1\n      0x60\n      add\n      0x40\n      mstore\n      dup1\n        /* \"contracts/12mappingWithStruct.sol\":1013:1018  _name */\n      dup5\n        /* \"contracts/12mappingWithStruct.sol\":1005:1032  Student(_name, _roll, _age) */\n      dup2\n      mstore\n      0x20\n      add\n        /* \"contracts/12mappingWithStruct.sol\":1020:1025  _roll */\n      dup4\n        /* \"contracts/12mappingWithStruct.sol\":1005:1032  Student(_name, _roll, _age) */\n      dup2\n      mstore\n      0x20\n      add\n        /* \"contracts/12mappingWithStruct.sol\":1027:1031  _age */\n      dup3\n        /* \"contracts/12mappingWithStruct.sol\":1005:1032  Student(_name, _roll, _age) */\n      dup2\n      mstore\n      pop\n        /* \"contracts/12mappingWithStruct.sol\":984:992  students */\n      0x00\n        /* \"contracts/12mappingWithStruct.sol\":984:1002  students[_address] */\n      dup1\n        /* \"contracts/12mappingWithStruct.sol\":993:1001  _address */\n      dup7\n        /* \"contracts/12mappingWithStruct.sol\":984:1002  students[_address] */\n      0xffffffffffffffffffffffffffffffffffffffff\n      and\n      0xffffffffffffffffffffffffffffffffffffffff\n      and\n      dup2\n      mstore\n      0x20\n      add\n      swap1\n      dup2\n      mstore\n      0x20\n      add\n      0x00\n      keccak256\n        /* \"contracts/12mappingWithStruct.sol\":984:1032  students[_address] = Student(_name, _roll, _age) */\n      0x00\n      dup3\n      add\n      mload\n      dup2\n      0x00\n      add\n      swap1\n      dup2\n      tag_22\n      swap2\n      swap1\n      tag_23\n      jump\t// in\n    tag_22:\n      pop\n      0x20\n      dup3\n      add\n      mload\n      dup2\n      0x01\n      add\n      sstore\n      0x40\n      dup3\n      add\n      mload\n      dup2\n      0x02\n      add\n      sstore\n      swap1\n      pop\n      pop\n        /* \"contracts/12mappingWithStruct.sol\":870:1046  function insertStudentDetails(address _address , string memory _name, uint _roll, uint _age) public{... */\n      pop\n      pop\n      pop\n      pop\n      jump\t// out\n        /* \"contracts/12mappingWithStruct.sol\":806:849  mapping(address => Student) public students */\n    tag_13:\n      mstore(0x20, 0x00)\n      dup1\n      0x00\n      mstore\n      keccak256(0x00, 0x40)\n      0x00\n      swap2\n      pop\n      swap1\n      pop\n      dup1\n      0x00\n      add\n      dup1\n      sload\n      tag_24\n      swap1\n      tag_25\n      jump\t// in\n    tag_24:\n      dup1\n      0x1f\n      add\n      0x20\n      dup1\n      swap2\n      div\n      mul\n      0x20\n      add\n      mload(0x40)\n      swap1\n      dup2\n      add\n      0x40\n      mstore\n      dup1\n      swap3\n      swap2\n      swap1\n      dup2\n      dup2\n      mstore\n      0x20\n      add\n      dup3\n      dup1\n      sload\n      tag_26\n      swap1\n      tag_25\n      jump\t// in\n    tag_26:\n      dup1\n      iszero\n      tag_27\n      jumpi\n      dup1\n      0x1f\n      lt\n      tag_28\n      jumpi\n      0x0100\n      dup1\n      dup4\n      sload\n      div\n      mul\n      dup4\n      mstore\n      swap2\n      0x20\n      add\n      swap2\n      jump(tag_27)\n    tag_28:\n      dup3\n      add\n      swap2\n      swap1\n      0x00\n      mstore\n      keccak256(0x00, 0x20)\n      swap1\n    tag_29:\n      dup2\n      sload\n      dup2\n      mstore\n      swap1\n      0x01\n      add\n      swap1\n      0x20\n      add\n      dup1\n      dup4\n      gt\n      tag_29\n      jumpi\n      dup3\n      swap1\n      sub\n      0x1f\n      and\n      dup3\n      add\n      swap2\n    tag_27:\n      pop\n      pop\n      pop\n      pop\n      pop\n      swap1\n      dup1\n      0x01\n      add\n      sload\n      swap1\n      dup1\n      0x02\n      add\n      sload\n      swap1\n      pop\n      dup4\n      jump\t// out\n        /* \"contracts/12mappingWithStruct.sol\":1058:1190  function getStudentDetails(address _address) public view returns(Student memory){... */\n    tag_18:\n        /* \"contracts/12mappingWithStruct.sol\":1123:1137  Student memory */\n      tag_30\n      tag_31\n      jump\t// in\n    tag_30:\n        /* \"contracts/12mappingWithStruct.sol\":1160:1168  students */\n      0x00\n        /* \"contracts/12mappingWithStruct.sol\":1160:1178  students[_address] */\n      dup1\n        /* \"contracts/12mappingWithStruct.sol\":1169:1177  _address */\n      dup4\n        /* \"contracts/12mappingWithStruct.sol\":1160:1178  students[_address] */\n      0xffffffffffffffffffffffffffffffffffffffff\n      and\n      0xffffffffffffffffffffffffffffffffffffffff\n      and\n      dup2\n      mstore\n      0x20\n      add\n      swap1\n      dup2\n      mstore\n      0x20\n      add\n      0x00\n      keccak256\n        /* \"contracts/12mappingWithStruct.sol\":1153:1178  return students[_address] */\n      mload(0x40)\n      dup1\n      0x60\n      add\n      0x40\n      mstore\n      swap1\n      dup2\n      0x00\n      dup3\n      add\n      dup1\n      sload\n      tag_33\n      swap1\n      tag_25\n      jump\t// in\n    tag_33:\n      dup1\n      0x1f\n      add\n      0x20\n      dup1\n      swap2\n      div\n      mul\n      0x20\n      add\n      mload(0x40)\n      swap1\n      dup2\n      add\n      0x40\n      mstore\n      dup1\n      swap3\n      swap2\n      swap1\n      dup2\n      dup2\n      mstore\n      0x20\n      add\n      dup3\n      dup1\n      sload\n      tag_34\n      swap1\n      tag_25\n      jump\t// in\n    tag_34:\n      dup1\n      iszero\n      tag_35\n      jumpi\n      dup1\n      0x1f\n      lt\n      tag_36\n      jumpi\n      0x0100\n      dup1\n      dup4\n      sload\n      div\n      mul\n      dup4\n      mstore\n      swap2\n      0x20\n      add\n      swap2\n      jump(tag_35)\n    tag_36:\n      dup3\n      add\n      swap2\n      swap1\n      0x00\n      mstore\n      keccak256(0x00, 0x20)\n      swap1\n    tag_37:\n      dup2\n      sload\n      dup2\n      mstore\n      swap1\n      0x01\n      add\n      swap1\n      0x20\n      add\n      dup1\n      dup4\n      gt\n      tag_37\n      jumpi\n      dup3\n      swap1\n      sub\n      0x1f\n      and\n      dup3\n      add\n      swap2\n    tag_35:\n      pop\n      pop\n      pop\n      pop\n      pop\n      dup2\n      mstore\n      0x20\n      add\n      0x01\n      dup3\n      add\n      sload\n      dup2\n      mstore\n      0x20\n      add\n      0x02\n      dup3\n      add\n      sload\n      dup2\n      mstore\n      pop\n      pop\n      swap1\n      pop\n        /* \"contracts/12mappingWithStruct.sol\":1058:1190  function getStudentDetails(address _address) public view returns(Student memory){... */\n      swap2\n      swap1\n      pop\n      jump\t// out\n    tag_31:\n      mload(0x40)\n      dup1\n      0x60\n      add\n      0x40\n      mstore\n      dup1\n      0x60\n      dup2\n      mstore\n      0x20\n      add\n      0x00\n      dup2\n      mstore\n      0x20\n      add\n      0x00\n      dup2\n      mstore\n      pop\n      swap1\n      jump\t// out\n        /* \"#utility.yul\":7:82   */\n    tag_38:\n        /* \"#utility.yul\":40:46   */\n      0x00\n        /* \"#utility.yul\":73:75   */\n      0x40\n        /* \"#utility.yul\":67:76   */\n      mload\n        /* \"#utility.yul\":57:76   */\n      swap1\n      pop\n        /* \"#utility.yul\":7:82   */\n      swap1\n      jump\t// out\n        /* \"#utility.yul\":88:205   */\n    tag_39:\n        /* \"#utility.yul\":197:198   */\n      0x00\n        /* \"#utility.yul\":194:195   */\n      dup1\n        /* \"#utility.yul\":187:199   */\n      revert\n        /* \"#utility.yul\":211:328   */\n    tag_40:\n        /* \"#utility.yul\":320:321   */\n      0x00\n        /* \"#utility.yul\":317:318   */\n      dup1\n        /* \"#utility.yul\":310:322   */\n      revert\n        /* \"#utility.yul\":334:460   */\n    tag_41:\n        /* \"#utility.yul\":371:378   */\n      0x00\n        /* \"#utility.yul\":411:453   */\n      0xffffffffffffffffffffffffffffffffffffffff\n        /* \"#utility.yul\":404:409   */\n      dup3\n        /* \"#utility.yul\":400:454   */\n      and\n        /* \"#utility.yul\":389:454   */\n      swap1\n      pop\n        /* \"#utility.yul\":334:460   */\n      swap2\n      swap1\n      pop\n      jump\t// out\n        /* \"#utility.yul\":466:562   */\n    tag_42:\n        /* \"#utility.yul\":503:510   */\n      0x00\n        /* \"#utility.yul\":532:556   */\n      tag_89\n        /* \"#utility.yul\":550:555   */\n      dup3\n        /* \"#utility.yul\":532:556   */\n      tag_41\n      jump\t// in\n    tag_89:\n        /* \"#utility.yul\":521:556   */\n      swap1\n      pop\n        /* \"#utility.yul\":466:562   */\n      swap2\n      swap1\n      pop\n      jump\t// out\n        /* \"#utility.yul\":568:690   */\n    tag_43:\n        /* \"#utility.yul\":641:665   */\n      tag_91\n        /* \"#utility.yul\":659:664   */\n      dup2\n        /* \"#utility.yul\":641:665   */\n      tag_42\n      jump\t// in\n    tag_91:\n        /* \"#utility.yul\":634:639   */\n      dup2\n        /* \"#utility.yul\":631:666   */\n      eq\n        /* \"#utility.yul\":621:684   */\n      tag_92\n      jumpi\n        /* \"#utility.yul\":680:681   */\n      0x00\n        /* \"#utility.yul\":677:678   */\n      dup1\n        /* \"#utility.yul\":670:682   */\n      revert\n        /* \"#utility.yul\":621:684   */\n    tag_92:\n        /* \"#utility.yul\":568:690   */\n      pop\n      jump\t// out\n        /* \"#utility.yul\":696:835   */\n    tag_44:\n        /* \"#utility.yul\":742:747   */\n      0x00\n        /* \"#utility.yul\":780:786   */\n      dup2\n        /* \"#utility.yul\":767:787   */\n      calldataload\n        /* \"#utility.yul\":758:787   */\n      swap1\n      pop\n        /* \"#utility.yul\":796:829   */\n      tag_94\n        /* \"#utility.yul\":823:828   */\n      dup2\n        /* \"#utility.yul\":796:829   */\n      tag_43\n      jump\t// in\n    tag_94:\n        /* \"#utility.yul\":696:835   */\n      swap3\n      swap2\n      pop\n      pop\n      jump\t// out\n        /* \"#utility.yul\":841:958   */\n    tag_45:\n        /* \"#utility.yul\":950:951   */\n      0x00\n        /* \"#utility.yul\":947:948   */\n      dup1\n        /* \"#utility.yul\":940:952   */\n      revert\n        /* \"#utility.yul\":964:1081   */\n    tag_46:\n        /* \"#utility.yul\":1073:1074   */\n      0x00\n        /* \"#utility.yul\":1070:1071   */\n      dup1\n        /* \"#utility.yul\":1063:1075   */\n      revert\n        /* \"#utility.yul\":1087:1189   */\n    tag_47:\n        /* \"#utility.yul\":1128:1134   */\n      0x00\n        /* \"#utility.yul\":1179:1181   */\n      0x1f\n        /* \"#utility.yul\":1175:1182   */\n      not\n        /* \"#utility.yul\":1170:1172   */\n      0x1f\n        /* \"#utility.yul\":1163:1168   */\n      dup4\n        /* \"#utility.yul\":1159:1173   */\n      add\n        /* \"#utility.yul\":1155:1183   */\n      and\n        /* \"#utility.yul\":1145:1183   */\n      swap1\n      pop\n        /* \"#utility.yul\":1087:1189   */\n      swap2\n      swap1\n      pop\n      jump\t// out\n        /* \"#utility.yul\":1195:1375   */\n    tag_48:\n        /* \"#utility.yul\":1243:1320   */\n      0x4e487b7100000000000000000000000000000000000000000000000000000000\n        /* \"#utility.yul\":1240:1241   */\n      0x00\n        /* \"#utility.yul\":1233:1321   */\n      mstore\n        /* \"#utility.yul\":1340:1344   */\n      0x41\n        /* \"#utility.yul\":1337:1338   */\n      0x04\n        /* \"#utility.yul\":1330:1345   */\n      mstore\n        /* \"#utility.yul\":1364:1368   */\n      0x24\n        /* \"#utility.yul\":1361:1362   */\n      0x00\n        /* \"#utility.yul\":1354:1369   */\n      revert\n        /* \"#utility.yul\":1381:1662   */\n    tag_49:\n        /* \"#utility.yul\":1464:1491   */\n      tag_100\n        /* \"#utility.yul\":1486:1490   */\n      dup3\n        /* \"#utility.yul\":1464:1491   */\n      tag_47\n      jump\t// in\n    tag_100:\n        /* \"#utility.yul\":1456:1462   */\n      dup2\n        /* \"#utility.yul\":1452:1492   */\n      add\n        /* \"#utility.yul\":1594:1600   */\n      dup2\n        /* \"#utility.yul\":1582:1592   */\n      dup2\n        /* \"#utility.yul\":1579:1601   */\n      lt\n        /* \"#utility.yul\":1558:1576   */\n      0xffffffffffffffff\n        /* \"#utility.yul\":1546:1556   */\n      dup3\n        /* \"#utility.yul\":1543:1577   */\n      gt\n        /* \"#utility.yul\":1540:1602   */\n      or\n        /* \"#utility.yul\":1537:1625   */\n      iszero\n      tag_101\n      jumpi\n        /* \"#utility.yul\":1605:1623   */\n      tag_102\n      tag_48\n      jump\t// in\n    tag_102:\n        /* \"#utility.yul\":1537:1625   */\n    tag_101:\n        /* \"#utility.yul\":1645:1655   */\n      dup1\n        /* \"#utility.yul\":1641:1643   */\n      0x40\n        /* \"#utility.yul\":1634:1656   */\n      mstore\n        /* \"#utility.yul\":1424:1662   */\n      pop\n        /* \"#utility.yul\":1381:1662   */\n      pop\n      pop\n      jump\t// out\n        /* \"#utility.yul\":1668:1797   */\n    tag_50:\n        /* \"#utility.yul\":1702:1708   */\n      0x00\n        /* \"#utility.yul\":1729:1749   */\n      tag_104\n      tag_38\n      jump\t// in\n    tag_104:\n        /* \"#utility.yul\":1719:1749   */\n      swap1\n      pop\n        /* \"#utility.yul\":1758:1791   */\n      tag_105\n        /* \"#utility.yul\":1786:1790   */\n      dup3\n        /* \"#utility.yul\":1778:1784   */\n      dup3\n        /* \"#utility.yul\":1758:1791   */\n      tag_49\n      jump\t// in\n    tag_105:\n        /* \"#utility.yul\":1668:1797   */\n      swap2\n      swap1\n      pop\n      jump\t// out\n        /* \"#utility.yul\":1803:2111   */\n    tag_51:\n        /* \"#utility.yul\":1865:1869   */\n      0x00\n        /* \"#utility.yul\":1955:1973   */\n      0xffffffffffffffff\n        /* \"#utility.yul\":1947:1953   */\n      dup3\n        /* \"#utility.yul\":1944:1974   */\n      gt\n        /* \"#utility.yul\":1941:1997   */\n      iszero\n      tag_107\n      jumpi\n        /* \"#utility.yul\":1977:1995   */\n      tag_108\n      tag_48\n      jump\t// in\n    tag_108:\n        /* \"#utility.yul\":1941:1997   */\n    tag_107:\n        /* \"#utility.yul\":2015:2044   */\n      tag_109\n        /* \"#utility.yul\":2037:2043   */\n      dup3\n        /* \"#utility.yul\":2015:2044   */\n      tag_47\n      jump\t// in\n    tag_109:\n        /* \"#utility.yul\":2007:2044   */\n      swap1\n      pop\n        /* \"#utility.yul\":2099:2103   */\n      0x20\n        /* \"#utility.yul\":2093:2097   */\n      dup2\n        /* \"#utility.yul\":2089:2104   */\n      add\n        /* \"#utility.yul\":2081:2104   */\n      swap1\n      pop\n        /* \"#utility.yul\":1803:2111   */\n      swap2\n      swap1\n      pop\n      jump\t// out\n        /* \"#utility.yul\":2117:2263   */\n    tag_52:\n        /* \"#utility.yul\":2214:2220   */\n      dup3\n        /* \"#utility.yul\":2209:2212   */\n      dup2\n        /* \"#utility.yul\":2204:2207   */\n      dup4\n        /* \"#utility.yul\":2191:2221   */\n      calldatacopy\n        /* \"#utility.yul\":2255:2256   */\n      0x00\n        /* \"#utility.yul\":2246:2252   */\n      dup4\n        /* \"#utility.yul\":2241:2244   */\n      dup4\n        /* \"#utility.yul\":2237:2253   */\n      add\n        /* \"#utility.yul\":2230:2257   */\n      mstore\n        /* \"#utility.yul\":2117:2263   */\n      pop\n      pop\n      pop\n      jump\t// out\n        /* \"#utility.yul\":2269:2694   */\n    tag_53:\n        /* \"#utility.yul\":2347:2352   */\n      0x00\n        /* \"#utility.yul\":2372:2438   */\n      tag_112\n        /* \"#utility.yul\":2388:2437   */\n      tag_113\n        /* \"#utility.yul\":2430:2436   */\n      dup5\n        /* \"#utility.yul\":2388:2437   */\n      tag_51\n      jump\t// in\n    tag_113:\n        /* \"#utility.yul\":2372:2438   */\n      tag_50\n      jump\t// in\n    tag_112:\n        /* \"#utility.yul\":2363:2438   */\n      swap1\n      pop\n        /* \"#utility.yul\":2461:2467   */\n      dup3\n        /* \"#utility.yul\":2454:2459   */\n      dup2\n        /* \"#utility.yul\":2447:2468   */\n      mstore\n        /* \"#utility.yul\":2499:2503   */\n      0x20\n        /* \"#utility.yul\":2492:2497   */\n      dup2\n        /* \"#utility.yul\":2488:2504   */\n      add\n        /* \"#utility.yul\":2537:2540   */\n      dup5\n        /* \"#utility.yul\":2528:2534   */\n      dup5\n        /* \"#utility.yul\":2523:2526   */\n      dup5\n        /* \"#utility.yul\":2519:2535   */\n      add\n        /* \"#utility.yul\":2516:2541   */\n      gt\n        /* \"#utility.yul\":2513:2625   */\n      iszero\n      tag_114\n      jumpi\n        /* \"#utility.yul\":2544:2623   */\n      tag_115\n      tag_46\n      jump\t// in\n    tag_115:\n        /* \"#utility.yul\":2513:2625   */\n    tag_114:\n        /* \"#utility.yul\":2634:2688   */\n      tag_116\n        /* \"#utility.yul\":2681:2687   */\n      dup5\n        /* \"#utility.yul\":2676:2679   */\n      dup3\n        /* \"#utility.yul\":2671:2674   */\n      dup6\n        /* \"#utility.yul\":2634:2688   */\n      tag_52\n      jump\t// in\n    tag_116:\n        /* \"#utility.yul\":2353:2694   */\n      pop\n        /* \"#utility.yul\":2269:2694   */\n      swap4\n      swap3\n      pop\n      pop\n      pop\n      jump\t// out\n        /* \"#utility.yul\":2714:3054   */\n    tag_54:\n        /* \"#utility.yul\":2770:2775   */\n      0x00\n        /* \"#utility.yul\":2819:2822   */\n      dup3\n        /* \"#utility.yul\":2812:2816   */\n      0x1f\n        /* \"#utility.yul\":2804:2810   */\n      dup4\n        /* \"#utility.yul\":2800:2817   */\n      add\n        /* \"#utility.yul\":2796:2823   */\n      slt\n        /* \"#utility.yul\":2786:2908   */\n      tag_118\n      jumpi\n        /* \"#utility.yul\":2827:2906   */\n      tag_119\n      tag_45\n      jump\t// in\n    tag_119:\n        /* \"#utility.yul\":2786:2908   */\n    tag_118:\n        /* \"#utility.yul\":2944:2950   */\n      dup2\n        /* \"#utility.yul\":2931:2951   */\n      calldataload\n        /* \"#utility.yul\":2969:3048   */\n      tag_120\n        /* \"#utility.yul\":3044:3047   */\n      dup5\n        /* \"#utility.yul\":3036:3042   */\n      dup3\n        /* \"#utility.yul\":3029:3033   */\n      0x20\n        /* \"#utility.yul\":3021:3027   */\n      dup7\n        /* \"#utility.yul\":3017:3034   */\n      add\n        /* \"#utility.yul\":2969:3048   */\n      tag_53\n      jump\t// in\n    tag_120:\n        /* \"#utility.yul\":2960:3048   */\n      swap2\n      pop\n        /* \"#utility.yul\":2776:3054   */\n      pop\n        /* \"#utility.yul\":2714:3054   */\n      swap3\n      swap2\n      pop\n      pop\n      jump\t// out\n        /* \"#utility.yul\":3060:3137   */\n    tag_55:\n        /* \"#utility.yul\":3097:3104   */\n      0x00\n        /* \"#utility.yul\":3126:3131   */\n      dup2\n        /* \"#utility.yul\":3115:3131   */\n      swap1\n      pop\n        /* \"#utility.yul\":3060:3137   */\n      swap2\n      swap1\n      pop\n      jump\t// out\n        /* \"#utility.yul\":3143:3265   */\n    tag_56:\n        /* \"#utility.yul\":3216:3240   */\n      tag_123\n        /* \"#utility.yul\":3234:3239   */\n      dup2\n        /* \"#utility.yul\":3216:3240   */\n      tag_55\n      jump\t// in\n    tag_123:\n        /* \"#utility.yul\":3209:3214   */\n      dup2\n        /* \"#utility.yul\":3206:3241   */\n      eq\n        /* \"#utility.yul\":3196:3259   */\n      tag_124\n      jumpi\n        /* \"#utility.yul\":3255:3256   */\n      0x00\n        /* \"#utility.yul\":3252:3253   */\n      dup1\n        /* \"#utility.yul\":3245:3257   */\n      revert\n        /* \"#utility.yul\":3196:3259   */\n    tag_124:\n        /* \"#utility.yul\":3143:3265   */\n      pop\n      jump\t// out\n        /* \"#utility.yul\":3271:3410   */\n    tag_57:\n        /* \"#utility.yul\":3317:3322   */\n      0x00\n        /* \"#utility.yul\":3355:3361   */\n      dup2\n        /* \"#utility.yul\":3342:3362   */\n      calldataload\n        /* \"#utility.yul\":3333:3362   */\n      swap1\n      pop\n        /* \"#utility.yul\":3371:3404   */\n      tag_126\n        /* \"#utility.yul\":3398:3403   */\n      dup2\n        /* \"#utility.yul\":3371:3404   */\n      tag_56\n      jump\t// in\n    tag_126:\n        /* \"#utility.yul\":3271:3410   */\n      swap3\n      swap2\n      pop\n      pop\n      jump\t// out\n        /* \"#utility.yul\":3416:4361   */\n    tag_8:\n        /* \"#utility.yul\":3512:3518   */\n      0x00\n        /* \"#utility.yul\":3520:3526   */\n      dup1\n        /* \"#utility.yul\":3528:3534   */\n      0x00\n        /* \"#utility.yul\":3536:3542   */\n      dup1\n        /* \"#utility.yul\":3585:3588   */\n      0x80\n        /* \"#utility.yul\":3573:3582   */\n      dup6\n        /* \"#utility.yul\":3564:3571   */\n      dup8\n        /* \"#utility.yul\":3560:3583   */\n      sub\n        /* \"#utility.yul\":3556:3589   */\n      slt\n        /* \"#utility.yul\":3553:3673   */\n      iszero\n      tag_128\n      jumpi\n        /* \"#utility.yul\":3592:3671   */\n      tag_129\n      tag_39\n      jump\t// in\n    tag_129:\n        /* \"#utility.yul\":3553:3673   */\n    tag_128:\n        /* \"#utility.yul\":3712:3713   */\n      0x00\n        /* \"#utility.yul\":3737:3790   */\n      tag_130\n        /* \"#utility.yul\":3782:3789   */\n      dup8\n        /* \"#utility.yul\":3773:3779   */\n      dup3\n        /* \"#utility.yul\":3762:3771   */\n      dup9\n        /* \"#utility.yul\":3758:3780   */\n      add\n        /* \"#utility.yul\":3737:3790   */\n      tag_44\n      jump\t// in\n    tag_130:\n        /* \"#utility.yul\":3727:3790   */\n      swap5\n      pop\n        /* \"#utility.yul\":3683:3800   */\n      pop\n        /* \"#utility.yul\":3867:3869   */\n      0x20\n        /* \"#utility.yul\":3856:3865   */\n      dup6\n        /* \"#utility.yul\":3852:3870   */\n      add\n        /* \"#utility.yul\":3839:3871   */\n      calldataload\n        /* \"#utility.yul\":3898:3916   */\n      0xffffffffffffffff\n        /* \"#utility.yul\":3890:3896   */\n      dup2\n        /* \"#utility.yul\":3887:3917   */\n      gt\n        /* \"#utility.yul\":3884:4001   */\n      iszero\n      tag_131\n      jumpi\n        /* \"#utility.yul\":3920:3999   */\n      tag_132\n      tag_40\n      jump\t// in\n    tag_132:\n        /* \"#utility.yul\":3884:4001   */\n    tag_131:\n        /* \"#utility.yul\":4025:4088   */\n      tag_133\n        /* \"#utility.yul\":4080:4087   */\n      dup8\n        /* \"#utility.yul\":4071:4077   */\n      dup3\n        /* \"#utility.yul\":4060:4069   */\n      dup9\n        /* \"#utility.yul\":4056:4078   */\n      add\n        /* \"#utility.yul\":4025:4088   */\n      tag_54\n      jump\t// in\n    tag_133:\n        /* \"#utility.yul\":4015:4088   */\n      swap4\n      pop\n        /* \"#utility.yul\":3810:4098   */\n      pop\n        /* \"#utility.yul\":4137:4139   */\n      0x40\n        /* \"#utility.yul\":4163:4216   */\n      tag_134\n        /* \"#utility.yul\":4208:4215   */\n      dup8\n        /* \"#utility.yul\":4199:4205   */\n      dup3\n        /* \"#utility.yul\":4188:4197   */\n      dup9\n        /* \"#utility.yul\":4184:4206   */\n      add\n        /* \"#utility.yul\":4163:4216   */\n      tag_57\n      jump\t// in\n    tag_134:\n        /* \"#utility.yul\":4153:4216   */\n      swap3\n      pop\n        /* \"#utility.yul\":4108:4226   */\n      pop\n        /* \"#utility.yul\":4265:4267   */\n      0x60\n        /* \"#utility.yul\":4291:4344   */\n      tag_135\n        /* \"#utility.yul\":4336:4343   */\n      dup8\n        /* \"#utility.yul\":4327:4333   */\n      dup3\n        /* \"#utility.yul\":4316:4325   */\n      dup9\n        /* \"#utility.yul\":4312:4334   */\n      add\n        /* \"#utility.yul\":4291:4344   */\n      tag_57\n      jump\t// in\n    tag_135:\n        /* \"#utility.yul\":4281:4344   */\n      swap2\n      pop\n        /* \"#utility.yul\":4236:4354   */\n      pop\n        /* \"#utility.yul\":3416:4361   */\n      swap3\n      swap6\n      swap2\n      swap5\n      pop\n      swap3\n      pop\n      jump\t// out\n        /* \"#utility.yul\":4367:4696   */\n    tag_12:\n        /* \"#utility.yul\":4426:4432   */\n      0x00\n        /* \"#utility.yul\":4475:4477   */\n      0x20\n        /* \"#utility.yul\":4463:4472   */\n      dup3\n        /* \"#utility.yul\":4454:4461   */\n      dup5\n        /* \"#utility.yul\":4450:4473   */\n      sub\n        /* \"#utility.yul\":4446:4478   */\n      slt\n        /* \"#utility.yul\":4443:4562   */\n      iszero\n      tag_137\n      jumpi\n        /* \"#utility.yul\":4481:4560   */\n      tag_138\n      tag_39\n      jump\t// in\n    tag_138:\n        /* \"#utility.yul\":4443:4562   */\n    tag_137:\n        /* \"#utility.yul\":4601:4602   */\n      0x00\n        /* \"#utility.yul\":4626:4679   */\n      tag_139\n        /* \"#utility.yul\":4671:4678   */\n      dup5\n        /* \"#utility.yul\":4662:4668   */\n      dup3\n        /* \"#utility.yul\":4651:4660   */\n      dup6\n        /* \"#utility.yul\":4647:4669   */\n      add\n        /* \"#utility.yul\":4626:4679   */\n      tag_44\n      jump\t// in\n    tag_139:\n        /* \"#utility.yul\":4616:4679   */\n      swap2\n      pop\n        /* \"#utility.yul\":4572:4689   */\n      pop\n        /* \"#utility.yul\":4367:4696   */\n      swap3\n      swap2\n      pop\n      pop\n      jump\t// out\n        /* \"#utility.yul\":4702:4801   */\n    tag_58:\n        /* \"#utility.yul\":4754:4760   */\n      0x00\n        /* \"#utility.yul\":4788:4793   */\n      dup2\n        /* \"#utility.yul\":4782:4794   */\n      mload\n        /* \"#utility.yul\":4772:4794   */\n      swap1\n      pop\n        /* \"#utility.yul\":4702:4801   */\n      swap2\n      swap1\n      pop\n      jump\t// out\n        /* \"#utility.yul\":4807:4976   */\n    tag_59:\n        /* \"#utility.yul\":4891:4902   */\n      0x00\n        /* \"#utility.yul\":4925:4931   */\n      dup3\n        /* \"#utility.yul\":4920:4923   */\n      dup3\n        /* \"#utility.yul\":4913:4932   */\n      mstore\n        /* \"#utility.yul\":4965:4969   */\n      0x20\n        /* \"#utility.yul\":4960:4963   */\n      dup3\n        /* \"#utility.yul\":4956:4970   */\n      add\n        /* \"#utility.yul\":4941:4970   */\n      swap1\n      pop\n        /* \"#utility.yul\":4807:4976   */\n      swap3\n      swap2\n      pop\n      pop\n      jump\t// out\n        /* \"#utility.yul\":4982:5228   */\n    tag_60:\n        /* \"#utility.yul\":5063:5064   */\n      0x00\n        /* \"#utility.yul\":5073:5186   */\n    tag_143:\n        /* \"#utility.yul\":5087:5093   */\n      dup4\n        /* \"#utility.yul\":5084:5085   */\n      dup2\n        /* \"#utility.yul\":5081:5094   */\n      lt\n        /* \"#utility.yul\":5073:5186   */\n      iszero\n      tag_145\n      jumpi\n        /* \"#utility.yul\":5172:5173   */\n      dup1\n        /* \"#utility.yul\":5167:5170   */\n      dup3\n        /* \"#utility.yul\":5163:5174   */\n      add\n        /* \"#utility.yul\":5157:5175   */\n      mload\n        /* \"#utility.yul\":5153:5154   */\n      dup2\n        /* \"#utility.yul\":5148:5151   */\n      dup5\n        /* \"#utility.yul\":5144:5155   */\n      add\n        /* \"#utility.yul\":5137:5176   */\n      mstore\n        /* \"#utility.yul\":5109:5111   */\n      0x20\n        /* \"#utility.yul\":5106:5107   */\n      dup2\n        /* \"#utility.yul\":5102:5112   */\n      add\n        /* \"#utility.yul\":5097:5112   */\n      swap1\n      pop\n        /* \"#utility.yul\":5073:5186   */\n      jump(tag_143)\n    tag_145:\n        /* \"#utility.yul\":5220:5221   */\n      0x00\n        /* \"#utility.yul\":5211:5217   */\n      dup5\n        /* \"#utility.yul\":5206:5209   */\n      dup5\n        /* \"#utility.yul\":5202:5218   */\n      add\n        /* \"#utility.yul\":5195:5222   */\n      mstore\n        /* \"#utility.yul\":5044:5228   */\n      pop\n        /* \"#utility.yul\":4982:5228   */\n      pop\n      pop\n      pop\n      jump\t// out\n        /* \"#utility.yul\":5234:5611   */\n    tag_61:\n        /* \"#utility.yul\":5322:5325   */\n      0x00\n        /* \"#utility.yul\":5350:5389   */\n      tag_147\n        /* \"#utility.yul\":5383:5388   */\n      dup3\n        /* \"#utility.yul\":5350:5389   */\n      tag_58\n      jump\t// in\n    tag_147:\n        /* \"#utility.yul\":5405:5476   */\n      tag_148\n        /* \"#utility.yul\":5469:5475   */\n      dup2\n        /* \"#utility.yul\":5464:5467   */\n      dup6\n        /* \"#utility.yul\":5405:5476   */\n      tag_59\n      jump\t// in\n    tag_148:\n        /* \"#utility.yul\":5398:5476   */\n      swap4\n      pop\n        /* \"#utility.yul\":5485:5550   */\n      tag_149\n        /* \"#utility.yul\":5543:5549   */\n      dup2\n        /* \"#utility.yul\":5538:5541   */\n      dup6\n        /* \"#utility.yul\":5531:5535   */\n      0x20\n        /* \"#utility.yul\":5524:5529   */\n      dup7\n        /* \"#utility.yul\":5520:5536   */\n      add\n        /* \"#utility.yul\":5485:5550   */\n      tag_60\n      jump\t// in\n    tag_149:\n        /* \"#utility.yul\":5575:5604   */\n      tag_150\n        /* \"#utility.yul\":5597:5603   */\n      dup2\n        /* \"#utility.yul\":5575:5604   */\n      tag_47\n      jump\t// in\n    tag_150:\n        /* \"#utility.yul\":5570:5573   */\n      dup5\n        /* \"#utility.yul\":5566:5605   */\n      add\n        /* \"#utility.yul\":5559:5605   */\n      swap2\n      pop\n        /* \"#utility.yul\":5326:5611   */\n      pop\n        /* \"#utility.yul\":5234:5611   */\n      swap3\n      swap2\n      pop\n      pop\n      jump\t// out\n        /* \"#utility.yul\":5617:5735   */\n    tag_62:\n        /* \"#utility.yul\":5704:5728   */\n      tag_152\n        /* \"#utility.yul\":5722:5727   */\n      dup2\n        /* \"#utility.yul\":5704:5728   */\n      tag_55\n      jump\t// in\n    tag_152:\n        /* \"#utility.yul\":5699:5702   */\n      dup3\n        /* \"#utility.yul\":5692:5729   */\n      mstore\n        /* \"#utility.yul\":5617:5735   */\n      pop\n      pop\n      jump\t// out\n        /* \"#utility.yul\":5741:6274   */\n    tag_15:\n        /* \"#utility.yul\":5910:5914   */\n      0x00\n        /* \"#utility.yul\":5948:5950   */\n      0x60\n        /* \"#utility.yul\":5937:5946   */\n      dup3\n        /* \"#utility.yul\":5933:5951   */\n      add\n        /* \"#utility.yul\":5925:5951   */\n      swap1\n      pop\n        /* \"#utility.yul\":5997:6006   */\n      dup2\n        /* \"#utility.yul\":5991:5995   */\n      dup2\n        /* \"#utility.yul\":5987:6007   */\n      sub\n        /* \"#utility.yul\":5983:5984   */\n      0x00\n        /* \"#utility.yul\":5972:5981   */\n      dup4\n        /* \"#utility.yul\":5968:5985   */\n      add\n        /* \"#utility.yul\":5961:6008   */\n      mstore\n        /* \"#utility.yul\":6025:6103   */\n      tag_154\n        /* \"#utility.yul\":6098:6102   */\n      dup2\n        /* \"#utility.yul\":6089:6095   */\n      dup7\n        /* \"#utility.yul\":6025:6103   */\n      tag_61\n      jump\t// in\n    tag_154:\n        /* \"#utility.yul\":6017:6103   */\n      swap1\n      pop\n        /* \"#utility.yul\":6113:6185   */\n      tag_155\n        /* \"#utility.yul\":6181:6183   */\n      0x20\n        /* \"#utility.yul\":6170:6179   */\n      dup4\n        /* \"#utility.yul\":6166:6184   */\n      add\n        /* \"#utility.yul\":6157:6163   */\n      dup6\n        /* \"#utility.yul\":6113:6185   */\n      tag_62\n      jump\t// in\n    tag_155:\n        /* \"#utility.yul\":6195:6267   */\n      tag_156\n        /* \"#utility.yul\":6263:6265   */\n      0x40\n        /* \"#utility.yul\":6252:6261   */\n      dup4\n        /* \"#utility.yul\":6248:6266   */\n      add\n        /* \"#utility.yul\":6239:6245   */\n      dup5\n        /* \"#utility.yul\":6195:6267   */\n      tag_62\n      jump\t// in\n    tag_156:\n        /* \"#utility.yul\":5741:6274   */\n      swap5\n      swap4\n      pop\n      pop\n      pop\n      pop\n      jump\t// out\n        /* \"#utility.yul\":6280:6439   */\n    tag_63:\n        /* \"#utility.yul\":6354:6365   */\n      0x00\n        /* \"#utility.yul\":6388:6394   */\n      dup3\n        /* \"#utility.yul\":6383:6386   */\n      dup3\n        /* \"#utility.yul\":6376:6395   */\n      mstore\n        /* \"#utility.yul\":6428:6432   */\n      0x20\n        /* \"#utility.yul\":6423:6426   */\n      dup3\n        /* \"#utility.yul\":6419:6433   */\n      add\n        /* \"#utility.yul\":6404:6433   */\n      swap1\n      pop\n        /* \"#utility.yul\":6280:6439   */\n      swap3\n      swap2\n      pop\n      pop\n      jump\t// out\n        /* \"#utility.yul\":6445:6802   */\n    tag_64:\n        /* \"#utility.yul\":6523:6526   */\n      0x00\n        /* \"#utility.yul\":6551:6590   */\n      tag_159\n        /* \"#utility.yul\":6584:6589   */\n      dup3\n        /* \"#utility.yul\":6551:6590   */\n      tag_58\n      jump\t// in\n    tag_159:\n        /* \"#utility.yul\":6606:6667   */\n      tag_160\n        /* \"#utility.yul\":6660:6666   */\n      dup2\n        /* \"#utility.yul\":6655:6658   */\n      dup6\n        /* \"#utility.yul\":6606:6667   */\n      tag_63\n      jump\t// in\n    tag_160:\n        /* \"#utility.yul\":6599:6667   */\n      swap4\n      pop\n        /* \"#utility.yul\":6676:6741   */\n      tag_161\n        /* \"#utility.yul\":6734:6740   */\n      dup2\n        /* \"#utility.yul\":6729:6732   */\n      dup6\n        /* \"#utility.yul\":6722:6726   */\n      0x20\n        /* \"#utility.yul\":6715:6720   */\n      dup7\n        /* \"#utility.yul\":6711:6727   */\n      add\n        /* \"#utility.yul\":6676:6741   */\n      tag_60\n      jump\t// in\n    tag_161:\n        /* \"#utility.yul\":6766:6795   */\n      tag_162\n        /* \"#utility.yul\":6788:6794   */\n      dup2\n        /* \"#utility.yul\":6766:6795   */\n      tag_47\n      jump\t// in\n    tag_162:\n        /* \"#utility.yul\":6761:6764   */\n      dup5\n        /* \"#utility.yul\":6757:6796   */\n      add\n        /* \"#utility.yul\":6750:6796   */\n      swap2\n      pop\n        /* \"#utility.yul\":6527:6802   */\n      pop\n        /* \"#utility.yul\":6445:6802   */\n      swap3\n      swap2\n      pop\n      pop\n      jump\t// out\n        /* \"#utility.yul\":6808:6916   */\n    tag_65:\n        /* \"#utility.yul\":6885:6909   */\n      tag_164\n        /* \"#utility.yul\":6903:6908   */\n      dup2\n        /* \"#utility.yul\":6885:6909   */\n      tag_55\n      jump\t// in\n    tag_164:\n        /* \"#utility.yul\":6880:6883   */\n      dup3\n        /* \"#utility.yul\":6873:6910   */\n      mstore\n        /* \"#utility.yul\":6808:6916   */\n      pop\n      pop\n      jump\t// out\n        /* \"#utility.yul\":6992:7765   */\n    tag_66:\n        /* \"#utility.yul\":7105:7108   */\n      0x00\n        /* \"#utility.yul\":7141:7145   */\n      0x60\n        /* \"#utility.yul\":7136:7139   */\n      dup4\n        /* \"#utility.yul\":7132:7146   */\n      add\n        /* \"#utility.yul\":7228:7232   */\n      0x00\n        /* \"#utility.yul\":7221:7226   */\n      dup4\n        /* \"#utility.yul\":7217:7233   */\n      add\n        /* \"#utility.yul\":7211:7234   */\n      mload\n        /* \"#utility.yul\":7281:7284   */\n      dup5\n        /* \"#utility.yul\":7275:7279   */\n      dup3\n        /* \"#utility.yul\":7271:7285   */\n      sub\n        /* \"#utility.yul\":7264:7268   */\n      0x00\n        /* \"#utility.yul\":7259:7262   */\n      dup7\n        /* \"#utility.yul\":7255:7269   */\n      add\n        /* \"#utility.yul\":7248:7286   */\n      mstore\n        /* \"#utility.yul\":7307:7380   */\n      tag_166\n        /* \"#utility.yul\":7375:7379   */\n      dup3\n        /* \"#utility.yul\":7361:7373   */\n      dup3\n        /* \"#utility.yul\":7307:7380   */\n      tag_64\n      jump\t// in\n    tag_166:\n        /* \"#utility.yul\":7299:7380   */\n      swap2\n      pop\n        /* \"#utility.yul\":7156:7391   */\n      pop\n        /* \"#utility.yul\":7473:7477   */\n      0x20\n        /* \"#utility.yul\":7466:7471   */\n      dup4\n        /* \"#utility.yul\":7462:7478   */\n      add\n        /* \"#utility.yul\":7456:7479   */\n      mload\n        /* \"#utility.yul\":7492:7555   */\n      tag_167\n        /* \"#utility.yul\":7549:7553   */\n      0x20\n        /* \"#utility.yul\":7544:7547   */\n      dup7\n        /* \"#utility.yul\":7540:7554   */\n      add\n        /* \"#utility.yul\":7526:7538   */\n      dup3\n        /* \"#utility.yul\":7492:7555   */\n      tag_65\n      jump\t// in\n    tag_167:\n        /* \"#utility.yul\":7401:7565   */\n      pop\n        /* \"#utility.yul\":7646:7650   */\n      0x40\n        /* \"#utility.yul\":7639:7644   */\n      dup4\n        /* \"#utility.yul\":7635:7651   */\n      add\n        /* \"#utility.yul\":7629:7652   */\n      mload\n        /* \"#utility.yul\":7665:7728   */\n      tag_168\n        /* \"#utility.yul\":7722:7726   */\n      0x40\n        /* \"#utility.yul\":7717:7720   */\n      dup7\n        /* \"#utility.yul\":7713:7727   */\n      add\n        /* \"#utility.yul\":7699:7711   */\n      dup3\n        /* \"#utility.yul\":7665:7728   */\n      tag_65\n      jump\t// in\n    tag_168:\n        /* \"#utility.yul\":7575:7738   */\n      pop\n        /* \"#utility.yul\":7755:7759   */\n      dup1\n        /* \"#utility.yul\":7748:7759   */\n      swap2\n      pop\n        /* \"#utility.yul\":7110:7765   */\n      pop\n        /* \"#utility.yul\":6992:7765   */\n      swap3\n      swap2\n      pop\n      pop\n      jump\t// out\n        /* \"#utility.yul\":7771:8132   */\n    tag_20:\n        /* \"#utility.yul\":7908:7912   */\n      0x00\n        /* \"#utility.yul\":7946:7948   */\n      0x20\n        /* \"#utility.yul\":7935:7944   */\n      dup3\n        /* \"#utility.yul\":7931:7949   */\n      add\n        /* \"#utility.yul\":7923:7949   */\n      swap1\n      pop\n        /* \"#utility.yul\":7995:8004   */\n      dup2\n        /* \"#utility.yul\":7989:7993   */\n      dup2\n        /* \"#utility.yul\":7985:8005   */\n      sub\n        /* \"#utility.yul\":7981:7982   */\n      0x00\n        /* \"#utility.yul\":7970:7979   */\n      dup4\n        /* \"#utility.yul\":7966:7983   */\n      add\n        /* \"#utility.yul\":7959:8006   */\n      mstore\n        /* \"#utility.yul\":8023:8125   */\n      tag_170\n        /* \"#utility.yul\":8120:8124   */\n      dup2\n        /* \"#utility.yul\":8111:8117   */\n      dup5\n        /* \"#utility.yul\":8023:8125   */\n      tag_66\n      jump\t// in\n    tag_170:\n        /* \"#utility.yul\":8015:8125   */\n      swap1\n      pop\n        /* \"#utility.yul\":7771:8132   */\n      swap3\n      swap2\n      pop\n      pop\n      jump\t// out\n        /* \"#utility.yul\":8138:8318   */\n    tag_67:\n        /* \"#utility.yul\":8186:8263   */\n      0x4e487b7100000000000000000000000000000000000000000000000000000000\n        /* \"#utility.yul\":8183:8184   */\n      0x00\n        /* \"#utility.yul\":8176:8264   */\n      mstore\n        /* \"#utility.yul\":8283:8287   */\n      0x22\n        /* \"#utility.yul\":8280:8281   */\n      0x04\n        /* \"#utility.yul\":8273:8288   */\n      mstore\n        /* \"#utility.yul\":8307:8311   */\n      0x24\n        /* \"#utility.yul\":8304:8305   */\n      0x00\n        /* \"#utility.yul\":8297:8312   */\n      revert\n        /* \"#utility.yul\":8324:8644   */\n    tag_25:\n        /* \"#utility.yul\":8368:8374   */\n      0x00\n        /* \"#utility.yul\":8405:8406   */\n      0x02\n        /* \"#utility.yul\":8399:8403   */\n      dup3\n        /* \"#utility.yul\":8395:8407   */\n      div\n        /* \"#utility.yul\":8385:8407   */\n      swap1\n      pop\n        /* \"#utility.yul\":8452:8453   */\n      0x01\n        /* \"#utility.yul\":8446:8450   */\n      dup3\n        /* \"#utility.yul\":8442:8454   */\n      and\n        /* \"#utility.yul\":8473:8491   */\n      dup1\n        /* \"#utility.yul\":8463:8544   */\n      tag_173\n      jumpi\n        /* \"#utility.yul\":8529:8533   */\n      0x7f\n        /* \"#utility.yul\":8521:8527   */\n      dup3\n        /* \"#utility.yul\":8517:8534   */\n      and\n        /* \"#utility.yul\":8507:8534   */\n      swap2\n      pop\n        /* \"#utility.yul\":8463:8544   */\n    tag_173:\n        /* \"#utility.yul\":8591:8593   */\n      0x20\n        /* \"#utility.yul\":8583:8589   */\n      dup3\n        /* \"#utility.yul\":8580:8594   */\n      lt\n        /* \"#utility.yul\":8560:8578   */\n      dup2\n        /* \"#utility.yul\":8557:8595   */\n      sub\n        /* \"#utility.yul\":8554:8638   */\n      tag_174\n      jumpi\n        /* \"#utility.yul\":8610:8628   */\n      tag_175\n      tag_67\n      jump\t// in\n    tag_175:\n        /* \"#utility.yul\":8554:8638   */\n    tag_174:\n        /* \"#utility.yul\":8375:8644   */\n      pop\n        /* \"#utility.yul\":8324:8644   */\n      swap2\n      swap1\n      pop\n      jump\t// out\n        /* \"#utility.yul\":8650:8791   */\n    tag_68:\n        /* \"#utility.yul\":8699:8703   */\n      0x00\n        /* \"#utility.yul\":8722:8725   */\n      dup2\n        /* \"#utility.yul\":8714:8725   */\n      swap1\n      pop\n        /* \"#utility.yul\":8745:8748   */\n      dup2\n        /* \"#utility.yul\":8742:8743   */\n      0x00\n        /* \"#utility.yul\":8735:8749   */\n      mstore\n        /* \"#utility.yul\":8779:8783   */\n      0x20\n        /* \"#utility.yul\":8776:8777   */\n      0x00\n        /* \"#utility.yul\":8766:8784   */\n      keccak256\n        /* \"#utility.yul\":8758:8784   */\n      swap1\n      pop\n        /* \"#utility.yul\":8650:8791   */\n      swap2\n      swap1\n      pop\n      jump\t// out\n        /* \"#utility.yul\":8797:8890   */\n    tag_69:\n        /* \"#utility.yul\":8834:8840   */\n      0x00\n        /* \"#utility.yul\":8881:8883   */\n      0x20\n        /* \"#utility.yul\":8876:8878   */\n      0x1f\n        /* \"#utility.yul\":8869:8874   */\n      dup4\n        /* \"#utility.yul\":8865:8879   */\n      add\n        /* \"#utility.yul\":8861:8884   */\n      div\n        /* \"#utility.yul\":8851:8884   */\n      swap1\n      pop\n        /* \"#utility.yul\":8797:8890   */\n      swap2\n      swap1\n      pop\n      jump\t// out\n        /* \"#utility.yul\":8896:9003   */\n    tag_70:\n        /* \"#utility.yul\":8940:8948   */\n      0x00\n        /* \"#utility.yul\":8990:8995   */\n      dup3\n        /* \"#utility.yul\":8984:8988   */\n      dup3\n        /* \"#utility.yul\":8980:8996   */\n      shl\n        /* \"#utility.yul\":8959:8996   */\n      swap1\n      pop\n        /* \"#utility.yul\":8896:9003   */\n      swap3\n      swap2\n      pop\n      pop\n      jump\t// out\n        /* \"#utility.yul\":9009:9402   */\n    tag_71:\n        /* \"#utility.yul\":9078:9084   */\n      0x00\n        /* \"#utility.yul\":9128:9129   */\n      0x08\n        /* \"#utility.yul\":9116:9126   */\n      dup4\n        /* \"#utility.yul\":9112:9130   */\n      mul\n        /* \"#utility.yul\":9151:9248   */\n      tag_180\n        /* \"#utility.yul\":9181:9247   */\n      0xffffffffffffffffffffffffffffffffffffffffffffffffffffffffffffffff\n        /* \"#utility.yul\":9170:9179   */\n      dup3\n        /* \"#utility.yul\":9151:9248   */\n      tag_70\n      jump\t// in\n    tag_180:\n        /* \"#utility.yul\":9269:9308   */\n      tag_181\n        /* \"#utility.yul\":9299:9307   */\n      dup7\n        /* \"#utility.yul\":9288:9297   */\n      dup4\n        /* \"#utility.yul\":9269:9308   */\n      tag_70\n      jump\t// in\n    tag_181:\n        /* \"#utility.yul\":9257:9308   */\n      swap6\n      pop\n        /* \"#utility.yul\":9341:9345   */\n      dup1\n        /* \"#utility.yul\":9337:9346   */\n      not\n        /* \"#utility.yul\":9330:9335   */\n      dup5\n        /* \"#utility.yul\":9326:9347   */\n      and\n        /* \"#utility.yul\":9317:9347   */\n      swap4\n      pop\n        /* \"#utility.yul\":9390:9394   */\n      dup1\n        /* \"#utility.yul\":9380:9388   */\n      dup7\n        /* \"#utility.yul\":9376:9395   */\n      and\n        /* \"#utility.yul\":9369:9374   */\n      dup5\n        /* \"#utility.yul\":9366:9396   */\n      or\n        /* \"#utility.yul\":9356:9396   */\n      swap3\n      pop\n        /* \"#utility.yul\":9085:9402   */\n      pop\n      pop\n        /* \"#utility.yul\":9009:9402   */\n      swap4\n      swap3\n      pop\n      pop\n      pop\n      jump\t// out\n        /* \"#utility.yul\":9408:9468   */\n    tag_72:\n        /* \"#utility.yul\":9436:9439   */\n      0x00\n        /* \"#utility.yul\":9457:9462   */\n      dup2\n        /* \"#utility.yul\":9450:9462   */\n      swap1\n      pop\n        /* \"#utility.yul\":9408:9468   */\n      swap2\n      swap1\n      pop\n      jump\t// out\n        /* \"#utility.yul\":9474:9616   */\n    tag_73:\n        /* \"#utility.yul\":9524:9533   */\n      0x00\n        /* \"#utility.yul\":9557:9610   */\n      tag_184\n        /* \"#utility.yul\":9575:9609   */\n      tag_185\n        /* \"#utility.yul\":9584:9608   */\n      tag_186\n        /* \"#utility.yul\":9602:9607   */\n      dup5\n        /* \"#utility.yul\":9584:9608   */\n      tag_55\n      jump\t// in\n    tag_186:\n        /* \"#utility.yul\":9575:9609   */\n      tag_72\n      jump\t// in\n    tag_185:\n        /* \"#utility.yul\":9557:9610   */\n      tag_55\n      jump\t// in\n    tag_184:\n        /* \"#utility.yul\":9544:9610   */\n      swap1\n      pop\n        /* \"#utility.yul\":9474:9616   */\n      swap2\n      swap1\n      pop\n      jump\t// out\n        /* \"#utility.yul\":9622:9697   */\n    tag_74:\n        /* \"#utility.yul\":9665:9668   */\n      0x00\n        /* \"#utility.yul\":9686:9691   */\n      dup2\n        /* \"#utility.yul\":9679:9691   */\n      swap1\n      pop\n        /* \"#utility.yul\":9622:9697   */\n      swap2\n      swap1\n      pop\n      jump\t// out\n        /* \"#utility.yul\":9703:9972   */\n    tag_75:\n        /* \"#utility.yul\":9813:9852   */\n      tag_189\n        /* \"#utility.yul\":9844:9851   */\n      dup4\n        /* \"#utility.yul\":9813:9852   */\n      tag_73\n      jump\t// in\n    tag_189:\n        /* \"#utility.yul\":9874:9965   */\n      tag_190\n        /* \"#utility.yul\":9923:9964   */\n      tag_191\n        /* \"#utility.yul\":9947:9963   */\n      dup3\n        /* \"#utility.yul\":9923:9964   */\n      tag_74\n      jump\t// in\n    tag_191:\n        /* \"#utility.yul\":9915:9921   */\n      dup5\n        /* \"#utility.yul\":9908:9912   */\n      dup5\n        /* \"#utility.yul\":9902:9913   */\n      sload\n        /* \"#utility.yul\":9874:9965   */\n      tag_71\n      jump\t// in\n    tag_190:\n        /* \"#utility.yul\":9868:9872   */\n      dup3\n        /* \"#utility.yul\":9861:9966   */\n      sstore\n        /* \"#utility.yul\":9779:9972   */\n      pop\n        /* \"#utility.yul\":9703:9972   */\n      pop\n      pop\n      pop\n      jump\t// out\n        /* \"#utility.yul\":9978:10051   */\n    tag_76:\n        /* \"#utility.yul\":10023:10026   */\n      0x00\n        /* \"#utility.yul\":9978:10051   */\n      swap1\n      jump\t// out\n        /* \"#utility.yul\":10057:10246   */\n    tag_77:\n        /* \"#utility.yul\":10134:10166   */\n      tag_194\n      tag_76\n      jump\t// in\n    tag_194:\n        /* \"#utility.yul\":10175:10240   */\n      tag_195\n        /* \"#utility.yul\":10233:10239   */\n      dup2\n        /* \"#utility.yul\":10225:10231   */\n      dup5\n        /* \"#utility.yul\":10219:10223   */\n      dup5\n        /* \"#utility.yul\":10175:10240   */\n      tag_75\n      jump\t// in\n    tag_195:\n        /* \"#utility.yul\":10110:10246   */\n      pop\n        /* \"#utility.yul\":10057:10246   */\n      pop\n      pop\n      jump\t// out\n        /* \"#utility.yul\":10252:10438   */\n    tag_78:\n        /* \"#utility.yul\":10312:10432   */\n    tag_197:\n        /* \"#utility.yul\":10329:10332   */\n      dup2\n        /* \"#utility.yul\":10322:10327   */\n      dup2\n        /* \"#utility.yul\":10319:10333   */\n      lt\n        /* \"#utility.yul\":10312:10432   */\n      iszero\n      tag_199\n      jumpi\n        /* \"#utility.yul\":10383:10422   */\n      tag_200\n        /* \"#utility.yul\":10420:10421   */\n      0x00\n        /* \"#utility.yul\":10413:10418   */\n      dup3\n        /* \"#utility.yul\":10383:10422   */\n      tag_77\n      jump\t// in\n    tag_200:\n        /* \"#utility.yul\":10356:10357   */\n      0x01\n        /* \"#utility.yul\":10349:10354   */\n      dup2\n        /* \"#utility.yul\":10345:10358   */\n      add\n        /* \"#utility.yul\":10336:10358   */\n      swap1\n      pop\n        /* \"#utility.yul\":10312:10432   */\n      jump(tag_197)\n    tag_199:\n        /* \"#utility.yul\":10252:10438   */\n      pop\n      pop\n      jump\t// out\n        /* \"#utility.yul\":10444:10987   */\n    tag_79:\n        /* \"#utility.yul\":10545:10547   */\n      0x1f\n        /* \"#utility.yul\":10540:10543   */\n      dup3\n        /* \"#utility.yul\":10537:10548   */\n      gt\n        /* \"#utility.yul\":10534:10980   */\n      iszero\n      tag_202\n      jumpi\n        /* \"#utility.yul\":10579:10617   */\n      tag_203\n        /* \"#utility.yul\":10611:10616   */\n      dup2\n        /* \"#utility.yul\":10579:10617   */\n      tag_68\n      jump\t// in\n    tag_203:\n        /* \"#utility.yul\":10663:10692   */\n      tag_204\n        /* \"#utility.yul\":10681:10691   */\n      dup5\n        /* \"#utility.yul\":10663:10692   */\n      tag_69\n      jump\t// in\n    tag_204:\n        /* \"#utility.yul\":10653:10661   */\n      dup2\n        /* \"#utility.yul\":10649:10693   */\n      add\n        /* \"#utility.yul\":10846:10848   */\n      0x20\n        /* \"#utility.yul\":10834:10844   */\n      dup6\n        /* \"#utility.yul\":10831:10849   */\n      lt\n        /* \"#utility.yul\":10828:10877   */\n      iszero\n      tag_205\n      jumpi\n        /* \"#utility.yul\":10867:10875   */\n      dup2\n        /* \"#utility.yul\":10852:10875   */\n      swap1\n      pop\n        /* \"#utility.yul\":10828:10877   */\n    tag_205:\n        /* \"#utility.yul\":10890:10970   */\n      tag_206\n        /* \"#utility.yul\":10946:10968   */\n      tag_207\n        /* \"#utility.yul\":10964:10967   */\n      dup6\n        /* \"#utility.yul\":10946:10968   */\n      tag_69\n      jump\t// in\n    tag_207:\n        /* \"#utility.yul\":10936:10944   */\n      dup4\n        /* \"#utility.yul\":10932:10969   */\n      add\n        /* \"#utility.yul\":10919:10930   */\n      dup3\n        /* \"#utility.yul\":10890:10970   */\n      tag_78\n      jump\t// in\n    tag_206:\n        /* \"#utility.yul\":10549:10980   */\n      pop\n      pop\n        /* \"#utility.yul\":10534:10980   */\n    tag_202:\n        /* \"#utility.yul\":10444:10987   */\n      pop\n      pop\n      pop\n      jump\t// out\n        /* \"#utility.yul\":10993:11110   */\n    tag_80:\n        /* \"#utility.yul\":11047:11055   */\n      0x00\n        /* \"#utility.yul\":11097:11102   */\n      dup3\n        /* \"#utility.yul\":11091:11095   */\n      dup3\n        /* \"#utility.yul\":11087:11103   */\n      shr\n        /* \"#utility.yul\":11066:11103   */\n      swap1\n      pop\n        /* \"#utility.yul\":10993:11110   */\n      swap3\n      swap2\n      pop\n      pop\n      jump\t// out\n        /* \"#utility.yul\":11116:11285   */\n    tag_81:\n        /* \"#utility.yul\":11160:11166   */\n      0x00\n        /* \"#utility.yul\":11193:11244   */\n      tag_210\n        /* \"#utility.yul\":11241:11242   */\n      0x00\n        /* \"#utility.yul\":11237:11243   */\n      not\n        /* \"#utility.yul\":11229:11234   */\n      dup5\n        /* \"#utility.yul\":11226:11227   */\n      0x08\n        /* \"#utility.yul\":11222:11235   */\n      mul\n        /* \"#utility.yul\":11193:11244   */\n      tag_80\n      jump\t// in\n    tag_210:\n        /* \"#utility.yul\":11189:11245   */\n      not\n        /* \"#utility.yul\":11274:11278   */\n      dup1\n        /* \"#utility.yul\":11268:11272   */\n      dup4\n        /* \"#utility.yul\":11264:11279   */\n      and\n        /* \"#utility.yul\":11254:11279   */\n      swap2\n      pop\n        /* \"#utility.yul\":11167:11285   */\n      pop\n        /* \"#utility.yul\":11116:11285   */\n      swap3\n      swap2\n      pop\n      pop\n      jump\t// out\n        /* \"#utility.yul\":11290:11585   */\n    tag_82:\n        /* \"#utility.yul\":11366:11370   */\n      0x00\n        /* \"#utility.yul\":11512:11541   */\n      tag_212\n        /* \"#utility.yul\":11537:11540   */\n      dup4\n        /* \"#utility.yul\":11531:11535   */\n      dup4\n        /* \"#utility.yul\":11512:11541   */\n      tag_81\n      jump\t// in\n    tag_212:\n        /* \"#utility.yul\":11504:11541   */\n      swap2\n      pop\n        /* \"#utility.yul\":11574:11577   */\n      dup3\n        /* \"#utility.yul\":11571:11572   */\n      0x02\n        /* \"#utility.yul\":11567:11578   */\n      mul\n        /* \"#utility.yul\":11561:11565   */\n      dup3\n        /* \"#utility.yul\":11558:11579   */\n      or\n        /* \"#utility.yul\":11550:11579   */\n      swap1\n      pop\n        /* \"#utility.yul\":11290:11585   */\n      swap3\n      swap2\n      pop\n      pop\n      jump\t// out\n        /* \"#utility.yul\":11590:12985   */\n    tag_23:\n        /* \"#utility.yul\":11707:11744   */\n      tag_214\n        /* \"#utility.yul\":11740:11743   */\n      dup3\n        /* \"#utility.yul\":11707:11744   */\n      tag_58\n      jump\t// in\n    tag_214:\n        /* \"#utility.yul\":11809:11827   */\n      0xffffffffffffffff\n        /* \"#utility.yul\":11801:11807   */\n      dup2\n        /* \"#utility.yul\":11798:11828   */\n      gt\n        /* \"#utility.yul\":11795:11851   */\n      iszero\n      tag_215\n      jumpi\n        /* \"#utility.yul\":11831:11849   */\n      tag_216\n      tag_48\n      jump\t// in\n    tag_216:\n        /* \"#utility.yul\":11795:11851   */\n    tag_215:\n        /* \"#utility.yul\":11875:11913   */\n      tag_217\n        /* \"#utility.yul\":11907:11911   */\n      dup3\n        /* \"#utility.yul\":11901:11912   */\n      sload\n        /* \"#utility.yul\":11875:11913   */\n      tag_25\n      jump\t// in\n    tag_217:\n        /* \"#utility.yul\":11960:12027   */\n      tag_218\n        /* \"#utility.yul\":12020:12026   */\n      dup3\n        /* \"#utility.yul\":12012:12018   */\n      dup3\n        /* \"#utility.yul\":12006:12010   */\n      dup6\n        /* \"#utility.yul\":11960:12027   */\n      tag_79\n      jump\t// in\n    tag_218:\n        /* \"#utility.yul\":12054:12055   */\n      0x00\n        /* \"#utility.yul\":12078:12082   */\n      0x20\n        /* \"#utility.yul\":12065:12082   */\n      swap1\n      pop\n        /* \"#utility.yul\":12110:12112   */\n      0x1f\n        /* \"#utility.yul\":12102:12108   */\n      dup4\n        /* \"#utility.yul\":12099:12113   */\n      gt\n        /* \"#utility.yul\":12127:12128   */\n      0x01\n        /* \"#utility.yul\":12122:12740   */\n      dup2\n      eq\n      tag_220\n      jumpi\n        /* \"#utility.yul\":12784:12785   */\n      0x00\n        /* \"#utility.yul\":12801:12807   */\n      dup5\n        /* \"#utility.yul\":12798:12875   */\n      iszero\n      tag_221\n      jumpi\n        /* \"#utility.yul\":12850:12859   */\n      dup3\n        /* \"#utility.yul\":12845:12848   */\n      dup8\n        /* \"#utility.yul\":12841:12860   */\n      add\n        /* \"#utility.yul\":12835:12861   */\n      mload\n        /* \"#utility.yul\":12826:12861   */\n      swap1\n      pop\n        /* \"#utility.yul\":12798:12875   */\n    tag_221:\n        /* \"#utility.yul\":12901:12968   */\n      tag_222\n        /* \"#utility.yul\":12961:12967   */\n      dup6\n        /* \"#utility.yul\":12954:12959   */\n      dup3\n        /* \"#utility.yul\":12901:12968   */\n      tag_82\n      jump\t// in\n    tag_222:\n        /* \"#utility.yul\":12895:12899   */\n      dup7\n        /* \"#utility.yul\":12888:12969   */\n      sstore\n        /* \"#utility.yul\":12757:12979   */\n      pop\n        /* \"#utility.yul\":12092:12979   */\n      jump(tag_219)\n        /* \"#utility.yul\":12122:12740   */\n    tag_220:\n        /* \"#utility.yul\":12174:12178   */\n      0x1f\n        /* \"#utility.yul\":12170:12179   */\n      not\n        /* \"#utility.yul\":12162:12168   */\n      dup5\n        /* \"#utility.yul\":12158:12180   */\n      and\n        /* \"#utility.yul\":12208:12245   */\n      tag_223\n        /* \"#utility.yul\":12240:12244   */\n      dup7\n        /* \"#utility.yul\":12208:12245   */\n      tag_68\n      jump\t// in\n    tag_223:\n        /* \"#utility.yul\":12267:12268   */\n      0x00\n        /* \"#utility.yul\":12281:12489   */\n    tag_224:\n        /* \"#utility.yul\":12295:12302   */\n      dup3\n        /* \"#utility.yul\":12292:12293   */\n      dup2\n        /* \"#utility.yul\":12289:12303   */\n      lt\n        /* \"#utility.yul\":12281:12489   */\n      iszero\n      tag_226\n      jumpi\n        /* \"#utility.yul\":12374:12383   */\n      dup5\n        /* \"#utility.yul\":12369:12372   */\n      dup10\n        /* \"#utility.yul\":12365:12384   */\n      add\n        /* \"#utility.yul\":12359:12385   */\n      mload\n        /* \"#utility.yul\":12351:12357   */\n      dup3\n        /* \"#utility.yul\":12344:12386   */\n      sstore\n        /* \"#utility.yul\":12425:12426   */\n      0x01\n        /* \"#utility.yul\":12417:12423   */\n      dup3\n        /* \"#utility.yul\":12413:12427   */\n      add\n        /* \"#utility.yul\":12403:12427   */\n      swap2\n      pop\n        /* \"#utility.yul\":12472:12474   */\n      0x20\n        /* \"#utility.yul\":12461:12470   */\n      dup6\n        /* \"#utility.yul\":12457:12475   */\n      add\n        /* \"#utility.yul\":12444:12475   */\n      swap5\n      pop\n        /* \"#utility.yul\":12318:12322   */\n      0x20\n        /* \"#utility.yul\":12315:12316   */\n      dup2\n        /* \"#utility.yul\":12311:12323   */\n      add\n        /* \"#utility.yul\":12306:12323   */\n      swap1\n      pop\n        /* \"#utility.yul\":12281:12489   */\n      jump(tag_224)\n    tag_226:\n        /* \"#utility.yul\":12517:12523   */\n      dup7\n        /* \"#utility.yul\":12508:12515   */\n      dup4\n        /* \"#utility.yul\":12505:12524   */\n      lt\n        /* \"#utility.yul\":12502:12681   */\n      iszero\n      tag_227\n      jumpi\n        /* \"#utility.yul\":12575:12584   */\n      dup5\n        /* \"#utility.yul\":12570:12573   */\n      dup10\n        /* \"#utility.yul\":12566:12585   */\n      add\n        /* \"#utility.yul\":12560:12586   */\n      mload\n        /* \"#utility.yul\":12618:12666   */\n      tag_228\n        /* \"#utility.yul\":12660:12664   */\n      0x1f\n        /* \"#utility.yul\":12652:12658   */\n      dup10\n        /* \"#utility.yul\":12648:12665   */\n      and\n        /* \"#utility.yul\":12637:12646   */\n      dup3\n        /* \"#utility.yul\":12618:12666   */\n      tag_81\n      jump\t// in\n    tag_228:\n        /* \"#utility.yul\":12610:12616   */\n      dup4\n        /* \"#utility.yul\":12603:12667   */\n      sstore\n        /* \"#utility.yul\":12525:12681   */\n      pop\n        /* \"#utility.yul\":12502:12681   */\n    tag_227:\n        /* \"#utility.yul\":12727:12728   */\n      0x01\n        /* \"#utility.yul\":12723:12724   */\n      0x02\n        /* \"#utility.yul\":12715:12721   */\n      dup9\n        /* \"#utility.yul\":12711:12725   */\n      mul\n        /* \"#utility.yul\":12707:12729   */\n      add\n        /* \"#utility.yul\":12701:12705   */\n      dup9\n        /* \"#utility.yul\":12694:12730   */\n      sstore\n        /* \"#utility.yul\":12129:12740   */\n      pop\n      pop\n      pop\n        /* \"#utility.yul\":12092:12979   */\n    tag_219:\n      pop\n        /* \"#utility.yul\":11682:12985   */\n      pop\n      pop\n      pop\n        /* \"#utility.yul\":11590:12985   */\n      pop\n      pop\n      jump\t// out\n\n    auxdata: 0xa2646970667358221220a721555d46d9394532664e6d08b7b61b9ec14139c80e113032601ecd6ef39e7164736f6c63430008120033\n}\n",
				"bytecode": {
					"linkReferences": {},
					"object": "608060405234801561001057600080fd5b50610a6a806100206000396000f3fe608060405234801561001057600080fd5b50600436106100415760003560e01c80633f7e722a14610046578063a6c807a914610062578063d0b371bd14610094575b600080fd5b610060600480360381019061005b919061050f565b6100c4565b005b61007c60048036038101906100779190610592565b610150565b60405161008b9392919061064d565b60405180910390f35b6100ae60048036038101906100a99190610592565b610202565b6040516100bb9190610734565b60405180910390f35b6040518060600160405280848152602001838152602001828152506000808673ffffffffffffffffffffffffffffffffffffffff1673ffffffffffffffffffffffffffffffffffffffff16815260200190815260200160002060008201518160000190816101329190610962565b50602082015181600101556040820151816002015590505050505050565b600060205280600052604060002060009150905080600001805461017390610785565b80601f016020809104026020016040519081016040528092919081815260200182805461019f90610785565b80156101ec5780601f106101c1576101008083540402835291602001916101ec565b820191906000526020600020905b8154815290600101906020018083116101cf57829003601f168201915b5050505050908060010154908060020154905083565b61020a610300565b6000808373ffffffffffffffffffffffffffffffffffffffff1673ffffffffffffffffffffffffffffffffffffffff16815260200190815260200160002060405180606001604052908160008201805461026390610785565b80601f016020809104026020016040519081016040528092919081815260200182805461028f90610785565b80156102dc5780601f106102b1576101008083540402835291602001916102dc565b820191906000526020600020905b8154815290600101906020018083116102bf57829003601f168201915b50505050508152602001600182015481526020016002820154815250509050919050565b60405180606001604052806060815260200160008152602001600081525090565b6000604051905090565b600080fd5b600080fd5b600073ffffffffffffffffffffffffffffffffffffffff82169050919050565b600061036082610335565b9050919050565b61037081610355565b811461037b57600080fd5b50565b60008135905061038d81610367565b92915050565b600080fd5b600080fd5b6000601f19601f8301169050919050565b7f4e487b7100000000000000000000000000000000000000000000000000000000600052604160045260246000fd5b6103e68261039d565b810181811067ffffffffffffffff82111715610405576104046103ae565b5b80604052505050565b6000610418610321565b905061042482826103dd565b919050565b600067ffffffffffffffff821115610444576104436103ae565b5b61044d8261039d565b9050602081019050919050565b82818337600083830152505050565b600061047c61047784610429565b61040e565b90508281526020810184848401111561049857610497610398565b5b6104a384828561045a565b509392505050565b600082601f8301126104c0576104bf610393565b5b81356104d0848260208601610469565b91505092915050565b6000819050919050565b6104ec816104d9565b81146104f757600080fd5b50565b600081359050610509816104e3565b92915050565b600080600080608085870312156105295761052861032b565b5b60006105378782880161037e565b945050602085013567ffffffffffffffff81111561055857610557610330565b5b610564878288016104ab565b9350506040610575878288016104fa565b9250506060610586878288016104fa565b91505092959194509250565b6000602082840312156105a8576105a761032b565b5b60006105b68482850161037e565b91505092915050565b600081519050919050565b600082825260208201905092915050565b60005b838110156105f95780820151818401526020810190506105de565b60008484015250505050565b6000610610826105bf565b61061a81856105ca565b935061062a8185602086016105db565b6106338161039d565b840191505092915050565b610647816104d9565b82525050565b600060608201905081810360008301526106678186610605565b9050610676602083018561063e565b610683604083018461063e565b949350505050565b600082825260208201905092915050565b60006106a7826105bf565b6106b1818561068b565b93506106c18185602086016105db565b6106ca8161039d565b840191505092915050565b6106de816104d9565b82525050565b60006060830160008301518482036000860152610701828261069c565b915050602083015161071660208601826106d5565b50604083015161072960408601826106d5565b508091505092915050565b6000602082019050818103600083015261074e81846106e4565b905092915050565b7f4e487b7100000000000000000000000000000000000000000000000000000000600052602260045260246000fd5b6000600282049050600182168061079d57607f821691505b6020821081036107b0576107af610756565b5b50919050565b60008190508160005260206000209050919050565b60006020601f8301049050919050565b600082821b905092915050565b6000600883026108187fffffffffffffffffffffffffffffffffffffffffffffffffffffffffffffffff826107db565b61082286836107db565b95508019841693508086168417925050509392505050565b6000819050919050565b600061085f61085a610855846104d9565b61083a565b6104d9565b9050919050565b6000819050919050565b61087983610844565b61088d61088582610866565b8484546107e8565b825550505050565b600090565b6108a2610895565b6108ad818484610870565b505050565b5b818110156108d1576108c660008261089a565b6001810190506108b3565b5050565b601f821115610916576108e7816107b6565b6108f0846107cb565b810160208510156108ff578190505b61091361090b856107cb565b8301826108b2565b50505b505050565b600082821c905092915050565b60006109396000198460080261091b565b1980831691505092915050565b60006109528383610928565b9150826002028217905092915050565b61096b826105bf565b67ffffffffffffffff811115610984576109836103ae565b5b61098e8254610785565b6109998282856108d5565b600060209050601f8311600181146109cc57600084156109ba578287015190505b6109c48582610946565b865550610a2c565b601f1984166109da866107b6565b60005b82811015610a02578489015182556001820191506020850194506020810190506109dd565b86831015610a1f5784890151610a1b601f891682610928565b8355505b6001600288020188555050505b50505050505056fea2646970667358221220a721555d46d9394532664e6d08b7b61b9ec14139c80e113032601ecd6ef39e7164736f6c63430008120033",
					"opcodes": "PUSH1 0x80 PUSH1 0x40 MSTORE CALLVALUE DUP1 ISZERO PUSH2 0x10 JUMPI PUSH1 0x0 DUP1 REVERT JUMPDEST POP PUSH2 0xA6A DUP1 PUSH2 0x20 PUSH1 0x0 CODECOPY PUSH1 0x0 RETURN INVALID PUSH1 0x80 PUSH1 0x40 MSTORE CALLVALUE DUP1 ISZERO PUSH2 0x10 JUMPI PUSH1 0x0 DUP1 REVERT JUMPDEST POP PUSH1 0x4 CALLDATASIZE LT PUSH2 0x41 JUMPI PUSH1 0x0 CALLDATALOAD PUSH1 0xE0 SHR DUP1 PUSH4 0x3F7E722A EQ PUSH2 0x46 JUMPI DUP1 PUSH4 0xA6C807A9 EQ PUSH2 0x62 JUMPI DUP1 PUSH4 0xD0B371BD EQ PUSH2 0x94 JUMPI JUMPDEST PUSH1 0x0 DUP1 REVERT JUMPDEST PUSH2 0x60 PUSH1 0x4 DUP1 CALLDATASIZE SUB DUP2 ADD SWAP1 PUSH2 0x5B SWAP2 SWAP1 PUSH2 0x50F JUMP JUMPDEST PUSH2 0xC4 JUMP JUMPDEST STOP JUMPDEST PUSH2 0x7C PUSH1 0x4 DUP1 CALLDATASIZE SUB DUP2 ADD SWAP1 PUSH2 0x77 SWAP2 SWAP1 PUSH2 0x592 JUMP JUMPDEST PUSH2 0x150 JUMP JUMPDEST PUSH1 0x40 MLOAD PUSH2 0x8B SWAP4 SWAP3 SWAP2 SWAP1 PUSH2 0x64D JUMP JUMPDEST PUSH1 0x40 MLOAD DUP1 SWAP2 SUB SWAP1 RETURN JUMPDEST PUSH2 0xAE PUSH1 0x4 DUP1 CALLDATASIZE SUB DUP2 ADD SWAP1 PUSH2 0xA9 SWAP2 SWAP1 PUSH2 0x592 JUMP JUMPDEST PUSH2 0x202 JUMP JUMPDEST PUSH1 0x40 MLOAD PUSH2 0xBB SWAP2 SWAP1 PUSH2 0x734 JUMP JUMPDEST PUSH1 0x40 MLOAD DUP1 SWAP2 SUB SWAP1 RETURN JUMPDEST PUSH1 0x40 MLOAD DUP1 PUSH1 0x60 ADD PUSH1 0x40 MSTORE DUP1 DUP5 DUP2 MSTORE PUSH1 0x20 ADD DUP4 DUP2 MSTORE PUSH1 0x20 ADD DUP3 DUP2 MSTORE POP PUSH1 0x0 DUP1 DUP7 PUSH20 0xFFFFFFFFFFFFFFFFFFFFFFFFFFFFFFFFFFFFFFFF AND PUSH20 0xFFFFFFFFFFFFFFFFFFFFFFFFFFFFFFFFFFFFFFFF AND DUP2 MSTORE PUSH1 0x20 ADD SWAP1 DUP2 MSTORE PUSH1 0x20 ADD PUSH1 0x0 KECCAK256 PUSH1 0x0 DUP3 ADD MLOAD DUP2 PUSH1 0x0 ADD SWAP1 DUP2 PUSH2 0x132 SWAP2 SWAP1 PUSH2 0x962 JUMP JUMPDEST POP PUSH1 0x20 DUP3 ADD MLOAD DUP2 PUSH1 0x1 ADD SSTORE PUSH1 0x40 DUP3 ADD MLOAD DUP2 PUSH1 0x2 ADD SSTORE SWAP1 POP POP POP POP POP POP JUMP JUMPDEST PUSH1 0x0 PUSH1 0x20 MSTORE DUP1 PUSH1 0x0 MSTORE PUSH1 0x40 PUSH1 0x0 KECCAK256 PUSH1 0x0 SWAP2 POP SWAP1 POP DUP1 PUSH1 0x0 ADD DUP1 SLOAD PUSH2 0x173 SWAP1 PUSH2 0x785 JUMP JUMPDEST DUP1 PUSH1 0x1F ADD PUSH1 0x20 DUP1 SWAP2 DIV MUL PUSH1 0x20 ADD PUSH1 0x40 MLOAD SWAP1 DUP2 ADD PUSH1 0x40 MSTORE DUP1 SWAP3 SWAP2 SWAP1 DUP2 DUP2 MSTORE PUSH1 0x20 ADD DUP3 DUP1 SLOAD PUSH2 0x19F SWAP1 PUSH2 0x785 JUMP JUMPDEST DUP1 ISZERO PUSH2 0x1EC JUMPI DUP1 PUSH1 0x1F LT PUSH2 0x1C1 JUMPI PUSH2 0x100 DUP1 DUP4 SLOAD DIV MUL DUP4 MSTORE SWAP2 PUSH1 0x20 ADD SWAP2 PUSH2 0x1EC JUMP JUMPDEST DUP3 ADD SWAP2 SWAP1 PUSH1 0x0 MSTORE PUSH1 0x20 PUSH1 0x0 KECCAK256 SWAP1 JUMPDEST DUP2 SLOAD DUP2 MSTORE SWAP1 PUSH1 0x1 ADD SWAP1 PUSH1 0x20 ADD DUP1 DUP4 GT PUSH2 0x1CF JUMPI DUP3 SWAP1 SUB PUSH1 0x1F AND DUP3 ADD SWAP2 JUMPDEST POP POP POP POP POP SWAP1 DUP1 PUSH1 0x1 ADD SLOAD SWAP1 DUP1 PUSH1 0x2 ADD SLOAD SWAP1 POP DUP4 JUMP JUMPDEST PUSH2 0x20A PUSH2 0x300 JUMP JUMPDEST PUSH1 0x0 DUP1 DUP4 PUSH20 0xFFFFFFFFFFFFFFFFFFFFFFFFFFFFFFFFFFFFFFFF AND PUSH20 0xFFFFFFFFFFFFFFFFFFFFFFFFFFFFFFFFFFFFFFFF AND DUP2 MSTORE PUSH1 0x20 ADD SWAP1 DUP2 MSTORE PUSH1 0x20 ADD PUSH1 0x0 KECCAK256 PUSH1 0x40 MLOAD DUP1 PUSH1 0x60 ADD PUSH1 0x40 MSTORE SWAP1 DUP2 PUSH1 0x0 DUP3 ADD DUP1 SLOAD PUSH2 0x263 SWAP1 PUSH2 0x785 JUMP JUMPDEST DUP1 PUSH1 0x1F ADD PUSH1 0x20 DUP1 SWAP2 DIV MUL PUSH1 0x20 ADD PUSH1 0x40 MLOAD SWAP1 DUP2 ADD PUSH1 0x40 MSTORE DUP1 SWAP3 SWAP2 SWAP1 DUP2 DUP2 MSTORE PUSH1 0x20 ADD DUP3 DUP1 SLOAD PUSH2 0x28F SWAP1 PUSH2 0x785 JUMP JUMPDEST DUP1 ISZERO PUSH2 0x2DC JUMPI DUP1 PUSH1 0x1F LT PUSH2 0x2B1 JUMPI PUSH2 0x100 DUP1 DUP4 SLOAD DIV MUL DUP4 MSTORE SWAP2 PUSH1 0x20 ADD SWAP2 PUSH2 0x2DC JUMP JUMPDEST DUP3 ADD SWAP2 SWAP1 PUSH1 0x0 MSTORE PUSH1 0x20 PUSH1 0x0 KECCAK256 SWAP1 JUMPDEST DUP2 SLOAD DUP2 MSTORE SWAP1 PUSH1 0x1 ADD SWAP1 PUSH1 0x20 ADD DUP1 DUP4 GT PUSH2 0x2BF JUMPI DUP3 SWAP1 SUB PUSH1 0x1F AND DUP3 ADD SWAP2 JUMPDEST POP POP POP POP POP DUP2 MSTORE PUSH1 0x20 ADD PUSH1 0x1 DUP3 ADD SLOAD DUP2 MSTORE PUSH1 0x20 ADD PUSH1 0x2 DUP3 ADD SLOAD DUP2 MSTORE POP POP SWAP1 POP SWAP2 SWAP1 POP JUMP JUMPDEST PUSH1 0x40 MLOAD DUP1 PUSH1 0x60 ADD PUSH1 0x40 MSTORE DUP1 PUSH1 0x60 DUP2 MSTORE PUSH1 0x20 ADD PUSH1 0x0 DUP2 MSTORE PUSH1 0x20 ADD PUSH1 0x0 DUP2 MSTORE POP SWAP1 JUMP JUMPDEST PUSH1 0x0 PUSH1 0x40 MLOAD SWAP1 POP SWAP1 JUMP JUMPDEST PUSH1 0x0 DUP1 REVERT JUMPDEST PUSH1 0x0 DUP1 REVERT JUMPDEST PUSH1 0x0 PUSH20 0xFFFFFFFFFFFFFFFFFFFFFFFFFFFFFFFFFFFFFFFF DUP3 AND SWAP1 POP SWAP2 SWAP1 POP JUMP JUMPDEST PUSH1 0x0 PUSH2 0x360 DUP3 PUSH2 0x335 JUMP JUMPDEST SWAP1 POP SWAP2 SWAP1 POP JUMP JUMPDEST PUSH2 0x370 DUP2 PUSH2 0x355 JUMP JUMPDEST DUP2 EQ PUSH2 0x37B JUMPI PUSH1 0x0 DUP1 REVERT JUMPDEST POP JUMP JUMPDEST PUSH1 0x0 DUP2 CALLDATALOAD SWAP1 POP PUSH2 0x38D DUP2 PUSH2 0x367 JUMP JUMPDEST SWAP3 SWAP2 POP POP JUMP JUMPDEST PUSH1 0x0 DUP1 REVERT JUMPDEST PUSH1 0x0 DUP1 REVERT JUMPDEST PUSH1 0x0 PUSH1 0x1F NOT PUSH1 0x1F DUP4 ADD AND SWAP1 POP SWAP2 SWAP1 POP JUMP JUMPDEST PUSH32 0x4E487B7100000000000000000000000000000000000000000000000000000000 PUSH1 0x0 MSTORE PUSH1 0x41 PUSH1 0x4 MSTORE PUSH1 0x24 PUSH1 0x0 REVERT JUMPDEST PUSH2 0x3E6 DUP3 PUSH2 0x39D JUMP JUMPDEST DUP2 ADD DUP2 DUP2 LT PUSH8 0xFFFFFFFFFFFFFFFF DUP3 GT OR ISZERO PUSH2 0x405 JUMPI PUSH2 0x404 PUSH2 0x3AE JUMP JUMPDEST JUMPDEST DUP1 PUSH1 0x40 MSTORE POP POP POP JUMP JUMPDEST PUSH1 0x0 PUSH2 0x418 PUSH2 0x321 JUMP JUMPDEST SWAP1 POP PUSH2 0x424 DUP3 DUP3 PUSH2 0x3DD JUMP JUMPDEST SWAP2 SWAP1 POP JUMP JUMPDEST PUSH1 0x0 PUSH8 0xFFFFFFFFFFFFFFFF DUP3 GT ISZERO PUSH2 0x444 JUMPI PUSH2 0x443 PUSH2 0x3AE JUMP JUMPDEST JUMPDEST PUSH2 0x44D DUP3 PUSH2 0x39D JUMP JUMPDEST SWAP1 POP PUSH1 0x20 DUP2 ADD SWAP1 POP SWAP2 SWAP1 POP JUMP JUMPDEST DUP3 DUP2 DUP4 CALLDATACOPY PUSH1 0x0 DUP4 DUP4 ADD MSTORE POP POP POP JUMP JUMPDEST PUSH1 0x0 PUSH2 0x47C PUSH2 0x477 DUP5 PUSH2 0x429 JUMP JUMPDEST PUSH2 0x40E JUMP JUMPDEST SWAP1 POP DUP3 DUP2 MSTORE PUSH1 0x20 DUP2 ADD DUP5 DUP5 DUP5 ADD GT ISZERO PUSH2 0x498 JUMPI PUSH2 0x497 PUSH2 0x398 JUMP JUMPDEST JUMPDEST PUSH2 0x4A3 DUP5 DUP3 DUP6 PUSH2 0x45A JUMP JUMPDEST POP SWAP4 SWAP3 POP POP POP JUMP JUMPDEST PUSH1 0x0 DUP3 PUSH1 0x1F DUP4 ADD SLT PUSH2 0x4C0 JUMPI PUSH2 0x4BF PUSH2 0x393 JUMP JUMPDEST JUMPDEST DUP2 CALLDATALOAD PUSH2 0x4D0 DUP5 DUP3 PUSH1 0x20 DUP7 ADD PUSH2 0x469 JUMP JUMPDEST SWAP2 POP POP SWAP3 SWAP2 POP POP JUMP JUMPDEST PUSH1 0x0 DUP2 SWAP1 POP SWAP2 SWAP1 POP JUMP JUMPDEST PUSH2 0x4EC DUP2 PUSH2 0x4D9 JUMP JUMPDEST DUP2 EQ PUSH2 0x4F7 JUMPI PUSH1 0x0 DUP1 REVERT JUMPDEST POP JUMP JUMPDEST PUSH1 0x0 DUP2 CALLDATALOAD SWAP1 POP PUSH2 0x509 DUP2 PUSH2 0x4E3 JUMP JUMPDEST SWAP3 SWAP2 POP POP JUMP JUMPDEST PUSH1 0x0 DUP1 PUSH1 0x0 DUP1 PUSH1 0x80 DUP6 DUP8 SUB SLT ISZERO PUSH2 0x529 JUMPI PUSH2 0x528 PUSH2 0x32B JUMP JUMPDEST JUMPDEST PUSH1 0x0 PUSH2 0x537 DUP8 DUP3 DUP9 ADD PUSH2 0x37E JUMP JUMPDEST SWAP5 POP POP PUSH1 0x20 DUP6 ADD CALLDATALOAD PUSH8 0xFFFFFFFFFFFFFFFF DUP2 GT ISZERO PUSH2 0x558 JUMPI PUSH2 0x557 PUSH2 0x330 JUMP JUMPDEST JUMPDEST PUSH2 0x564 DUP8 DUP3 DUP9 ADD PUSH2 0x4AB JUMP JUMPDEST SWAP4 POP POP PUSH1 0x40 PUSH2 0x575 DUP8 DUP3 DUP9 ADD PUSH2 0x4FA JUMP JUMPDEST SWAP3 POP POP PUSH1 0x60 PUSH2 0x586 DUP8 DUP3 DUP9 ADD PUSH2 0x4FA JUMP JUMPDEST SWAP2 POP POP SWAP3 SWAP6 SWAP2 SWAP5 POP SWAP3 POP JUMP JUMPDEST PUSH1 0x0 PUSH1 0x20 DUP3 DUP5 SUB SLT ISZERO PUSH2 0x5A8 JUMPI PUSH2 0x5A7 PUSH2 0x32B JUMP JUMPDEST JUMPDEST PUSH1 0x0 PUSH2 0x5B6 DUP5 DUP3 DUP6 ADD PUSH2 0x37E JUMP JUMPDEST SWAP2 POP POP SWAP3 SWAP2 POP POP JUMP JUMPDEST PUSH1 0x0 DUP2 MLOAD SWAP1 POP SWAP2 SWAP1 POP JUMP JUMPDEST PUSH1 0x0 DUP3 DUP3 MSTORE PUSH1 0x20 DUP3 ADD SWAP1 POP SWAP3 SWAP2 POP POP JUMP JUMPDEST PUSH1 0x0 JUMPDEST DUP4 DUP2 LT ISZERO PUSH2 0x5F9 JUMPI DUP1 DUP3 ADD MLOAD DUP2 DUP5 ADD MSTORE PUSH1 0x20 DUP2 ADD SWAP1 POP PUSH2 0x5DE JUMP JUMPDEST PUSH1 0x0 DUP5 DUP5 ADD MSTORE POP POP POP POP JUMP JUMPDEST PUSH1 0x0 PUSH2 0x610 DUP3 PUSH2 0x5BF JUMP JUMPDEST PUSH2 0x61A DUP2 DUP6 PUSH2 0x5CA JUMP JUMPDEST SWAP4 POP PUSH2 0x62A DUP2 DUP6 PUSH1 0x20 DUP7 ADD PUSH2 0x5DB JUMP JUMPDEST PUSH2 0x633 DUP2 PUSH2 0x39D JUMP JUMPDEST DUP5 ADD SWAP2 POP POP SWAP3 SWAP2 POP POP JUMP JUMPDEST PUSH2 0x647 DUP2 PUSH2 0x4D9 JUMP JUMPDEST DUP3 MSTORE POP POP JUMP JUMPDEST PUSH1 0x0 PUSH1 0x60 DUP3 ADD SWAP1 POP DUP2 DUP2 SUB PUSH1 0x0 DUP4 ADD MSTORE PUSH2 0x667 DUP2 DUP7 PUSH2 0x605 JUMP JUMPDEST SWAP1 POP PUSH2 0x676 PUSH1 0x20 DUP4 ADD DUP6 PUSH2 0x63E JUMP JUMPDEST PUSH2 0x683 PUSH1 0x40 DUP4 ADD DUP5 PUSH2 0x63E JUMP JUMPDEST SWAP5 SWAP4 POP POP POP POP JUMP JUMPDEST PUSH1 0x0 DUP3 DUP3 MSTORE PUSH1 0x20 DUP3 ADD SWAP1 POP SWAP3 SWAP2 POP POP JUMP JUMPDEST PUSH1 0x0 PUSH2 0x6A7 DUP3 PUSH2 0x5BF JUMP JUMPDEST PUSH2 0x6B1 DUP2 DUP6 PUSH2 0x68B JUMP JUMPDEST SWAP4 POP PUSH2 0x6C1 DUP2 DUP6 PUSH1 0x20 DUP7 ADD PUSH2 0x5DB JUMP JUMPDEST PUSH2 0x6CA DUP2 PUSH2 0x39D JUMP JUMPDEST DUP5 ADD SWAP2 POP POP SWAP3 SWAP2 POP POP JUMP JUMPDEST PUSH2 0x6DE DUP2 PUSH2 0x4D9 JUMP JUMPDEST DUP3 MSTORE POP POP JUMP JUMPDEST PUSH1 0x0 PUSH1 0x60 DUP4 ADD PUSH1 0x0 DUP4 ADD MLOAD DUP5 DUP3 SUB PUSH1 0x0 DUP7 ADD MSTORE PUSH2 0x701 DUP3 DUP3 PUSH2 0x69C JUMP JUMPDEST SWAP2 POP POP PUSH1 0x20 DUP4 ADD MLOAD PUSH2 0x716 PUSH1 0x20 DUP7 ADD DUP3 PUSH2 0x6D5 JUMP JUMPDEST POP PUSH1 0x40 DUP4 ADD MLOAD PUSH2 0x729 PUSH1 0x40 DUP7 ADD DUP3 PUSH2 0x6D5 JUMP JUMPDEST POP DUP1 SWAP2 POP POP SWAP3 SWAP2 POP POP JUMP JUMPDEST PUSH1 0x0 PUSH1 0x20 DUP3 ADD SWAP1 POP DUP2 DUP2 SUB PUSH1 0x0 DUP4 ADD MSTORE PUSH2 0x74E DUP2 DUP5 PUSH2 0x6E4 JUMP JUMPDEST SWAP1 POP SWAP3 SWAP2 POP POP JUMP JUMPDEST PUSH32 0x4E487B7100000000000000000000000000000000000000000000000000000000 PUSH1 0x0 MSTORE PUSH1 0x22 PUSH1 0x4 MSTORE PUSH1 0x24 PUSH1 0x0 REVERT JUMPDEST PUSH1 0x0 PUSH1 0x2 DUP3 DIV SWAP1 POP PUSH1 0x1 DUP3 AND DUP1 PUSH2 0x79D JUMPI PUSH1 0x7F DUP3 AND SWAP2 POP JUMPDEST PUSH1 0x20 DUP3 LT DUP2 SUB PUSH2 0x7B0 JUMPI PUSH2 0x7AF PUSH2 0x756 JUMP JUMPDEST JUMPDEST POP SWAP2 SWAP1 POP JUMP JUMPDEST PUSH1 0x0 DUP2 SWAP1 POP DUP2 PUSH1 0x0 MSTORE PUSH1 0x20 PUSH1 0x0 KECCAK256 SWAP1 POP SWAP2 SWAP1 POP JUMP JUMPDEST PUSH1 0x0 PUSH1 0x20 PUSH1 0x1F DUP4 ADD DIV SWAP1 POP SWAP2 SWAP1 POP JUMP JUMPDEST PUSH1 0x0 DUP3 DUP3 SHL SWAP1 POP SWAP3 SWAP2 POP POP JUMP JUMPDEST PUSH1 0x0 PUSH1 0x8 DUP4 MUL PUSH2 0x818 PUSH32 0xFFFFFFFFFFFFFFFFFFFFFFFFFFFFFFFFFFFFFFFFFFFFFFFFFFFFFFFFFFFFFFFF DUP3 PUSH2 0x7DB JUMP JUMPDEST PUSH2 0x822 DUP7 DUP4 PUSH2 0x7DB JUMP JUMPDEST SWAP6 POP DUP1 NOT DUP5 AND SWAP4 POP DUP1 DUP7 AND DUP5 OR SWAP3 POP POP POP SWAP4 SWAP3 POP POP POP JUMP JUMPDEST PUSH1 0x0 DUP2 SWAP1 POP SWAP2 SWAP1 POP JUMP JUMPDEST PUSH1 0x0 PUSH2 0x85F PUSH2 0x85A PUSH2 0x855 DUP5 PUSH2 0x4D9 JUMP JUMPDEST PUSH2 0x83A JUMP JUMPDEST PUSH2 0x4D9 JUMP JUMPDEST SWAP1 POP SWAP2 SWAP1 POP JUMP JUMPDEST PUSH1 0x0 DUP2 SWAP1 POP SWAP2 SWAP1 POP JUMP JUMPDEST PUSH2 0x879 DUP4 PUSH2 0x844 JUMP JUMPDEST PUSH2 0x88D PUSH2 0x885 DUP3 PUSH2 0x866 JUMP JUMPDEST DUP5 DUP5 SLOAD PUSH2 0x7E8 JUMP JUMPDEST DUP3 SSTORE POP POP POP POP JUMP JUMPDEST PUSH1 0x0 SWAP1 JUMP JUMPDEST PUSH2 0x8A2 PUSH2 0x895 JUMP JUMPDEST PUSH2 0x8AD DUP2 DUP5 DUP5 PUSH2 0x870 JUMP JUMPDEST POP POP POP JUMP JUMPDEST JUMPDEST DUP2 DUP2 LT ISZERO PUSH2 0x8D1 JUMPI PUSH2 0x8C6 PUSH1 0x0 DUP3 PUSH2 0x89A JUMP JUMPDEST PUSH1 0x1 DUP2 ADD SWAP1 POP PUSH2 0x8B3 JUMP JUMPDEST POP POP JUMP JUMPDEST PUSH1 0x1F DUP3 GT ISZERO PUSH2 0x916 JUMPI PUSH2 0x8E7 DUP2 PUSH2 0x7B6 JUMP JUMPDEST PUSH2 0x8F0 DUP5 PUSH2 0x7CB JUMP JUMPDEST DUP2 ADD PUSH1 0x20 DUP6 LT ISZERO PUSH2 0x8FF JUMPI DUP2 SWAP1 POP JUMPDEST PUSH2 0x913 PUSH2 0x90B DUP6 PUSH2 0x7CB JUMP JUMPDEST DUP4 ADD DUP3 PUSH2 0x8B2 JUMP JUMPDEST POP POP JUMPDEST POP POP POP JUMP JUMPDEST PUSH1 0x0 DUP3 DUP3 SHR SWAP1 POP SWAP3 SWAP2 POP POP JUMP JUMPDEST PUSH1 0x0 PUSH2 0x939 PUSH1 0x0 NOT DUP5 PUSH1 0x8 MUL PUSH2 0x91B JUMP JUMPDEST NOT DUP1 DUP4 AND SWAP2 POP POP SWAP3 SWAP2 POP POP JUMP JUMPDEST PUSH1 0x0 PUSH2 0x952 DUP4 DUP4 PUSH2 0x928 JUMP JUMPDEST SWAP2 POP DUP3 PUSH1 0x2 MUL DUP3 OR SWAP1 POP SWAP3 SWAP2 POP POP JUMP JUMPDEST PUSH2 0x96B DUP3 PUSH2 0x5BF JUMP JUMPDEST PUSH8 0xFFFFFFFFFFFFFFFF DUP2 GT ISZERO PUSH2 0x984 JUMPI PUSH2 0x983 PUSH2 0x3AE JUMP JUMPDEST JUMPDEST PUSH2 0x98E DUP3 SLOAD PUSH2 0x785 JUMP JUMPDEST PUSH2 0x999 DUP3 DUP3 DUP6 PUSH2 0x8D5 JUMP JUMPDEST PUSH1 0x0 PUSH1 0x20 SWAP1 POP PUSH1 0x1F DUP4 GT PUSH1 0x1 DUP2 EQ PUSH2 0x9CC JUMPI PUSH1 0x0 DUP5 ISZERO PUSH2 0x9BA JUMPI DUP3 DUP8 ADD MLOAD SWAP1 POP JUMPDEST PUSH2 0x9C4 DUP6 DUP3 PUSH2 0x946 JUMP JUMPDEST DUP7 SSTORE POP PUSH2 0xA2C JUMP JUMPDEST PUSH1 0x1F NOT DUP5 AND PUSH2 0x9DA DUP7 PUSH2 0x7B6 JUMP JUMPDEST PUSH1 0x0 JUMPDEST DUP3 DUP2 LT ISZERO PUSH2 0xA02 JUMPI DUP5 DUP10 ADD MLOAD DUP3 SSTORE PUSH1 0x1 DUP3 ADD SWAP2 POP PUSH1 0x20 DUP6 ADD SWAP5 POP PUSH1 0x20 DUP2 ADD SWAP1 POP PUSH2 0x9DD JUMP JUMPDEST DUP7 DUP4 LT ISZERO PUSH2 0xA1F JUMPI DUP5 DUP10 ADD MLOAD PUSH2 0xA1B PUSH1 0x1F DUP10 AND DUP3 PUSH2 0x928 JUMP JUMPDEST DUP4 SSTORE POP JUMPDEST PUSH1 0x1 PUSH1 0x2 DUP9 MUL ADD DUP9 SSTORE POP POP POP JUMPDEST POP POP POP POP POP POP JUMP INVALID LOG2 PUSH5 0x6970667358 0x22 SLT KECCAK256 0xA7 0x21 SSTORE 0x5D CHAINID 0xD9 CODECOPY GASLIMIT ORIGIN PUSH7 0x4E6D08B7B61B9E 0xC1 COINBASE CODECOPY 0xC8 0xE GT ADDRESS ORIGIN PUSH1 0x1E 0xCD PUSH15 0xF39E7164736F6C6343000812003300 "
				},
				"gasEstimates": {
					"creation": {
						"codeDepositCost": "533200",
						"executionCost": "568",
						"totalCost": "533768"
					},
					"external": {
						"getStudentDetails(address)": "infinite",
						"insertStudentDetails(address,string,uint256,uint256)": "infinite",
						"students(address)": "infinite"
					}
				},
				"methodIdentifiers": {
					"getStudentDetails(address)": "d0b371bd",
					"insertStudentDetails(address,string,uint256,uint256)": "3f7e722a",
					"students(address)": "a6c807a9"
				}
			},
			"storageLayout": {
				"storage": [
					{
						"astId": 13,
						"contract": "contracts/12mappingWithStruct.sol:StudentDetails",
						"label": "students",
						"offset": 0,
						"slot": "0",
						"type": "t_mapping(t_address,t_struct(Student)8_storage)"
					}
				],
				"types": {
					"t_address": {
						"encoding": "inplace",
						"label": "address",
						"numberOfBytes": "20"
					},
					"t_mapping(t_address,t_struct(Student)8_storage)": {
						"encoding": "mapping",
						"key": "t_address",
						"label": "mapping(address => struct StudentDetails.Student)",
						"numberOfBytes": "32",
						"value": "t_struct(Student)8_storage"
					},
					"t_string_storage": {
						"encoding": "bytes",
						"label": "string",
						"numberOfBytes": "32"
					},
					"t_struct(Student)8_storage": {
						"encoding": "inplace",
						"label": "struct StudentDetails.Student",
						"members": [
							{
								"astId": 3,
								"contract": "contracts/12mappingWithStruct.sol:StudentDetails",
								"label": "name",
								"offset": 0,
								"slot": "0",
								"type": "t_string_storage"
							},
							{
								"astId": 5,
								"contract": "contracts/12mappingWithStruct.sol:StudentDetails",
								"label": "roll",
								"offset": 0,
								"slot": "1",
								"type": "t_uint256"
							},
							{
								"astId": 7,
								"contract": "contracts/12mappingWithStruct.sol:StudentDetails",
								"label": "age",
								"offset": 0,
								"slot": "2",
								"type": "t_uint256"
							}
						],
						"numberOfBytes": "96"
					},
					"t_uint256": {
						"encoding": "inplace",
						"label": "uint256",
						"numberOfBytes": "32"
					}
				}
			},
			"userdoc": {
				"kind": "user",
				"methods": {},
				"version": 1
			}
		}
	}
}